S00C0000323536312E737265634A
S113000065C0000084C0000082C0000080C0000001
S11300107EC000000C94B8080C940C090C94600980
S113002076C0000074C0000072C0000070C0000000
S11300306EC00000E1C700006AC0000068C0000094
S113004066C0000064C0000062C0000060C0000020
S11300505EC000005CC000005AC0000058C0000030
S11300600C94AE0854C0000052C0000050C0000000
S11300704EC00000E8C700004AC0000048C00000AD
S113008046C0000044C0000042C0000040C0000060
S11300900C948708EEC700000C94600838C0000078
S11300A036C0000034C0000032C0000030C0000080
S11300B02EC000002CC000002AC0000028C0000090
S11300C026C0000024C0000022C0000011241FBE6E
S11300D0CFEFD1E2DEBFCDBF00E00CBF12E0A0E065
S11300E0B2E0E2ECFBE100E00BBF02C007900D922E
S11300F0A037B107D9F72DE0A0E7B2E001C01D9207
S1130100AC3EB207E1F70E94C3090C94DF0D78CF2F
S113011080917202E0917302F0917402E80FF11D74
S11301208081882369F08093CE00809172028F5F72
S113013080937202E9ECF0E080818064808308950A
S11301408AE08093CE00E9ECF0E080818F7D8083AB
S11301500895CF93DF93E9ECF0E080818F7B808377
S1130160C3E7D2E0888199810E94770A2A813B8182
S11301702115310541F181E090E041E0880F991F9C
S1130180FC01EF58FD4F318320834F5F842F90E0B3
S1130190FC01EE0FFF1FED58FD4F20813181211529
S11301A0310561F7880F991FFC01EF58FD4F11824B
S11301B01082423060F010927202E9ECF0E080812B
S11301C08062808304C01092740210927302DF91E3
S11301D0CF9108958091CE008D3009F43FC0909165
S11301E0700291110AC0109271028093AF031092B1
S11301F0690381E08093700208958A3089F0E09168
S11302007102E53468F4AE2FB0E0A759BC4F8C936B
S1130210EF5FE0937102F0E0E759FC4F108208951C
S1130220109270022091030C2E31C1F030E0F901DC
S1130230EF54FC4F8091AF03808346E4429FC0019A
S1130240439F900D112469E673E081539C4F0E94F3
S11302500F0BE3E0FCE080818F5F80830895E3E788
S1130260F2E08FEF92E011921192E817F907D9F7B3
S11302701092030C0895FF920F931F93CF93DF9373
S11302808C01FFB6F894FC0101900020E9F7CF013E
S1130290801B910B0E94E209EC01B8010E940F0B34
S11302A08091730290917402892B81F090E09F5F9A
S11302B0292F30E0F901EE0FFF1FED58FD4F40816B
S11302C05181452BA1F7963450F402C020E030E070
S11302D0220F331FF901ED58FD4FD183C083809164
S11302E0C90085FD07C0E9ECF0E08081806280836D
S11302F010927202FFBEDF91CF911F910F91FF9078
S11303000895DF92EF92FF920F931F93CF93DF93A1
S1130310CDB7DEB7E2970FB6F894DEBF0FBECDBF00
S11303208091030C882309F448C0DFB6F8948FEC5D
S113033093E09F938F938091B1031F928F938DE5E8
S113034092E09F938F938E010F5F1F4F1F930F9324
S11303500E94160BC8018FDFE3E0FCE0808181502E
S113036080830FB6F894DEBF0FBECDBF882321F182
S113037010E006E47F01212F30E0C9010196FC0161
S1130380EF54FC4F4081F901EF54FC4F4083089F28
S1130390B001099F700D112461537C4F029FC0016D
S11303A0039F900D112481539C4F0E940F0B1F5FDC
S11303B0F70180811817F8F2DFBEE2960FB6F894C1
S11303C0DEBF0FBECDBFDF91CF911F910F91FF9084
S11303D0EF90DF90089584B1876084B985B1897FF7
S11303E085B984B1806784B985B1806785B98DB1D9
S11303F01DB88EB180678EB9279A2F9A80E58CBD7F
S113040081E08DBD08958EBD0DB407FEFDCF8EB580
S113041008950F931F93CF93DF9390E0EC01CC0FDB
S1130420DD1FCC0FDD1FCC0FDD1F8C0F9D1FEC01DA
S1130430CE5BDD4FE881F981908101E010E0980105
S11304400A8002C0220F331F0A94E2F7822F80959C
S11304508923808380ECD7DFE881F98180810A8059
S113046002C0000F111F0A94E2F7082B0083DF91EA
S1130470CF911F910F9108950F931F93CF93DF9303
S11304809FB7F89490E0EC01CC0FDD1FCC0FDD1F7B
S1130490CC0FDD1F8C0F9D1FEC01CE5BDD4FE8817F
S11304A0F981908101E010E098010A8002C0220FD6
S11304B0331F0A94E2F7822F80958923808380EA90
S11304C0A2DF8FEFA0DFE881F98190810A8002C06A
S11304D0000F111F0A94E2F7092B0083DF91CF91DB
S11304E01F910F91089590E0FC01EE0FFF1FEE0F96
S11304F0FF1FEE0FFF1F8E0F9F1FFC01EE5BFD4FD2
S1130500A081B1812C9181E090E0028002C0880F2B
S1130510991F0A94E2F7809582238C93089590E0C2
S1130520FC01EE0FFF1FEE0FFF1FEE0FFF1F8E0FDC
S11305309F1FFC01EE5BFD4FA081B1812C9181E0F6
S113054090E0028002C0880F991F0A94E2F7822B80
S11305508C930895CF92DF92EF92FF920F931F93A3
S1130560CF93DF937C01D62E8FB7F894862F84DF48
S113057082FF08C084FF08C086FD52C06894CC2462
S1130580C2F805C0C12C03C06894CC24C1F88D2DD9
S1130590AADF8C2D806437DFF701808191819695E5
S11305A0879596958795969587952DDFF701808198
S11305B08295880F807E27DF80E025DF80E023DFBF
S11305C0F7011381193008F018E0F70182818823BC
S11305D021F0812F806417DF12C0812F14DF1123D3
S11305E071F0E70124961150012F10E00B5F1F4FAB
S11305F00E0D1F1D899107DFC017D107D9F78D2D67
S11306008EDF00008D2D6FDFC11003C081E8FBDE9B
S113061003C08C2D8068F7DE8D2D81DF81E001C061
S113062080E0DF91CF911F910F91FF90EF90DF90C9
S1130630CF900895AF92BF92DF92EF92FF920F9303
S11306401F93CF93DF9300D01F921F92CDB7DEB7D5
S11306508C01FC01808191818A38F3E09F0719F0B5
S11306608A3B934019F460E0C80174DFF80180818B
S113067091818130924029F5F801808590E0982F8E
S113068088272185820F911D9F938F938DE692E099
S11306909F938F93CE0101969F938F93C7D7E2E1E7
S11306A0F2E0898181838A8182838B8183838C8137
S11306B085838D8186830F900F900F900F900F90FC
S11306C00F90F801808191818115944009F04DC00B
S11306D0F801D084E184F12CFE2CEE248285E80E0E
S11306E0F11C868190E0982F88272781820F911D25
S11306F09F938F930DE612E01F930F93CE01019603
S11307005C019F938F9392D7EAE2F2E0898184831C
S11307108A8185838B8186838C8180871F92DF9277
S11307201F930F93BF92AF9281D7E6E3F2E08981E2
S113073084838A8185838B8186838C818087FF92E1
S1130740EF921F930F93BF92AF9270D7EEE1F2E056
S1130750898185838A8186838B8187838C81808745
S11307600FB6F894DEBF0FBECDBF0F900F900F9061
S11307700F900F90DF91CF911F910F91FF90EF9009
S1130780DF90BF90AF900895EF92FF920F931F9365
S1130790CF93DF93E82EF62E50E0EA01CC0FDD1F55
S11307A0CC0FDD1FCC0FDD1F4C0F5D1FEA01CE5BAC
S11307B0DD4FE881F981208101E010E0A8010A8081
S11307C002C0440F551F0A94E2F7942F9095922388
S11307D0908382E018DE8E2D16DE8F2D14DEE881E4
S11307E0F98180810A8002C0000F111F0A94E2F788
S11307F0082B0083DF91CF911F910F91FF90EF9011
S11308000895EF92FF920F931F93CF93DF93FFB658
S1130810F89490E0EC01CC0FDD1FCC0FDD1FCC0F62
S1130820DD1F8C0F9D1FEC01CE5BDD4FE881F9814C
S1130830908101E010E098010A8002C0220F331F6A
S11308400A94E2F7822F80958923808380EBDBDD95
S11308508FEFD9DDE82E8FEFD6DDE881F981808135
S113086098010A8002C0220F331F0A94E2F7282B52
S11308702083FFBE8E2DDF91CF911F910F91FF90AA
S1130880EF900895DF92EF92FF920F931F93CF930F
S1130890DF93D82EE62EF42E30E0E901CC0FDD1FD5
S11308A0CC0FDD1FCC0FDD1F2C0F3D1FE901CE5BEC
S11308B0DD4FA881B9812C9101E010E0F8010A8094
S11308C002C0EE0FFF1F0A94E2F79E2F9095922329
S11308D09C9385E098DD8D2D96DD8E2D94DD8F2DF6
S11308E092DDE881F9812081C8010A8002C0880F65
S11308F0991F0A94E2F7822B8083DF91CF911F9195
S11309000F91FF90EF90DF9008950F931F93CF9373
S1130910DF93C82FDFB7F8947CDD0C2F10E0C801FB
S1130920880F991F880F991F880F991F080F191F87
S11309300E5B1D4F4C2FF80166818AE225DF4C2F98
S1130940F801678189E220DF4C2FF801608588E295
S11309501BDF4C2F63E08BE217DF4C2F63E08BE24D
S113096013DF4C2F60E280E60FDF4C2F60E280E75C
S11309700BDF4C2F69EF80E207DF4C2F60EE81E242
S113098003DF4C2F60E082E2FFDE4C2F60E083E265
S1130990FBDE4C2F6FE384E2F7DE4C2F60EC85E244
S11309A0F3DE4C2F60E086E2EFDE4C2F60E087E25E
S11309B0EBDE4C2F67E580E0E7DE4C2F60EE81E054
S11309C0E3DE4C2F67E784E0DFDE4C2F60E485E054
S11309D0DBDE4C2F60E088E0D7DE4C2F60E089E05E
S11309E0D3DE4C2F62E180E1CFDE4C2F60E081E169
S11309F0CBDE4C2F60E08CE0C7DE4C2F60E08DE056
S1130A00C3DE2C2F44E067EE8FE03CDFDFBFDF91D5
S1130A10CF911F910F9108958093B0030895FF9291
S1130A200F931F93CF93DF93CDB7DEB72C970FB6F9
S1130A30F894DEBF0FBECDBFF82E8FE892E09A8304
S1130A4089831B8288E08C8380E88D831E821F82C9
S1130A50188619861A861B861C866F2DCE01019670
S1130A6079DD9091B003913059F0923061F0933078
S1130A7069F0943071F0953071F406E012E00BC027
S1130A8006E312E008C00AE212E005C00EE112E03B
S1130A9002C002E112E080E992E09A83898380EC4B
S1130AA08D83F80180818E8381818F838281888701
S1130AB08381898784818A8785818B8786818C87D6
S1130AC06F2DCE01019646DD81E992E09A838983F8
S1130AD087E88D83F80187818E8380858F83818564
S1130AE088878285898783858A8784858B8780E246
S1130AF08C876F2DCE0101962DDD2C960FB6F894C0
S1130B00DEBF0FBECDBFDF91CF911F910F91FF903C
S1130B100895BF92CF92DF92EF92FF920F931F93AB
S1130B20CF93DF936C01062F862F6BDE182F282FAF
S1130B302074B22E86FF05C0802FD5DC80E963DCEB
S1130B4007C088230CF04FC0802FCDDC84E95BDC28
S1130B508FEF59DCE8E08E9FC0011124F6019183E8
S1130B6080838FEF50DC282F229526952770F6017D
S1130B7080819181822B918380838FEF44DC8FEF7E
S1130B8042DC8FEF40DC8F70F6018383882389F089
S1130B90E60124969FEF980FE92EF12CF5E0EF0E75
S1130BA0F11CEC0CFD1C8FEF2EDC8993CE15DF05B8
S1130BB0D1F7802FB4DC13FF04C081E0F6018283F7
S1130BC002C0F6011282BB2031F0202F40E061E028
S1130BD08CE258DE05C0202F40E062E08CE252DE59
S1130BE0812F877001C08FEFDF91CF911F910F91FB
S1130BF0FF90EF90DF90CF90BF900895089580E02C
S1130C0090E02EEF35E0FC01EE0FFF1FE15CFC4F9E
S1130C1031832083019685319105A9F780E090E026
S1130C202EEF35E0FC01EE0FFF1FEE0FFF1FE1502A
S1130C30FD4F318320831382128201968031910506
S1130C4089F708950FB607FE0CC0F894A1E00AC016
S1130C502F5F3F4F2531310539F4AA23D1F0789421
S1130C600895A0E020E030E0B901F901EE0FFF1F84
S1130C70E15CFC4F408151814E5F554049F7660F5E
S1130C80771FFB01E15CFC4F91838083AA2309F069
S1130C9078940895CF930FB607FE60C0F89420911E
S1130CA0FF02309100032817390709F44DC0C1E051
S1130CB015C0F901EE0FFF1FEE0FFF1FE150FD4FAE
S1130CC0408151812F5F3F4F4817590751F4738377
S1130CD06283CC2309F44BC0789449C021E030E00E
S1130CE0E8CF2031310529F72091FF02309100032C
S1130CF02E5F354081F021E030E0D901F901EE0F9B
S1130D00FF1FEE0FFF1FE150FD4F408151814E5FE9
S1130D105540A1F402C0A0E0B0E0AA0FBB1FAA0F87
S1130D20BB1FA150BD4F11969C938E9313967C9339
S1130D306E931297CC23D9F0789419C02F5F3F4F4C
S1130D4020313105D1F613C070930203609301037F
S1130D50C3CF709302036093010309C02091FF0283
S1130D603091000328173907A1F3C0E0B7CFCF9122
S1130D700895CF93DF93F894E0913F03F0914003FB
S1130D8085E0EE3FF80711F478941DC080E090E010
S1130D90DC010196EC01CC0FDD1FC15CDC4F288126
S1130DA03981AA0FBB1FA15CBC4F11963C932E93B3
S1130DB08431910569F78EEF95E0909368038093F1
S1130DC0670378941995DF91CF910895EF92FF927C
S1130DD00F931F93CF93DF93E12CF12C0EEF15E0CB
S1130DE0F701D701AA0FBB1FAA0FBB1FA150BD4F0C
S1130DF08D919C918E5F954001F1D701AA0FBB1F85
S1130E00AA0FBB1FA150BD4F12968D919C911397B1
S1130E10019739F0FD018281938101979383828345
S1130E200CC0EE0FFF1FEE0FFF1FEF01C150DD4F8F
S1130E308881998107DF198308838FEFE81AF80AFC
S1130E4020E1E216F10461F6DF91CF911F910F9139
S1130E50FF90EF9008958CE08093B1001092B2005F
S1130E608AEF8093B30082E08093700078940895B1
S1130E701092CD0087E68093CC001092C80088E9D8
S1130E808093C90086E88093CA0083B3836083BBE0
S1130E9087B1836087B98EEB80937C0088E8809368
S1130EA07A000895CF92DF92EF92FF920F931F93EF
S1130EB0CF93DF93F894C4E0DCE010E06AC0CE0185
S1130EC0B9DB88819981892B09F463C0012F0F5FF5
S1130ED0202F30E0B90161507109A901440F551F59
S1130EE0FA01E20FF31FEE0FFF1FEE0FFF1FEC5F7F
S1130EF0F34FC080D1807B01EE0CFF1CD701A60FFD
S1130F00B71FCD01880F991F880F991FDC01AC5FB3
S1130F10B34F1196DC92CE92838113968C931397E0
S1130F20828112968C931297848114968C931497D1
S1130F30858115968C931597868116968C931697B2
S1130F40878117968C931797808518968C9318979A
S1130F50818519968C93199782851A968C9383852B
S1130F60D701A60FB71FAA0FBB1FAA0FBB1FAC5FE9
S1130F70B34F1B968C93FA01E20FF31FEE0FFF1F82
S1130F80EE0FFF1FEC5FF34F80819181892B09F0F5
S1130F909ECF88819981892B09F091CF7894DF9134
S1130FA0CF911F910F91FF90EF90DF90CF90089514
S1130FB0F89498B182E0892788B98091E40D2CDDFA
S1130FC08091E40D9091E50D0196863091052CF405
S1130FD09093E50D8093E40D06C081E090E090933A
S1130FE0E50D8093E40D80E01ADD60ED77E088ED97
S1130FF097E050DE789408951F920F920FB60F92E7
S113100011240BB60F922F933F934F935F936F93DB
S11310107F938F939F93AF93BF93EF93FF93D6DE0A
S1131020FF91EF91BF91AF919F918F917F916F91BC
S11310305F914F913F912F910F900BBE0F900FBE78
S11310400F901F9018951F920F920FB60F921124B4
S11310508F939F9380917800909179009093E70DFE
S11310608093E60D9F918F910F900FBE0F901F906C
S113107018951F920F920FB60F9211240BB60F9270
S11310802F933F934F935F936F937F938F939F938C
S1131090AF93BF93EF93FF933BD8FF91EF91BF9131
S11310A0AF919F918F917F916F915F914F913F91FC
S11310B02F910F900BBE0F900FBE0F901F9018959D
S11310C01F920F920FB60F9211240BB60F922F930B
S11310D03F934F935F936F937F938F939F93AF93BC
S11310E0BF93EF93FF9335D8FF91EF91BF91AF91E9
S11310F09F918F917F916F915F914F913F912F912C
S11311000F900BBE0F900FBE0F901F9018951F925B
S11311100F920FB60F9211240BB60F922F933F9399
S11311204F935F936F937F938F939F93AF93BF93EB
S1131130EF93FF934FD8FF91EF91BF91AF919F91A0
S11311408F917F916F915F914F913F912F910F906C
S11311500BBE0F900FBE0F901F9018951F920F9209
S11311600FB60F9211240F900FBE0F901F90189579
S11311701F920F920FB60F9211240BB60F922F935A
S11311803F934F935F936F937F938F939F93AF930B
S1131190BF93EF93FF93409A8091040C9091050CB8
S11311A0892B91F0E0E1FCE080E08F5F20813181C8
S11311B0232B11F03C96F9CF883238F094B381E0B8
S11311C0892784BB87E201C080E090E09C01220F64
S11311D0331F820F931F880F991F880F991F60E098
S11311E08C5F934F96DC61E070E082E597E052DD1E
S11311F04098FF91EF91BF91AF919F918F917F9113
S11312006F915F914F913F912F910F900BBE0F9073
S11312100FBE0F901F9018951F920F920FB60F924A
S113122011240BB60F922F933F934F935F936F93B9
S11312307F938F939F93AF93BF93EF93FF9394B355
S113124082E0892784BB8091040C9091050C892B42
S113125081F0E0E1FCE021E030E0C901408151810E
S1131260452B21F02F5F3F4F3C96F7CF283218F0E3
S113127014C080E090E09C01220F331F820F931F63
S1131280880F991F880F991F61E08C5F934F41DC91
S113129061E070E082E597E0FDDCFF91EF91BF91A2
S11312A0AF919F918F917F916F915F914F913F91FA
S11312B02F910F900BBE0F900FBE0F901F9018959B
S11312C01F920F920FB60F9211240BB60F922F9309
S11312D03F934F935F936F937F938F939F93AF93BA
S11312E0BF93EF93FF9394B381E0892784BB8091EC
S11312F0040C9091050C892B81F0E0E1FCE021E0E5
S113130030E0C90140815181452B21F02F5F3F4FCF
S11313103C96F7CF283218F014C080E090E09C018E
S1131320220F331F820F931F880F991F880F991F55
S113133062E08C5F934FEDDB61E070E082E597E063
S1131340A9DCFF91EF91BF91AF919F918F917F9114
S11313506F915F914F913F912F910F900BBE0F9022
S11313600FBE0F901F90189580E0CFDA81E0CDDAA0
S113137082E0CBDA68E873E188ED97E08BDC8DB32B
S113138080678DBB089574DD3ADC65DD0E942F0112
S113139022D8EADF81E090E09093E50D8093E40D9C
S11313A0E4E0FCE084EE9DE0118210823C96E817B4
S11313B0F907D1F782E597E045DCA895DADC0E94CD
S11313C08101FBCFCF93DF938230910510F482E04B
S11313D090E0E091EA0DF091EB0D20E030E0C0E008
S11313E0D0E0309711F14081518148175907C0F07E
S11313F04817590761F482819381209719F09B83E0
S11314008A832BC09093EB0D8093EA0D26C021159F
S1131410310519F04217530718F49A01BE01DF0190
S1131420EF010280F381E02DDCCF2115310509F1B4
S1131430281B390B2430310590F412968D919C9120
S113144013976115710521F0FB019383828304C016
S11314509093EB0D8093EA0DFD01329644C0FD019B
S1131460E20FF31F81939193225031092D933C9302
S11314703AC02091E80D3091E90D232B41F42091DD
S11314800202309103023093E90D2093E80D20917C
S11314900002309101022115310541F42DB73EB708
S11314A04091040250910502241B350BE091E80D94
S11314B0F091E90DE217F307A0F42E1B3F0B281758
S11314C0390778F0AC014E5F5F4F2417350748F0B9
S11314D04E0F5F1F5093E90D4093E80D8193919354
S11314E002C0E0E0F0E0CF01DF91CF9108950F93C7
S11314F01F93CF93DF93009709F48CC0FC013297BC
S1131500138212820091EA0D1091EB0D0115110561
S113151081F420813181820F931F2091E80D309155
S1131520E90D2817390779F5F093E90DE093E80DF3
S113153071C0D80140E050E0AE17BF0750F41296D6
S11315402D913C911397AD012115310509F1D90174
S1131550F3CF9D01DA013383228360817181860F89
S1131560971F8217930769F4EC0128813981260FAC
S1131570371F2E5F3F4F318320838A819B81938362
S11315808283452B29F4F093EB0DE093EA0D42C0DE
S11315901396FC93EE931297ED01499159919E0194
S11315A0240F351FE217F30771F480819181840FB2
S11315B0951F029611969C938E9382819381139624
S11315C09C938E931297E0E0F0E0D80112968D91EF
S11315D09C911397009719F0F8018C01F6CF8D9127
S11315E09C9198012E5F3F4F820F931F2091E80D2D
S11315F03091E90D2817390769F4309729F41092CE
S1131600EB0D1092EA0D02C0138212821093E90DC1
S11316100093E80DDF91CF911F910F910895FB0185
S1131620DC0101900D920020E1F708950F931F93C0
S1131630CF93DF93CDB7DEB72E970FB6F894DEBF06
S11316400FBECDBF0E891F8986E08C831A83098360
S11316508FEF9FE79E838D83AE01465E5F4F688D5B
S1131660798DCE01019611D02F813885F801E20FD2
S1131670F31F10822E960FB6F894DEBF0FBECDBFB7
S1131680DF91CF911F910F9108952F923F924F9226
S11316905F926F927F928F929F92AF92BF92CF92FE
S11316A0DF92EF92FF920F931F93CF93DF93CDB707
S11316B0DEB72C970FB6F894DEBF0FBECDBF7C010A
S11316C06B018A01FC0117821682838181FFB0C1FC
S11316D0CE0101964C01F7019381F60193FD8591AA
S11316E093FF81916F01882309F49EC1853239F4F7
S11316F093FD859193FF81916F01853221F4B701A8
S113170090E0C7D1E8CF512C312C20E02032A0F456
S11317108B3269F030F4803259F0833269F42061FD
S11317202CC08D3239F0803339F4216026C0226018
S1131730246023C0286021C027FD27C030ED380F66
S11317403A3078F426FF06C0FAE05F9E300D11248B
S1131750532E13C08AE0389E300D1124332E20629C
S11317600CC08E3221F426FD5FC1206406C08C3685
S113177011F4206802C0883641F4F60193FD859186
S113178093FF81916F018111C1CF982F9F7D955453
S1131790933028F40C5F1F4FFFE3F9830DC08336A9
S11317A031F0833771F0833509F057C021C0F80157
S11317B0808189830E5F1F4F44244394512C54012C
S11317C014C03801F2E06F0E711CF801A080B180E2
S11317D026FF03C0652D70E002C06FEF7FEFC501E7
S11317E02C874CD12C0183012C852F77222E16C0F7
S11317F03801F2E06F0E711CF801A080B18026FF61
S113180003C0652D70E002C06FEF7FEFC5012C8728
S11318102AD12C012C852068222E830123FC19C097
S1131820832D90E048165906A0F4B70180E290E0B9
S113183030D13A94F5CFF50127FC859127FE8191AB
S11318405F01B70190E025D131103A94F1E04F1ACD
S113185051084114510479F7DEC0843611F08936F9
S113186031F5F80127FF07C060817181828193817E
S11318700C5F1F4F08C060817181072E000C880B1C
S1131880990B0E5F1F4F2F76722E97FF09C090950C
S11318908095709561957F4F8F4F9F4F2068722E72
S11318A02AE030E0A4012DD1A82EA81843C0853722
S11318B029F42F7EB22E2AE030E025C0F22FF97FE2
S11318C0BF2E8F36C1F018F4883579F0ADC080375B
S11318D019F0883721F0A8C02F2F2061B22EB4FE52
S11318E00DC08B2D8460B82E09C024FF0AC09F2F21
S11318F09660B92E06C028E030E005C020E130E053
S113190002C020E132E0F801B7FE07C060817181B6
S1131910828193810C5F1F4F06C06081718180E0DA
S113192090E00E5F1F4FA401ECD0A82EA818FB2D49
S1131930FF777F2E76FE0BC0372D3E7FA51450F423
S113194074FE0AC072FC08C0372D3E7E05C0BA2C56
S1131950372D03C0BA2C01C0B52C34FF0DC0FE01D5
S1131960EA0DF11D8081803311F4397E09C032FF04
S113197006C0B394B39404C0832F867809F0B3945B
S113198033FD12C030FF06C05A2CB31418F4530CA4
S11319905B18B32CB31460F4B70180E290E03C8789
S11319A078D0B3943C85F6CFB31410F43B1801C03F
S11319B0312C34FF11C0B70180E390E03C8769D03B
S11319C03C8532FF16C031FD03C088E790E002C0B9
S11319D088E590E0B7010CC0832F867851F031FF81
S11319E002C08BE201C080E237FD8DE2B70190E0D6
S11319F050D0A51430F4B70180E390E04AD05A9453
S1131A00F8CFAA94F401EA0DF11D8081B70190E0AA
S1131A1040D0A110F6CF332009F45DCEB70180E2A7
S1131A2090E037D03A94F7CFF7018681978102C0CE
S1131A308FEF9FEF2C960FB6F894DEBF0FBECDBF8D
S1131A40DF91CF911F910F91FF90EF90DF90CF9096
S1131A50BF90AF909F908F907F906F905F904F90CA
S1131A603F902F900895FC01059061507040011043
S1131A70D8F7809590958E0F9F1F0895FC016150B3
S1131A80704001900110D8F7809590958E0F9F1F9C
S1131A9008950F931F93CF93DF93FB01238121FDBF
S1131AA003C08FEF9FEF28C022FF16C046815781E5
S1131AB0248135814217530744F4A081B1819D01EB
S1131AC02F5F3F4F318320838C93268137812F5F93
S1131AD03F4F3783268310C0EB01092F182F008452
S1131AE0F185E02D1995892BE1F68E819F81019670
S1131AF09F838E83812F902FDF91CF911F910F9120
S1131B000895FA01AA27283051F1203181F1E8948F
S1131B106F936E7F6E5F7F4F8F4F9F4FAF4FB1E0DC
S1131B203ED0B4E03CD0670F781F891F9A1FA11DD7
S1131B30680F791F8A1F911DA11D6A0F711D811DD8
S1131B40911DA11D20D009F468943F912AE0269F9D
S1131B5011243019305D3193DEF6CF010895462FFC
S1131B604770405D4193B3E00FD0C9F7F6CF462FDD
S1131B704F70405D4A3318F0495D31FD4052419346
S1131B8002D0A9F7EACFB4E0A69597958795779503
S1131B906795BA95C9F700976105710508959B018A
S1131BA0AC010A2E06945795479537952795BA9513
S1131BB0C9F7620F731F841F951FA01D0895F89421
S1051BC0FFCF51
S1131BC20000EC0D200054455354204D455353411D
S1131BD24745203132302E3030204B6D2F6852650C
S1131BE26D3A2020363030204B6D4D6F6D3A2032E5
S1131BF2302E30204C204176673A2032302E30206D
S1131C024C2025000625000703F0062500052500C3
S1131C120703F00625000425000703F00649443AA9
S1131C222025642C205061723A202573002564001B
S9030000FC
