S00C0000323536312E737265634A
S113000065C0000084C0000082C0000080C0000001
S11300107EC000000C945D090C94AF090C94030A93
S113002076C0000074C0000072C0000070C0000000
S11300306EC000000C941A086AC0000068C000007A
S113004066C0000064C0000062C0000060C0000020
S11300505EC000005CC000005AC0000058C0000030
S11300600C94530954C0000052C0000050C000005A
S11300704EC000000C9441084AC0000048C0000073
S113008046C0000044C0000042C0000040C0000060
S11300900C942B090C94DB080C94030938C0000061
S11300A036C0000034C0000032C0000030C0000080
S11300B02EC000002CC000002AC0000028C0000090
S11300C026C0000024C0000022C0000011241FBE6E
S11300D0CFEFD1E2DEBFCDBF00E00CBF13E0A0E064
S11300E0B2E0EEEBF1E200E00BBF02C007900D922C
S11300F0AA37B107D9F72FE0AAE7B3E001C01D92F0
S1130100A531B207E1F70E94650B0C94DD1078CF9E
S113011080918803E0918903F0918A03E80FF11D2F
S11301208081882369F08093CE00809188038F5F5B
S113013080938803E9ECF0E08081806480830895F3
S11301408AE08093CE00E9ECF0E080818F7D8083AB
S11301500895CF93DF93E9ECF0E080818F7B808377
S1130160C9E8D3E0888199810E94670D2A813B8187
S11301702115310541F181E090E041E0880F991F9C
S1130180FC01E957FC4F318320834F5F842F90E0BB
S1130190FC01EE0FFF1FE757FC4F20813181211531
S11301A0310561F7880F991FFC01E957FC4F118253
S11301B01082423060F010928803E9ECF0E0808114
S11301C08062808304C010928A0310928903DF91B5
S11301D0CF9108958091CE008D3009F43FC0909165
S11301E0860391110AC0109287038093CF04109262
S11301F0890481E08093860308958A3089F0E09130
S11302008703E53468F4AE2FB0E0A757BB4F8C9357
S1130210EF5FE0938703F0E0E757FB4F1082089508
S1130220109286032091230D2E31C1F030E0F901A4
S1130230EF52FB4F8091CF04808346E4429FC0017C
S1130240439F900D112469E874E081519B4F0E94F3
S1130250FB0DE3E2FDE080818F5F80830895E9E890
S1130260F3E085E194E011921192E817F907D9F7C8
S11302701092230D0895FF920F931F93CF93DF9352
S11302808C01FFB6F894FC0101900020E9F7CF013E
S1130290801B910B0E94CF0CEC01B8010E94FB0D56
S11302A08091890390918A03892B81F080E08F5F8C
S11302B0282F30E0F901EE0FFF1FE757FC4F408174
S11302C05181452BA1F7863450F402C020E030E080
S11302D0220F331FF901E757FC4FD183C08380916C
S11302E0C90085FD07C0E9ECF0E08081806280836D
S11302F010928803FFBEDF91CF911F910F91FF9061
S11303000895DF92EF92FF920F931F93CF93DF93A1
S1130310CDB7DEB7E2970FB6F894DEBF0FBECDBF00
S1130320DFB6F8948091230D882309F445C08FEE3D
S113033094E09F938F938091D1041F928F938AE4CA
S113034092E09F938F938E010F5F1F4F1F930F9324
S11303500E94020EC8018FDFE3E2FDE0808181503C
S113036080830FB6F894DEBF0FBECDBF882321F182
S113037010E006E47F01212F30E0C9010196FC0161
S1130380EF52FB4F4081F901EF52FB4F4083089F2E
S1130390B001099F700D112461517B4F029FC00170
S11303A0039F900D112481519B4F0E94FB0D1F5FF1
S11303B0F70180811817F8F2DFBEE2960FB6F894C1
S11303C0DEBF0FBECDBFDF91CF911F910F91FF9084
S11303D0EF90DF90089584B1876084B985B1897FF7
S11303E085B984B1806784B985B1806785B98DB1D9
S11303F01DB88EB180678EB9279A2F9A80E58CBD7F
S113040081E08DBD08958EBD0DB407FEFDCF8EB580
S113041008950F931F93CF93DF9390E0EC01CC0FDB
S1130420DD1FCC0FDD1FCC0FDD1F8C0F9D1FEC01DA
S1130430CD5DDD4FE881F981908101E010E0980104
S11304400A8002C0220F331F0A94E2F7822F80959C
S11304508923808380ECD7DFE881F98180810A8059
S113046002C0000F111F0A94E2F7082B0083DF91EA
S1130470CF911F910F9108950F931F93CF93DF9303
S11304809FB7F89490E0EC01CC0FDD1FCC0FDD1F7B
S1130490CC0FDD1F8C0F9D1FEC01CD5DDD4FE8817E
S11304A0F981908101E010E098010A8002C0220FD6
S11304B0331F0A94E2F7822F80958923808380EA90
S11304C0A2DF8FEFA0DFE881F98190810A8002C06A
S11304D0000F111F0A94E2F7092B0083DF91CF91DB
S11304E01F910F91089590E0FC01EE0FFF1FEE0F96
S11304F0FF1FEE0FFF1F8E0F9F1FFC01ED5DFD4FD1
S1130500A081B1812C9181E090E0028002C0880F2B
S1130510991F0A94E2F7809582238C93089590E0C2
S1130520FC01EE0FFF1FEE0FFF1FEE0FFF1F8E0FDC
S11305309F1FFC01ED5DFD4FA081B1812C9181E0F5
S113054090E0028002C0880F991F0A94E2F7822B80
S11305508C930895CF92DF92EF92FF920F931F93A3
S1130560CF93DF937C01D62E8FB7F894862F84DF48
S113057082FF08C084FF08C086FD52C06894CC2462
S1130580C2F805C0C12C03C06894CC24C1F88D2DD9
S1130590AADF8C2D806437DFF701808191819695E5
S11305A0879596958795969587952DDFF701808198
S11305B08295880F807E27DF80E025DF80E023DFBF
S11305C0F7011381193008F018E0F70182818823BC
S11305D021F0812F806417DF12C0812F14DF1123D3
S11305E071F0E70124961150012F10E00B5F1F4FAB
S11305F00E0D1F1D899107DFC017D107D9F78D2D67
S11306008EDF00008D2D6FDFC11003C081E8FBDE9B
S113061003C08C2D8068F7DE8D2D81DF81E001C061
S113062080E0DF91CF911F910F91FF90EF90DF90C9
S1130630CF900895CF93DF93EC01888199818A3814
S113064023E0920719F08A3B934019F460E0CE014D
S113065081DF888199818130924031F58C8190E0ED
S1130660982F88272D81820F911D909307028093E4
S11306700602688570E0762F66278985680F711DEC
S1130680072E000C880B990B0E94430C20E030E0ED
S113069048EC52E40E94AD0B609312027093130273
S11306A08093140290931502888199818115944056
S11306B009F04EC06E816F3FE9F070E0762F662737
S11306C08F81680F711D072E000C880B990B0E94F7
S11306D0430C20E030E040E251E40E94AD0B609313
S11306E00E0270930F0280931002909311021092E5
S11306F07A030FC080E090E0A0E8BFE380930E028D
S113070090930F02A0931002B093110281E08093A2
S11307107A03698570E080E090E00E94410C20E05B
S113072030E040E251E40E94AD0B60930A02709302
S11307300B0280930C0290930D028A8590E0982F0F
S113074088272B85820F911D9093090280930802BC
S1130750888199818F38924091F4EBE7F3E08C81A2
S113076080838D8181838E8182838F818383888539
S11307708483898585838A8586838B85878388811D
S113078099818039924041F5E6E1F2E08D818083E0
S11307908E8181838F818283888583838985848305
S11307A08A8585838B85868342E252E080E090E0EF
S11307B02191820F911DE417F507D1F7209184034D
S11307C0309185038217930739F021E02093830346
S11307D09093850380938403888199818139924021
S11307E031F58D81E6E1F2E087838E8180878F8108
S11307F0818788858287898583878A85848742E281
S113080052E080E090E02191820F911DE417F507FA
S1130810D1F720918403309185038217930739F02F
S113082021E0209383039093850380938403DF91D5
S1130830CF910895EF92FF920F931F93CF93DF937D
S1130840E82EF62E50E0EA01CC0FDD1FCC0FDD1FA1
S1130850CC0FDD1F4C0F5D1FEA01CD5DDD4FE8813C
S1130860F981908101E010E098010A8002C0220F12
S1130870331F0A94E2F7822F80958923808382E0D4
S1130880C2DD8E2DC0DD8F2DBEDDE881F981808132
S11308900A8002C0000F111F0A94E2F7082B00839C
S11308A0DF91CF911F910F91FF90EF900895EF92F8
S11308B0FF920F931F93CF93DF93FFB6F89490E0CA
S11308C0EC01CC0FDD1FCC0FDD1FCC0FDD1F8C0F17
S11308D09D1FEC01CD5DDD4FE881F981908101E040
S11308E010E098010A8002C0220F331F0A94E2F735
S11308F0822F80958923808380EB85DD8FEF83DDD4
S1130900E82E8FEF80DDE881F9812081C8010A801B
S113091002C0880F991F0A94E2F7822B8083FFBEDE
S11309208E2DDF91CF911F910F91FF90EF9008953D
S1130930DF92EF92FF920F931F93CF93DF93D82E02
S1130940E62EF42E30E0E901CC0FDD1FCC0FDD1FC5
S1130950CC0FDD1F2C0F3D1FE901CD5DDD4FE8817C
S1130960F981908101E010E098010A8002C0220F11
S1130970331F0A94E2F7822F80958923808385E0D0
S113098042DD8D2D40DD8E2D3EDD8F2D3CDDE88159
S1130990F9812081C8010A8002C0880F991F0A9436
S11309A0E2F7822B8083DF91CF911F910F91FF900B
S11309B0EF90DF9008950F931F93CF93DF93C82F89
S11309C0DFB7F89426DD0C2F10E0C801880F991FBB
S11309D0880F991F880F991F080F191F0D5D1D4F50
S11309E04C2FF80166818AE225DF4C2FF8016781DC
S11309F089E220DF4C2FF801608588E21BDF4C2F51
S1130A0063E08BE217DF4C2F63E08BE213DF4C2FA4
S1130A1060E280E60FDF4C2F60E280E70BDF4C2FB3
S1130A2069EF80E207DF4C2F60EE81E203DF4C2F99
S1130A3060E082E2FFDE4C2F60E083E2FBDE4C2FBD
S1130A406FE384E2F7DE4C2F60EC85E2F3DE4C2F9B
S1130A5060E086E2EFDE4C2F60E087E2EBDE4C2FB5
S1130A6067E580E0E7DE4C2F60EE81E0E3DE4C2FAB
S1130A7067E784E0DFDE4C2F60E485E0DBDE4C2FAB
S1130A8060E088E0D7DE4C2F60E089E0D3DE4C2FB5
S1130A9062E180E1CFDE4C2F60E081E1CBDE4C2FC0
S1130AA060E08CE0C7DE4C2F60E08DE0C3DE2C2FCD
S1130AB044E067EE8FE03CDFDFBFDF91CF911F9111
S1130AC00F910895BF92CF92DF92EF92FF920F930E
S1130AD01F93CF93DF936C01062F862FE8DE182F28
S1130AE0282F2074B22E86FF05C0802FFCDC80E9FD
S1130AF08ADC07C088230CF04EC0802FF4DC84E924
S1130B0082DC8FEF80DCE8E08E9FC0011124F601C7
S1130B10918380838FEF77DC282F22952695277089
S1130B20F60180819181822B918380838FEF6BDC2E
S1130B308FEF69DC8FEF67DC8F70F6018383882386
S1130B4081F0E60124968150E82EF12CF5E0EF0EB9
S1130B50F11CEC0CFD1C8FEF56DC8993CE15DF05E0
S1130B60D1F7802FDCDC13FF04C081E0F60182831F
S1130B7002C0F6011282BB2031F0202F40E061E078
S1130B808CE2D6DE05C0202F40E062E08CE2D0DEAD
S1130B90812F877001C08FEFDF91CF911F910F914B
S1130BA0FF90EF90DF90CF90BF900895089580E07C
S1130BB090E026ED35E0FC01EE0FFF1FEB5AFB4FF2
S1130BC031832083019685319105A9F780E090E077
S1130BD026ED35E0FC01EE0FFF1FEE0FFF1FEB5E6D
S1130BE0FB4F318320831382128201968031910559
S1130BF089F708950FB607FE0CC0F894A1E00AC067
S1130C002F5F3F4F2531310539F4AA23D1F0789471
S1130C100895A0E020E030E0B901F901EE0FFF1FD4
S1130C20EB5AFB4F40815181465D554049F7660FB1
S1130C30771FFB01EB5AFB4F91838083AA2309F0B2
S1130C4078940895CF930FB607FE60C0F89420916E
S1130C501504309116048217930709F44DC0C1E0BE
S1130C6013C0F901EE0FFF1FEE0FFF1FEB5EFB4FEA
S1130C70408151814817590751F473836283CC230F
S1130C8009F44DC078944BC021E030E0EACF2F5FE7
S1130C903F4F2031310529F7209115043091160476
S1130CA0265D354081F021E030E0D901F901EE0FF5
S1130CB0FF1FEE0FFF1FEB5EFB4F40815181465D2E
S1130CC05540A1F402C0A0E0B0E0AA0FBB1FAA0FD8
S1130CD0BB1FAB5EBB4F11969C938E9313967C9374
S1130CE06E931297CC23D9F0789419C02F5F3F4F9D
S1130CF020313105D1F613C07093180460931704A2
S1130D00C1CF709318046093170409C0209115048F
S1130D103091160482179307A1F3C0E0B5CFCF91A9
S1130D200895CF93DF93F894E0915504F09156041D
S1130D3085E0E63DF80711F478941DC080E090E06A
S1130D40DC010196EC01CC0FDD1FCB5ADB4F28816F
S1130D503981AA0FBB1FAB5ABB4F11963C932E93FC
S1130D608431910569F786ED95E090937E04809334
S1130D707D0478941995DF91CF910895EF92FF92B5
S1130D800F931F93CF93DF93E12CF12C06ED15E025
S1130D90F701D701AA0FBB1FAA0FBB1FAB5EBB4F46
S1130DA08D919C91865D954001F1D701AA0FBB1FDF
S1130DB0AA0FBB1FAB5EBB4F12968D919C911397EC
S1130DC0019739F0FD018281938101979383828396
S1130DD00CC0EE0FFF1FEE0FFF1FEF01CB5EDB4FCA
S1130DE08881998107DF198308838FEFE81AF80A4D
S1130DF020E1E216F10461F6DF91CF911F910F918A
S1130E00FF90EF9008958CE08093B1001092B200AF
S1130E108AEF8093B30082E080937000089510926B
S1130E20CD0088E08093CC001092C80088E98093BC
S1130E30C90086E88093CA0083B3836083BB87B10B
S1130E40836087B980E480937C0010927B008FE8F4
S1130E5080937A000895F89480910B0F813009F003
S1130E6040C08091060F811104C081E08093060F79
S1130E7002C01092060F8091060F90E0FC01EE0F65
S1130E80FF1FE80FF91FEE0FFF1FE25CFD4F2281E9
S1130E90338121153105C1F4ACE7B0E02C91FC019C
S1130EA0EE0FFF1FE80FF91FEE0FFF1FE25CFD4F6F
S1130EB08081805C822B8C93EAE7F0E080818064FF
S1130EC0808310920B0F0DC0FC01EE0FFF1FE80F83
S1130ED0F91FEE0FFF1FE25CFD4F215031093383F0
S1130EE0228365E070E08BE297E0ACDE78940895AD
S1130EF00F931F93CF93DF93CDB7DEB728970FB629
S1130F00F894DEBF0FBECDBF8091090F811125C0BB
S1130F108091040F811104C081E08093040F03C009
S1130F20880F8093040F8091040F1F928F938DEA92
S1130F3092E09F938F938E010F5F1F4F1F930F9328
S1130F4061D6C80198D98091040F88B90F900F9089
S1130F500F900F900F900F9004C018B887EB92E099
S1130F608AD98091090F811109C081E08093090F0A
S1130F7068E270E088E797E065DE07C01092090F29
S1130F8068EE73E088E797E05DDE28960FB6F89484
S1130F90DEBF0FBECDBFDF91CF911F910F9108959A
S1130FA0DF92EF92FF920F931F93CF93DF93DFB6FD
S1130FB0F894C4E2DDE0EC2EFD2E08EF1EE02DC017
S1130FC08E2D9F2D37DB88819981892B31F1E4E2C5
S1130FD0FDE080E08F5F248535853183208397850C
S1130FE0938396859283908994839189958392893A
S1130FF09683938997839489908795899187968915
S1131000928797899387873241F03C96232B11F777
S1131010883218F0F8011182108288819981892B15
S113102079F6DFBEDF91CF911F910F91FF90EF9082
S1131030DF9008951F920F920FB60F9211240BB6F2
S11310400F922F933F934F935F936F937F938F935D
S11310509F93AF93BF93EF93FF9390DEFF91EF9134
S1131060BF91AF919F918F917F916F915F914F91BC
S11310703F912F910F900BBE0F900FBE0F901F90BA
S113108018951F920F920FB60F9211240BB60F9260
S11310902F933F934F935F936F937F938F939F937C
S11310A0AF93BF93CF93DF93EF93FF936091780057
S11310B07091790080E090E0E4D326EE3FE344E5CC
S11310C05FE34BD3B2D3EB01A091060F4A2F50E05C
S11310D0FA01EE0FFF1FE40FF51FEE0FFF1FE25C96
S11310E0FD4F24813581261B370BF901FF2324F49E
S11310F0EE27FF27E21BF30BE536F10504F121E0AF
S113110020930A0FFA01EE0FFF1FE40FF51FEE0FF5
S1131110FF1FE25CFD4F75836483A11102C010922E
S1131120080FFA01EE0FFF1FE40FF51FEE0FFF1F6C
S1131130E25CFD4F8AE090E09383828324C0809137
S11311400A0F813001F5A1111CC010920D0F1092ED
S11311500C0F8093080F61E070E08CE09BE072DD7F
S1131160CD3A83E0D80718F01092070F0AC0C737AA
S1131170D24020F081E08093070F03C082E0809387
S1131180070F10920A0F81E080930B0FFF91EF91EC
S1131190DF91CF91BF91AF919F918F917F916F918B
S11311A05F914F913F912F910F900BBE0F900FBE07
S11311B00F901F9018951F920F920FB60F92112443
S11311C00BB60F922F933F934F935F936F937F933D
S11311D08F939F93AF93BF93EF93FF930E948800E5
S11311E0FF91EF91BF91AF919F918F917F916F91FB
S11311F05F914F913F912F910F900BBE0F900FBEB7
S11312000F901F9018951F920F920FB60F921124F2
S11312100BB60F922F933F934F935F936F937F93EC
S11312208F939F93AF93BF93EF93FF930E94A90073
S1131230FF91EF91BF91AF919F918F917F916F91AA
S11312405F914F913F912F910F900BBE0F900FBE66
S11312500F901F9018951F920F920FB60F921124A2
S11312600BB60F922F933F934F935F936F937F939C
S11312708F939F93AF93BF93EF93FF930E94EA00E2
S1131280FF91EF91BF91AF919F918F917F916F915A
S11312905F914F913F912F910F900BBE0F900FBE16
S11312A00F901F9018951F920F920FB60F92112452
S11312B00F900FBE0F901F9018951F920F920FB6AC
S11312C00F9211240BB60F922F933F934F935F937A
S11312D06F937F938F939F93AF93BF93EF93FF93FA
S11312E0409A8091240D9091250D892B69F0E0E3BB
S11312F0FDE081E004C08F5F3C96883231F02081AC
S11313003181232BC1F701C080E04098883208F076
S113131087E290E09C01220F331F820F931F880FF6
S1131320991F880F991F60E08C5D924FCBDB61E0C1
S113133070E080ED97E086DCFF91EF91BF91AF9173
S11313409F918F917F916F915F914F913F912F91D9
S11313500F900BBE0F900FBE0F901F9018951F9209
S11313600F920FB60F9211240BB60F922F933F9347
S11313704F935F936F937F938F939F93AF93BF9399
S1131380EF93FF9394B382E0892784BB8091240D6B
S11313909091250D892B69F0E0E3FDE081E004C024
S11313A08F5F3C96883231F020813181232BC1F745
S11313B001C080E0883208F087E290E09C01220FAF
S11313C0331F820F931F880F991F880F991F61E0A5
S11313D08C5D924F77DB6BE070E080ED97E032DC60
S11313E0FF91EF91BF91AF919F918F917F916F91F9
S11313F05F914F913F912F910F900BBE0F900FBEB5
S11314000F901F9018951F920F920FB60F921124F0
S11314100BB60F922F933F934F935F936F937F93EA
S11314208F939F93AF93BF93EF93FF9394B381E014
S1131430892784BB8091240D9091250D892B69F017
S1131440E0E3FDE081E004C08F5F3C96883231F038
S113145020813181232BC1F701C080E0883208F05C
S113146087E290E09C01220F331F820F931F880FA5
S1131470991F880F991F62E08C5D924F23DB61E016
S113148070E080ED97E0DEDB94B381E0892784BBD4
S1131490FF91EF91BF91AF919F918F917F916F9148
S11314A05F914F913F912F910F900BBE0F900FBE04
S11314B00F901F9018954F925F926F927F928F9228
S11314C09F92AF92BF92CF92DF92EF92FF920F93CF
S11314D01F93CF93DF93CDB7DEB7E4970FB6F8949D
S11314E0DEBF0FBECDBFF8940FE714E0F801818191
S11314F01F928F938FEB92E09F938F93CE0101966F
S11315009F938F937FD30F900F900F900F900F9016
S11315100F90F8018081882309F459C078010F2EB7
S1131520F9E88F2EF4E09F2EF02D58010F2EF5EFE1
S1131530CF2EF2E0DF2EF02D8E010D5C1F4FCE0179
S113154001963C010F2EFCE24F2E512CF02DF5019B
S113155080811F928F93DF92CF921F930F9352D368
S1131560B801C3013DD30F900F900F900F900F90CF
S11315700F90F7018281882371F0F2E0EF0EF11CE5
S11315808E149F0441F0F30101900020E9F7319794
S113159051824082DCCFCE010196DC010D90002007
S11315A0E9F7119725E0E4EEF2E001900D922A9517
S11315B0E1F7EFE7F4E012821382148215821682B7
S11315C01782108611860E943B0178940EC0DE01BA
S11315D011960D900020E9F7119785E0E4EEF2E012
S11315E001900D928A95E1F7F0CFE4960FB6F89446
S11315F0DEBF0FBECDBFDF91CF911F910F91FF9042
S1131600EF90DF90CF90BF90AF909F908F907F909E
S11316106F905F904F900895F89480910C0F909183
S11316200D0F019690930D0F80930C0F2091080FCE
S1131630213049F4893E934048F461E070E08CE045
S11316409BE000DB24C0893E934018F034DF91E036
S113165001C090E080917F04882371F0AFE7B4E08B
S1131660E1E004C0EF5F1296E53039F012968C91F8
S113167012978111F7CF01C0E0E0F0E0EE0FFF1FF9
S1131680E158FB4F8091070F8083918314DF789496
S11316900895F8948CE493E00E943B0180E08BD998
S11316A085E593E00E943B0181E085D98FE593E0D5
S11316B00E943B0182E07FD989E693E00E943B01CE
S11316C08DB380678DBB789408951092040F1092A7
S11316D0090F87B18FEF87B9A2DB69DA94DB0E9427
S11316E02F0183E793E00E943B0181E090E0909317
S11316F00F0F80930E0F87B18C6F87B98AB18AB9A7
S113170088B1837088B910BA11BA10920A0F109276
S11317100D0F10920C0F1092060F81E080930B0FA7
S11317209ADBE6DBE4E2FDE084E09FE011821082D4
S11317303C96E817F907D1F70E94EB01AADF80ED88
S113174097E058DA1092080F10920D0F10920C0FB8
S1131750A895E7DA0E948101FBCF0CD0E6C0DED069
S113176040F0D5D030F021F45F3F19F0C7C05111DB
S113177010C1CAC0EBD098F39923C9F35523B1F330
S1131780951B550BBB27AA2762177307840738F0EC
S11317909F5F5F4F220F331F441FAA1FA9F333D04B
S11317A00E2E3AF0E0E830D091505040E695001CFF
S11317B0CAF729D0FE2F27D0660F771F881FBB1FBB
S11317C0261737074807AB07B0E809F0BB0B802D95
S11317D0BF01FF2793585F4F2AF09E3F510568F0E1
S11317E08DC0D7C05F3FECF3983EDCF386957795C8
S11317F06795B795F7959F5FC9F7880F911D9695E3
S1131800879597F90895E1E0660F771F881FBB1F3E
S1131810621773078407BA0720F0621B730B840BEB
S1131820BA0BEE1F88F7E095089598D088F09F577B
S113183090F0B92F9927B751A0F0D1F0660F771F18
S1131840881F991F1AF0BA95C9F712C0B13081F0F8
S11318509FD0B1E008959CC0672F782F8827B85F88
S113186039F0B93FCCF3869577956795B395D9F759
S11318703EF490958095709561957F4F8F4F9F4F63
S11318800895E89409C097FB3EF49095809570956F
S113189061957F4F8F4F9F4F9923A9F0F92F96E9B8
S11318A0BB279395F695879577956795B795F1112D
S11318B0F8CFFAF4BB0F11F460FF1BC06F5F7F4FCA
S11318C08F4F9F4F16C0882311F096E911C07723DC
S11318D021F09EE8872F762F05C0662371F096E8E5
S11318E0862F70E060E02AF09A95660F771F881FB4
S11318F0DAF7880F9695879597F9089597F99F6772
S113190080E870E060E008959FEF80EC0895002483
S11319100A941616170618060906089500240A9450
S113192012161306140605060895092E0394000CD6
S113193011F4882352F0BB0F40F4BF2B11F460FF65
S113194004C06F5F7F4F8F4F9F4F089557FD90588E
S1131950440F551F59F05F3F71F04795880F97FB6F
S1131960991F61F09F3F79F0879508951216130629
S11319701406551FF2CF4695F1DF08C01616170658
S11319801806991FF1CF869571056105089408958D
S1131990E894BB2766277727CB0197F908950F931F
S11319A01F93CF93DF938230910510F482E090E08F
S11319B0E091130FF091140F20E030E0A0E0B0E0CC
S11319C0309719F1408151810281138148175907D9
S11319D0C8F08417950769F4109731F012960C93A8
S11319E0129713961C9327C00093130F1093140F90
S11319F022C02115310519F04217530718F49A0132
S1131A00BD01EF01DF01F801DBCF21153105F9F04C
S1131A10281B390B2430310580F48A819B816115A0
S1131A20710521F0FB019383828304C09093140F0A
S1131A308093130FFE01329644C0FE01E20FF31FA0
S1131A408193919322503109398328833AC020919C
S1131A50110F3091120F232B41F420910202309187
S1131A6003023093120F2093110F20910002309142
S1131A7001022115310541F42DB73EB7409104020E
S1131A8050910502241B350BE091110FF091120FB8
S1131A90E217F307A0F42E1B3F0B2817390778F041
S1131AA0AC014E5F5F4F2417350748F04E0F5F1FA0
S1131AB05093120F4093110F8193919302C0E0E071
S1131AC0F0E0CF01DF91CF911F910F910895CF9353
S1131AD0DF93009709F481C0FC01329713821282CC
S1131AE0A091130FB091140F109781F420813181CC
S1131AF0820F931F2091110F3091120F281739076D
S1131B0051F5F093120FE093110F67C0ED0120E03F
S1131B1030E0CE17DF0740F44A815B819E01411516
S1131B205105F1F0EA01F5CFD383C283408151819D
S1131B30840F951FC817D90759F488819981840F98
S1131B40951F0296918380838A819B8193838283EC
S1131B502115310529F4F093140FE093130F3DC0C0
S1131B60E901FB83EA8349915991C40FD51FEC170E
S1131B70FD0761F480819181840F951F0296E9012C
S1131B8099838883828193819B838A83E0E0F0E058
S1131B9012968D919C911397009719F0FD01DC0129
S1131BA0F7CF8D919C9111979D012E5F3F4F820F2E
S1131BB0931F2091110F3091120F2817390769F4E0
S1131BC0309729F41092140F1092130F02C013824D
S1131BD01282B093120FA093110FDF91CF91089549
S1131BE0FB01DC010D900020E9F7119701900D92A3
S1131BF00020E1F70895FB01DC0101900D92002023
S1131C00E1F708950F931F93CF93DF93CDB7DEB71A
S1131C102E970FB6F894DEBF0FBECDBF0E891F8975
S1131C2086E08C831A8309838FEF9FE79E838D83DD
S1131C30AE01465E5F4F688D798DCE01019610D05E
S1131C40EF81F885E00FF11F10822E960FB6F894FD
S1131C50DEBF0FBECDBFDF91CF911F910F910895CD
S1131C602F923F924F925F926F927F928F929F92A8
S1131C70AF92BF92CF92DF92EF92FF920F931F9396
S1131C80CF93DF93CDB7DEB72B970FB6F894DEBFB3
S1131C900FBECDBF6C017B018A01FC011782168245
S1131CA0838181FFBFC1CE0101963C01F60193817E
S1131CB0F70193FD859193FF81917F01882309F4B6
S1131CC0ADC1853239F493FD859193FF81917F01F4
S1131CD0853221F4B60190E0D6D1E8CF912C212CA5
S1131CE0312CFFE1F315D8F08B3279F038F48032DF
S1131CF079F08332A1F4232D20611DC08D3261F06F
S1131D00803369F4232D216016C0832D8260382E20
S1131D10E32DE4603E2E2AC0F32DF8601DC037FC8D
S1131D202DC020ED280F2A3040F08E32B9F436FC55
S1131D3075C1232D2064322E19C036FE06C08AE0F8
S1131D40989E200D1124922E11C0EAE02E9E200DA3
S1131D501124222EF32DF0623F2E08C08C3621F47C
S1131D60832D8068382E02C0883641F4F70193FD34
S1131D70859193FF81917F018111B3CF982F9F7D2E
S1131D809554933028F40C5F1F4F9FE399830DC043
S1131D90833631F0833771F0833509F055C020C0A4
S1131DA0F801808189830E5F1F4F88248394912CCE
S1131DB0530112C02801F2E04F0E511CF801A0801B
S1131DC0B18036FE03C0692D70E002C06FEF7FEF73
S1131DD0C5014ED14C018201F32DFF773F2E15C072
S1131DE0280122E0420E511CF801A080B18036FE89
S1131DF003C0692D70E002C06FEF7FEFC5012DD1E4
S1131E004C01F32DF0683F2E820133FC19C0822D62
S1131E1090E088169906A0F4B60180E290E033D1F0
S1131E202A94F5CFF50137FC859137FE81915F0146
S1131E30B60190E028D121102A9421E0821A910859
S1131E408114910479F7E1C0843611F0893639F5AB
S1131E50F80137FE07C060817181828193810C5F34
S1131E601F4F08C060817181072E000C880B990BED
S1131E700E5F1F4FF32DFF763F2E97FF09C09095FD
S1131E808095709561957F4F8F4F9F4FF0683F2EDF
S1131E902AE030E0A30133D1882E861844C0853768
S1131EA031F4232D2F7EB22E2AE030E025C0932D6D
S1131EB0997FB92E8F36C1F018F4883579F0AEC009
S1131EC0803719F0883721F0A9C0E92FE061BE2ED0
S1131ED0B4FE0DC0FB2DF460BF2E09C034FE0AC051
S1131EE0292F2660B22E06C028E030E005C020E18C
S1131EF030E002C020E132E0F801B7FE07C06081A3
S1131F007181828193810C5F1F4F06C06081718152
S1131F1080E090E00E5F1F4FA301F1D0882E861859
S1131F20FB2DFF773F2E36FE0DC0232D2E7FA22ED4
S1131F30891458F434FE0BC032FC09C0832D8E7E04
S1131F40A82E05C0B82CA32C03C0B82C01C0B92CF2
S1131F50A4FE0FC0FE01E80DF11D8081803321F441
S1131F609A2D997EA92E09C0A2FE06C0B394B394FB
S1131F7004C08A2D867809F0B394A3FC10C0A0FE97
S1131F8006C0B21480F4280C922C9B180DC0B21415
S1131F9058F4B60180E290E076D0B394F8CFB2144E
S1131FA018F42B1802C0982C212CA4FE0FC0B601E3
S1131FB080E390E068D0A2FE16C0A1FC03C088E7CD
S1131FC090E002C088E590E0B6010CC08A2D8678C6
S1131FD051F0A1FE02C08BE201C080E2A7FC8DE2B9
S1131FE0B60190E050D0891430F4B60180E390E05B
S1131FF04AD09A94F8CF8A94F301E80DF11D8081B8
S1132000B60190E040D08110F6CF222009F44ECEE4
S1132010B60180E290E037D02A94F7CFF6018681AA
S1132020978102C08FEF9FEF2B960FB6F894DEBF17
S11320300FBECDBFDF91CF911F910F91FF90EF9015
S1132040DF90CF90BF90AF909F908F907F906F90D4
S11320505F904F903F902F900895FC010590615040
S113206070400110D8F7809590958E0F9F1F0895AA
S1132070FC016150704001900110D8F78095909553
S11320808E0F9F1F08950F931F93CF93DF93FB0130
S1132090238121FD03C08FEF9FEF2CC022FF16C0C8
S11320A046815781248135814217530744F4A08126
S11320B0B1819D012F5F3F4F318320838C93268113
S11320C037812F5F3F4F3783268314C08B01EC0188
S11320D0FB010084F185E02D1995892BE1F6D801E7
S11320E016968D919C911797019617969C938E93B3
S11320F01697CE01DF91CF911F910F910895FA01A8
S1132100AA27283051F1203181F1E8946F936E7F32
S11321106E5F7F4F8F4F9F4FAF4FB1E03ED0B4E023
S11321203CD0670F781F891F9A1FA11D680F791F64
S11321308A1F911DA11D6A0F711D811D911DA11D75
S113214020D009F468943F912AE0269F1124301985
S1132150305D3193DEF6CF010895462F4770405D20
S11321604193B3E00FD0C9F7F6CF462F4F70405DCF
S11321704A3318F0495D31FD4052419302D0A9F72A
S1132180EACFB4E0A6959795879577956795BA9524
S1132190C9F700976105710508959B01AC010A2EEA
S11321A006945795479537952795BA95C9F7620FC1
S11121B0731F841F951FA01D0895F894FFCF80
S11321BE0000150F200001003005000068410AD709
S11321CE233C52B8BA412020202020202020202059
S11321DE20200025000625000703F006250005250E
S11321EE000703F00625000425000703F006070088
S11321FE0000000006000000000049443A20256457
S113220E2C205061723A202573004176673A2025BE
S113221E33642E25303164204C004D6F6D3A2533D6
S113222E642E25303164204C0052656D3A202534DD
S113223E64204B6D00202533642E25303264204BF0
S113224E6D2F680052504D3A202025346420200012
S113225E4D6F6D3A20312E30204C2F68006275740C
S113226E746F6E3A25640072656C65617365007BEC
S113227E226964223A312C20226475726174696F6A
S113228E6E223A25642C2022627574746F6E73224A
S113229E3A205B00205D207D005445433A2025649E
S11322AE005245433A2025640045464C473A2025C2
S11322BE640043414E494E54453A2025640043413F
S11322CE4E494E54463A2025640043414E435452DF
S11322DE4C3A2025640043414E535441543A202530
S11322EE64004246504354524C3A202564005458DC
S11322FE5254534354524C3A20256400302D2D2D04
S113230E2D2D2D2D00312D2D2D2D2D2D2D2D00323C
S113231E2D2D2D2D2D2D2D2D00332D2D2D2D2D2D02
S10D232E2D2D007374617274000019
S9030000FC
