:1000000065C0000084C0000082C0000080C0000005
:100010007EC000000C94BC0A0C940E0B0C94620B76
:1000200076C0000074C0000072C0000070C0000004
:100030006EC000000C9461096AC0000068C0000036
:1000400066C0000064C0000062C0000060C0000024
:100050005EC000005CC000005AC0000058C0000034
:100060000C94B20A54C0000052C0000050C00000FE
:100070004EC000000C9488094AC0000048C000002F
:1000800046C0000044C0000042C0000040C0000064
:100090000C948A0A0C943A0A0C94620A38C0000044
:1000A00036C0000034C0000032C0000030C0000084
:1000B0002EC000002CC000002AC0000028C0000094
:1000C00026C0000024C0000022C0000011241FBE72
:1000D000CFEFD1E2DEBFCDBF00E00CBF13E0A0E068
:1000E000B2E0E0E8F6E200E00BBF02C007900D923C
:1000F000AC38B107D9F72FE0ACE8B3E001C01D92EE
:10010000A732B207E1F70E94BF0C0C943E1378CFE0
:1001100080919A03E0919B03F0919C03E80FF11DFD
:100120008081882369F08093CE0080919A038F5F4D
:1001300080939A03E9ECF0E08081806480830895E5
:100140008AE08093CE00E9ECF0E080818F7D8083AF
:100150000895CF93DF93E9ECF0E080818F7B80837B
:10016000CBE9D3E0888199810E94C80F2A813B8125
:100170002115310541F181E090E041E0880F991FA0
:10018000FC01E756FC4F318320834F5F842F90E0C2
:10019000FC01EE0FFF1FE556FC4F20813181211538
:1001A000310561F7880F991FFC01E756FC4F11825A
:1001B0001082423060F010929A03E9ECF0E0808106
:1001C0008062808304C010929C0310929B03DF9195
:1001D000CF9108958091CE008D3009F43FC0909169
:1001E000980391110AC0109299038093E104109230
:1001F0009B0481E08093980308958A3089F0E09110
:100200009903E53468F4AE2FB0E0A556BB4F8C934C
:10021000EF5FE0939903F0E0E556FB4F10820895FD
:10022000109298032091350D2E31C1F030E0F90184
:10023000ED51FB4F8091E104808346E4429FC00171
:10024000439F900D11246BE974E08F5F9A4F0E94D9
:100250005C10E5E3FDE080818F5F80830895EBE92A
:10026000F3E087E294E011921192E817F907D9F7C9
:100270001092350D0895FF920F931F93CF93DF9344
:100280008C01FFB6F894FC0101900020E9F7CF0142
:10029000801B910B0E94300FEC01B8010E945C1092
:1002A00080919B0390919C03892B81F080E08F5F6C
:1002B000282F30E0F901EE0FFF1FE556FC4F40817B
:1002C0005181452BA1F7863450F402C020E030E084
:1002D000220F331FF901E556FC4FD183C083809173
:1002E000C90085FD07C0E9ECF0E080818062808371
:1002F00010929A03FFBEDF91CF911F910F91FF9053
:100300000895DF92EF92FF920F931F93CF93DF93A5
:10031000CDB7DEB7E2970FB6F894DEBF0FBECDBF04
:10032000DFB6F8948091350D882309F445C081E04B
:1003300095E09F938F938091E3041F928F9388E6BB
:1003400092E09F938F938E010F5F1F4F1F930F9328
:100350000E946310C8018FDFE5E3FDE080818150DA
:1003600080830FB6F894DEBF0FBECDBF882321F186
:1003700010E006E47F01212F30E0C9010196FC0165
:10038000ED51FB4F4081F901ED51FB4F4083089F38
:10039000B001099F700D11246F5F7A4F029FC00159
:1003A000039F900D11248F5F9A4F0E945C101F5F76
:1003B000F70180811817F8F2DFBEE2960FB6F894C5
:1003C000DEBF0FBECDBFDF91CF911F910F91FF9088
:1003D000EF90DF90089584B1876084B985B1897FFB
:1003E00085B984B1806784B985B1806785B98DB1DD
:1003F0001DB88EB180678EB9279A2F9A80E58CBD83
:1004000081E08DBD08958EBD0DB407FEFDCF8EB584
:1004100008950F931F93CF93DF9390E0EC01CC0FDF
:10042000DD1FCC0FDD1FCC0FDD1F8C0F9D1FEC01DE
:10043000C35BDD4FE881F981908101E010E0980114
:100440000A8002C0220F331F0A94E2F7822F8095A0
:100450008923808380ECD7DFE881F98180810A805D
:1004600002C0000F111F0A94E2F7082B0083DF91EE
:10047000CF911F910F9108950F931F93CF93DF9307
:100480009FB7F89490E0EC01CC0FDD1FCC0FDD1F7F
:10049000CC0FDD1F8C0F9D1FEC01C35BDD4FE8818E
:1004A000F981908101E010E098010A8002C0220FDA
:1004B000331F0A94E2F7822F80958923808380EA94
:1004C000A2DF8FEFA0DFE881F98190810A8002C06E
:1004D000000F111F0A94E2F7092B0083DF91CF91DF
:1004E0001F910F91089590E0FC01EE0FFF1FEE0F9A
:1004F000FF1FEE0FFF1F8E0F9F1FFC01E35BFD4FE1
:10050000A081B1812C9181E090E0028002C0880F2F
:10051000991F0A94E2F7809582238C93089590E0C6
:10052000FC01EE0FFF1FEE0FFF1FEE0FFF1F8E0FE0
:100530009F1FFC01E35BFD4FA081B1812C9181E005
:1005400090E0028002C0880F991F0A94E2F7822B84
:100550008C930895CF92DF92EF92FF920F931F93A7
:10056000CF93DF937C01D62E8FB7F894862F84DF4C
:1005700082FF08C084FF08C086FD52C06894CC2466
:10058000C2F805C0C12C03C06894CC24C1F88D2DDD
:10059000AADF8C2D806437DFF701808191819695E9
:1005A000879596958795969587952DDFF70180819C
:1005B0008295880F807E27DF80E025DF80E023DFC3
:1005C000F7011381193008F018E0F70182818823C0
:1005D00021F0812F806417DF12C0812F14DF1123D7
:1005E00071F0E70124961150012F10E00B5F1F4FAF
:1005F0000E0D1F1D899107DFC017D107D9F78D2D6B
:100600008EDF00008D2D6FDFC11003C081E8FBDE9F
:1006100003C08C2D8068F7DE8D2D81DF81E001C065
:1006200080E0DF91CF911F910F91FF90EF90DF90CD
:10063000CF90089580919503109295030895CF93DC
:10064000DF93EC01888199818A3823E0920719F0C1
:100650008A3B934019F460E0CE017CDF8881998168
:100660008130924031F58C8190E0982F88272D8140
:10067000820F911D9093070280930602688570E0B7
:10068000762F66278985680F711D072E000C880B51
:10069000990B0E94FA0D20E030E048EC52E40E94F1
:1006A000640D60931202709313028093140290936E
:1006B0001502888199818115944009F04EC06E81A0
:1006C0006F3FE9F070E0762F66278F81680F711D0C
:1006D000072E000C880B990B0E94FA0D20E030E0E9
:1006E00040E251E40E94640D60930E0270930F0289
:1006F000809310029093110210928C030FC080E03F
:1007000090E0A0E8BFE380930E0290930F02A093C5
:100710001002B093110281E080938C03698570E030
:1007200080E090E00E94F80D20E030E040E251E4EB
:100730000E94640D60930A0270930B0280930C0276
:1007400090930D028A8590E0982F88272B85820F41
:10075000911D9093090280930802888199818F38B6
:10076000924091F4EDE8F3E08C8180838D81818368
:100770008E8182838F818383888584838985858325
:100780008A8586838B858783888199818039924089
:1007900041F5E6E1F2E08D8180838E8181838F8156
:1007A000828388858383898584838A8585838B85F5
:1007B000868342E252E080E090E02191820F911D19
:1007C000E417F507D1F7209196033091970382172C
:1007D000930739F021E0209395039093970380933A
:1007E0009603888199818139924031F58D81E6E1C6
:1007F000F2E087838E8180878F81818788858287D9
:10080000898583878A85848742E252E080E090E090
:100810002191820F911DE417F507D1F720919603DE
:10082000309197038217930739F021E020939503C5
:100830009093970380939603DF91CF910895EF9261
:10084000FF920F931F93CF93DF93E82EF62E50E085
:10085000EA01CC0FDD1FCC0FDD1FCC0FDD1F4C0FCD
:100860005D1FEA01C35BDD4FE881F981908101E002
:1008700010E098010A8002C0220F331F0A94E2F7A9
:10088000822F80958923808382E0BDDD8E2DBBDDA4
:100890008F2DB9DDE881F98180810A8002C0000FC7
:1008A000111F0A94E2F7082B0083DF91CF911F916B
:1008B0000F91FF90EF900895EF92FF920F931F9387
:1008C000CF93DF93FFB6F89490E0EC01CC0FDD1FDF
:1008D000CC0FDD1FCC0FDD1F8C0F9D1FEC01C35B08
:1008E000DD4FE881F981908101E010E098010A80F4
:1008F00002C0220F331F0A94E2F7822F80958923CA
:10090000808380EB80DD8FEF7EDDE82E8FEF7BDD57
:10091000E881F9812081C8010A8002C0880F991FEF
:100920000A94E2F7822B8083FFBE8E2DDF91CF9158
:100930001F910F91FF90EF900895DF92EF92FF9239
:100940000F931F93CF93DF93D82EE62EF42E30E033
:10095000E901CC0FDD1FCC0FDD1FCC0FDD1F2C0FED
:100960003D1FE901C35BDD4FE881F981908101E022
:1009700010E098010A8002C0220F331F0A94E2F7A8
:10098000822F80958923808385E03DDD8D2D3BDDA1
:100990008E2D39DD8F2D37DDE881F9812081C80169
:1009A0000A8002C0880F991F0A94E2F7822B808385
:1009B000DF91CF911F910F91FF90EF90DF900895FD
:1009C0000F931F93CF93DF93C82FDFB7F89421DDE8
:1009D0000C2F10E0C801880F991F880F991F880FEE
:1009E000991F080F191F035B1D4F4C2FF8016681DB
:1009F0008AE225DF4C2FF801678189E220DF4C2F46
:100A0000F801608588E21BDF4C2F63E08BE217DF83
:100A10004C2F63E08BE213DF4C2F60E280E60FDFA8
:100A20004C2F60E280E70BDF4C2F69EF80E207DF9D
:100A30004C2F60EE81E203DF4C2F60E082E2FFDEAC
:100A40004C2F60E083E2FBDE4C2F6FE384E2F7DEA5
:100A50004C2F60EC85E2F3DE4C2F60E086E2EFDEA7
:100A60004C2F60E087E2EBDE4C2F67E580E0E7DEAD
:100A70004C2F60EE81E0E3DE4C2F67E784E0DFDEA1
:100A80004C2F60E485E0DBDE4C2F60E088E0D7DEB1
:100A90004C2F60E089E0D3DE4C2F62E180E1CFDEB5
:100AA0004C2F60E081E1CBDE4C2F60E08CE0C7DEB4
:100AB0004C2F60E08DE0C3DE2C2F44E067EE8FE02A
:100AC0003CDFDFBFDF91CF911F910F9108958F928F
:100AD0009F92AF92BF92CF92DF92EF92FF92CF930D
:100AE000C82F811117C0EDE8F3E0A8E3B2E025E9D3
:100AF00033E081918D932E173F07D9F7E6E1F2E0BD
:100B0000A0E4B2E022E232E081918D932E173F07FC
:100B1000D9F78CC0E0E3F2E0A8E3B2E028E332E0EA
:100B200081918D93E217F307D9F7C130C1F5809019
:100B30000A0290900B02A0900C02B0900D02C50129
:100B4000B4010E94CC0D6B017C0180E090E00E941A
:100B5000F80D9B01AC01C501B40151D720E030E094
:100B600040E251E40E94860E0E94E90E0E94CC0DE4
:100B70007F936F93DF92CF9288E792E09F938F935A
:100B800080E492E09F938F930E9463108DB79EB78D
:100B900008960FB6F8949EBF0FBE8DBF60C0C230DE
:100BA00009F044C0C0900E02D0900F02E0901002F5
:100BB000F0901102C701B601EFD74B015C0180E054
:100BC00090E00E94F80D9B01AC01C701B60117D758
:100BD00020E030E040E251E40E94860E0E94E90EDF
:100BE00020918C03211118C0D7D77F936F939F92C8
:100BF0008F9288E892E09F938F9380E492E09F9396
:100C00008F930E9463108DB79EB708960FB6F89425
:100C10009EBF0FBE8DBF5AC08DE0EEEBF2E0A0E4A8
:100C2000B2E001900D928A95E1F750C0C330B9F45B
:100C3000809109028F93809108028F9387E992E057
:100C40009F938F9380E492E09F938F930E94631011
:100C50000F900F900F900F900F900F905BC0C430CB
:100C6000A9F58090120290901302A0901402B09007
:100C70001502C501B40190D76B017C0180E090E0C2
:100C8000B7D79B01AC01C501B401B9D620E030E073
:100C900048EC52E40E94860E0E94E90E7DD77F93B5
:100CA0006F93DF92CF9283EA92E09F938F9380E4D9
:100CB00092E09F938F930E9463108DB79EB7089622
:100CC0000FB6F8949EBF0FBE8DBF24C0C53029F566
:100CD000809107028F93809106028F9382EB92E0BE
:100CE0009F938F9380E492E09F938F930E94631071
:100CF0000F900F900F900F900F900F900BC0E3E2AA
:100D0000F2E0A0E4B2E02FE232E081918D932E1761
:100D10003F07D9F7C093E20403C0C63081F3FACF8E
:100D2000CF91FF90EF90DF90CF90BF90AF909F90CA
:100D30008F900895FF920F931F93CF93DF93CDB7BA
:100D4000DEB72C970FB6F894DEBF0FBECDBFF82EDE
:100D50008FE892E09A8389831B8288E08C83E8E3A2
:100D6000F2E080818D8381818E8382818F83838174
:100D700088878481898785818A8786818B87878117
:100D80008C876F2DCE010196E5DB80E992E09A8396
:100D9000898380E88D8300E412E0F80180818E83EE
:100DA00081818F83828188878381898784818A87F3
:100DB00085818B8786818C876F2DCE010196CADB5A
:100DC00081E992E09A83898387E88D83F80187819E
:100DD0008E8380858F8381858887828589878385B7
:100DE0008A8780E28B878C876F2DCE010196B2DBDC
:100DF0002C960FB6F894DEBF0FBECDBFDF91CF911A
:100E00001F910F91FF900895BF92CF92DF92EF92C2
:100E1000FF920F931F93CF93DF936C01062F862FC2
:100E20004BDD182F282F2074B22E86FF05C0802F8F
:100E30005ADB80E9E8DA07C088230CF04EC0802F27
:100E400052DB84E9E0DA8FEFDEDAE8E08E9FC00162
:100E50001124F601918380838FEFD5DA282F229514
:100E600026952770F60180819181822B9183808362
:100E70008FEFC9DA8FEFC7DA8FEFC5DA8F70F6011F
:100E80008383882381F0E60124968150E82EF12C9B
:100E9000F5E0EF0EF11CEC0CFD1C8FEFB4DA89933A
:100EA000CE15DF05D1F7802F3ADB13FF04C081E0B8
:100EB000F601828302C0F6011282BB2031F0202F9E
:100EC00040E061E08CE239DD05C0202F40E062E0C7
:100ED0008CE233DD812F877001C08FEFDF91CF91DE
:100EE0001F910F91FF90EF90DF90CF90BF900895EA
:100EF000089580E090E028E737E0FC01EE0FFF1F47
:100F0000E959FB4F31832083019685319105A9F77B
:100F100080E090E028E737E0FC01EE0FFF1FEE0FC6
:100F2000FF1FE95DFB4F31832083138212820196FC
:100F30008031910589F708950FB607FE0CC0F8942B
:100F4000A1E00AC02F5F3F4F2531310539F4AA23B4
:100F5000D1F078940895A0E020E030E0B901F901E3
:100F6000EE0FFF1FE959FB4F408151814857574011
:100F700049F7660F771FFB01E959FB4F9183808387
:100F8000AA2309F078940895CF930FB607FE60C0A6
:100F9000F89420912704309128048217930709F4CC
:100FA0004DC0C1E013C0F901EE0FFF1FEE0FFF1F90
:100FB000E95DFB4F408151814817590751F4738314
:100FC0006283CC2309F44DC078944BC021E030E01B
:100FD000EACF2F5F3F4F2031310529F720912704B9
:100FE000309128042857374081F021E030E0D901C2
:100FF000F901EE0FFF1FEE0FFF1FE95DFB4F408170
:10100000518148575740A1F402C0A0E0B0E0AA0FB8
:10101000BB1FAA0FBB1FA95DBB4F11969C938E935C
:1010200013967C936E931297CC23D9F0789419C0C1
:101030002F5F3F4F20313105D1F613C070932A0442
:1010400060932904C1CF70932A046093290409C0D6
:10105000209127043091280482179307A1F3C0E060
:10106000B5CFCF910895CF93DF93F894E0916704C3
:10107000F091680487E0E837F80711F478941DC010
:1010800080E090E0DC010196EC01CC0FDD1FC95936
:10109000DB4F28813981AA0FBB1FA959BB4F11967D
:1010A0003C932E938431910569F788E797E09093FC
:1010B000900480938F0478941995DF91CF910895CF
:1010C000EF92FF920F931F93CF93DF93E12CF12CBC
:1010D00008E717E0F701D701AA0FBB1FAA0FBB1F34
:1010E000A95DBB4F8D919C918857974001F1D70125
:1010F000AA0FBB1FAA0FBB1FA95DBB4F12968D91F4
:101100009C911397019739F0FD018281938101979A
:10111000938382830CC0EE0FFF1FEE0FFF1FEF01C2
:10112000C95DDB4F8881998107DF198308838FEFC1
:10113000E81AF80A20E1E216F10461F6DF91CF9196
:101140001F910F91FF90EF9008958CE08093B10074
:101150001092B2008AEF8093B30082E08093700017
:1011600008951092CD0088E08093CC001092C800C2
:1011700088E98093C90086E88093CA0083B38360BE
:1011800083BB87B1836087B980E480937C00109231
:101190007B008FE880937A000895EAE7F0E0808191
:1011A000806480830895DF92EF92FF920F931F93E4
:1011B000CF93DF93DFB6F894C6E3DDE0EC2EFD2E8F
:1011C0000AE01FE02DC08E2D9F2D39DA888199818C
:1011D000892B31F1E6E3FDE080E08F5F24853585E2
:1011E0003183208397859383968592839089948316
:1011F000918995839289968393899783948990871F
:10120000958991879689928797899387873241F04C
:101210003C96232B11F7883218F0F80111821082C6
:1012200088819981892B79F6DFBEDF91CF911F915B
:101230000F91FF90EF90DF9008958091160F282F67
:1012400030E030931F0F20931E0F1092200F3FCCE1
:101250000895CF93CFB7F89498B182E0892788B9E1
:10126000E9D9811112C08091200F81110BC089B181
:1012700082958F70282F30E030931F0F20931E0F20
:1012800026DC15C080E023DC12C060ED77E08DE144
:1012900099E07ADE80E01BDC8091200F811107C08D
:1012A00081E08093200F80911E0F8093160F80E0C5
:1012B00041DD64E670E089E299E066DECFBFCF9160
:1012C00008951F920F920FB60F9211240BB60F9232
:1012D0002F933F934F935F936F937F938F939F933E
:1012E000AF93BF93EF93FF93EBDEFF91EF91BF912D
:1012F000AF919F918F917F916F915F914F913F91AE
:101300002F910F900BBE0F900FBE0F901F9018954E
:101310001F920F920FB60F9211240BB60F920F93DC
:101320001F932F933F934F935F936F937F938F936D
:101330009F93AF93BF93EF93FF93CF93DF93CDB77B
:10134000DEB76497DEBFCDBF609178007091790001
:1013500080E090E04DD426EE3FE344E55FE3B4D374
:101360001BD47093220F6093210F2091170F30919F
:10137000180FA901461B570B9A0122F42227332785
:10138000241B350B2536310564F121E020931B0F1A
:101390007093180F6093170F8BEC92E00E943B0143
:1013A0008091220F8F938091210F8F9387ED92E090
:1013B0009F938F938E010F5F1F4F1F930F9383D6C1
:1013C000C8010E943B0110921A0F64E670E08DEC98
:1013D00098E0DADD0F900F900F900F900F900F9024
:1013E0002CC080911B0F813019F510921D0F1092A7
:1013F0001C0F80931A0F61E070E085E69CE0C4DD6D
:101400008091210F9091220F8D3A23E0920720F0D6
:1014100083E08093190F0AC08737924020F081E063
:101420008093190F03C082E08093190F10921B0F55
:101430006AE070E08DEC98E0A7DD64960FB6F89452
:10144000DEBF0FBECDBFDF91CF91FF91EF91BF9176
:10145000AF919F918F917F916F915F914F913F914C
:101460002F911F910F910F900BBE0F900FBE0F90F9
:101470001F9018951F920F920FB60F9211240BB662
:101480000F922F933F934F935F936F937F938F931D
:101490009F93AF93BF93EF93FF930E948800FF91B8
:1014A000EF91BF91AF919F918F917F916F915F91DC
:1014B0004F913F912F910F900BBE0F900FBE0F9049
:1014C0001F9018951F920F920FB60F9211240BB612
:1014D0000F922F933F934F935F936F937F938F93CD
:1014E0009F93AF93BF93EF93FF930E94A900FF9147
:1014F000EF91BF91AF919F918F917F916F915F918C
:101500004F913F912F910F900BBE0F900FBE0F90F8
:101510001F9018951F920F920FB60F9211240BB6C1
:101520000F922F933F934F935F936F937F938F937C
:101530009F93AF93BF93EF93FF930E94EA00FF91B5
:10154000EF91BF91AF919F918F917F916F915F913B
:101550004F913F912F910F900BBE0F900FBE0F90A8
:101560001F9018951F920F920FB60F9211240F9093
:101570000FBE0F901F9018951F920F920FB60F92EB
:1015800011240BB60F922F933F934F935F936F935A
:101590007F938F939F93AF93BF93EF93FF93409A63
:1015A0008091360D9091370D892B69F0E2E4FDE0D2
:1015B00081E004C08F5F3C96883231F02081318118
:1015C000232BC1F701C080E04098883208F087E201
:1015D00090E09C01220F331F820F931F880F991FE9
:1015E000880F991F60E08A5C924F0EDC61E070E02A
:1015F00083ED98E0C9DCFF91EF91BF91AF919F918E
:101600008F917F916F915F914F913F912F910F90AB
:101610000BBE0F900FBE0F901F9018951F920F9248
:101620000FB60F9211240BB60F922F933F934F9347
:101630005F936F937F938F939F93AF93BF93EF933A
:10164000FF9394B382E0892784BB8091360D9091FB
:10165000370D892B69F0E2E4FDE081E004C08F5F83
:101660003C96883231F020813181232BC1F701C0B3
:1016700080E0883208F087E290E09C01220F331F5F
:10168000820F931F880F991F880F991F61E08A5C52
:10169000924FBADB6BE070E083ED98E075DCFF9170
:1016A000EF91BF91AF919F918F917F916F915F91DA
:1016B0004F913F912F910F900BBE0F900FBE0F9047
:1016C0001F9018951F920F920FB60F9211240BB610
:1016D0000F922F933F934F935F936F937F938F93CB
:1016E0009F93AF93BF93EF93FF9394B381E08927C8
:1016F00084BB8091360D9091370D892B69F0E2E41F
:10170000FDE081E004C08F5F3C96883231F020819B
:101710003181232BC1F701C080E0883208F087E2D5
:1017200090E09C01220F331F820F931F880F991F97
:10173000880F991F62E08A5C924F66DB61E070E07F
:1017400083ED98E021DC94B381E0892784BBFF918D
:10175000EF91BF91AF919F918F917F916F915F9129
:101760004F913F912F910F900BBE0F900FBE0F9096
:101770001F9018954F925F926F927F928F929F92D7
:10178000AF92BF92CF92DF92EF92FF920F931F938F
:10179000CF93DF93CDB7DEB7C255D1090FB6F8941A
:1017A000DEBF0FBECDBF01E914E0F80181811F92B9
:1017B0008F938FED92E09F938F93CE0101969F932D
:1017C0008F9381D4F80180811F928F931F921F9273
:1017D00083E093E09F938F937E01F3E3EF0EF11C80
:1017E000FF92EF9270D4C7010E943B010FB6F894AC
:1017F000DEBF0FBECDBFF8018081882309F44DC044
:1018000078010F2EFBE98F2EF4E09F2EF02D58016A
:101810000F2EFCE2CF2EF3E0DF2EF02D8E010F5ABB
:101820001F4FCE0101963C010F2EFCE24F2E512C92
:10183000F02DF50180811F928F93DF92CF921F933D
:101840000F9341D4B801C3012CD40F900F900F9087
:101850000F900F900F90F7018281882371F0F2E0D2
:10186000EF0EF11CE814F90441F0F301019000209F
:10187000E9F7319751824082DCCFCE010196DC013D
:101880000D900020E9F7119725E0EBE1F3E00190DE
:101890000D922A95E1F70E943B01CE5ADF4F0FB619
:1018A000F894DEBF0FBECDBFDF91CF911F910F9196
:1018B000FF90EF90DF90CF90BF90AF909F908F9070
:1018C0007F906F905F904F900895F89480911C0FD7
:1018D00090911D0F019690931D0F80931C0F2091E6
:1018E0001A0F213049F4893E934048F461E070E0DA
:1018F00085E69CE049DB24C0893E934018F03ADF3E
:1019000091E001C090E080919104882371F0A1E9F9
:10191000B4E0E1E004C0EF5F1296E53039F01296D2
:101920008C9112978111F7CF01C0E0E0F0E0EE0F4B
:10193000FF1FEF56FB4F8091190F808391831ADFB1
:1019400078940895F89480E03BD883E893E00E946F
:101950003B0181E035D883E893E00E943B0182E0BF
:101960002FD883E893E00E943B0162E370E089E2B4
:1019700099E00ADB8DB380678DBB78940895F1DB25
:10198000B8DAE3DB0E942F0181E090E090931F0F13
:1019900080931E0F87B18C6F87B98AB18AB988B1DD
:1019A000837088B910BA11BA10921B0FECE7F0E0FF
:1019B00080818764808310921D0F10921C0FEAE7CC
:1019C000F0E0808180648083E6E3FDE086E19FE0D3
:1019D000118210823C96E817F907D1F70E94EB01BB
:1019E000B1DF83ED98E0A8DA10921A0F10921D0F64
:1019F00010921C0FA89537DB0E948101FBCF505835
:101A0000BB27AA270ED048C139D130F03ED120F0F3
:101A100031F49F3F11F41EF42EC10EF4E095E7FB64
:101A200024C1E92F4AD180F3BA17620773078407EC
:101A3000950718F071F49EF562C10EF4E0950B2E37
:101A4000BA2FA02D0B01B90190010C01CA01A00110
:101A50001124FF27591B99F0593F50F4503E68F16B
:101A60001A16F040A22F232F342F4427585FF3CFAC
:101A7000469537952795A795F0405395C9F77EF47D
:101A80001F16BA0B620B730B840BBAF09150A1F0C6
:101A9000FF0FBB1F661F771F881FC2F70EC0BA0F4C
:101AA000621F731F841F48F4879577956795B795D4
:101AB000F7959E3F08F0B3CF9395880F08F09927CC
:101AC000EE0F9795879508950CD0E6C0DED040F0D4
:101AD000D5D030F021F45F3F19F0C7C0511110C1CB
:101AE000CAC0EBD098F39923C9F35523B1F3951BE2
:101AF000550BBB27AA2762177307840738F09F5F2F
:101B00005F4F220F331F441FAA1FA9F333D00E2E9D
:101B10003AF0E0E830D091505040E695001CCAF70A
:101B200029D0FE2F27D0660F771F881FBB1F2617CF
:101B300037074807AB07B0E809F0BB0B802DBF01A2
:101B4000FF2793585F4F2AF09E3F510568F08DC0E4
:101B5000D7C05F3FECF3983EDCF3869577956795A9
:101B6000B795F7959F5FC9F7880F911D9695879553
:101B700097F90895E1E0660F771F881FBB1F621772
:101B800073078407BA0720F0621B730B840BBA0B30
:101B9000EE1F88F7E095089598D088F09F5790F051
:101BA000B92F9927B751A0F0D1F0660F771F881F82
:101BB000991F1AF0BA95C9F712C0B13081F09FD0C1
:101BC000B1E008959CC0672F782F8827B85F39F05F
:101BD000B93FCCF3869577956795B395D9F73EF4E1
:101BE00090958095709561957F4F8F4F9F4F089589
:101BF000E89409C097FB3EF49095809570956195A7
:101C00007F4F8F4F9F4F9923A9F0F92F96E9BB275C
:101C10009395F695879577956795B795F111F8CFD8
:101C2000FAF4BB0F11F460FF1BC06F5F7F4F8F4F43
:101C30009F4F16C0882311F096E911C0772321F039
:101C40009EE8872F762F05C0662371F096E8862FD1
:101C500070E060E02AF09A95660F771F881FDAF728
:101C6000880F9695879597F9089597F99F6780E86B
:101C700070E060E008959FEF80EC089500240A94DE
:101C80001616170618060906089500240A94121657
:101C90001306140605060895092E0394000C11F48A
:101CA000882352F0BB0F40F4BF2B11F460FF04C037
:101CB0006F5F7F4F8F4F9F4F089557FD9058440F90
:101CC000551F59F05F3F71F04795880F97FB991F9B
:101CD00061F09F3F79F08795089512161306140658
:101CE000551FF2CF4695F1DF08C0161617061806E5
:101CF000991FF1CF86957105610508940895E894C0
:101D0000BB2766277727CB0197F908950BD0C4CF5F
:101D1000B5DF28F0BADF18F0952309F0A6CFABCFD6
:101D20001124EECFCADFA0F3959FD1F3950F50E0B9
:101D3000551F629FF001729FBB27F00DB11D639F7D
:101D4000AA27F00DB11DAA1F649F6627B00DA11D23
:101D5000661F829F2227B00DA11D621F739FB00DC9
:101D6000A11D621F839FA00D611D221F749F332739
:101D7000A00D611D231F849F600D211D822F762FD2
:101D80006A2F11249F5750408AF0E1F088234AF0CF
:101D9000EE0FFF1FBB1F661F771F881F915050401B
:101DA000A9F79E3F510570F060CFAACF5F3FECF3DB
:101DB000983EDCF3869577956795B795F795E79507
:101DC0009F5FC1F7FE2B880F911D9695879597F918
:101DD00008952FD020F09F3708F492CF01C01BC088
:101DE000882371F4772321F09850872B762F07C032
:101DF000662311F499270DC09051862B70E060E0A6
:101E00002AF09A95660F771F881FDAF7880F969544
:101E1000879597F908959F3F31F0915020F4879569
:101E200077956795B795880F911D9695879597F942
:101E300008954BDFA0F0BEE7B91788F4BB279F38A1
:101E400060F41616B11D672F782F8827985FF7CF9B
:101E5000869577956795B11D93959639C8F3089542
:101E60000F931F93CF93DF938230910510F482E09C
:101E700090E0E091250FF091260F20E030E0A0E007
:101E8000B0E0309719F140815181028113814817E8
:101E90005907C8F08417950769F4109731F0129626
:101EA0000C93129713961C9327C00093250F109341
:101EB000260F22C02115310519F04217530718F4D7
:101EC0009A01BD01EF01DF01F801DBCF21153105DA
:101ED000F9F0281B390B2430310580F48A819B816D
:101EE0006115710521F0FB019383828304C09093F7
:101EF000260F8093250FFE01329644C0FE01E20FAB
:101F0000F31F8193919322503109398328833AC07A
:101F10002091230F3091240F232B41F420910202B2
:101F2000309103023093240F2093230F209100025D
:101F3000309101022115310541F42DB73EB7409192
:101F4000040250910502241B350BE091230FF09100
:101F5000240FE217F307A0F42E1B3F0B28173907B5
:101F600078F0AC014E5F5F4F2417350748F04E0FF5
:101F70005F1F5093240F4093230F8193919302C0CE
:101F8000E0E0F0E0CF01DF91CF911F910F91089534
:101F9000CF93DF93009709F481C0FC01329713823D
:101FA0001282A091250FB091260F109781F4208105
:101FB0003181820F931F2091230F3091240F281716
:101FC000390751F5F093240FE093230F67C0ED011B
:101FD00020E030E0CE17DF0740F44A815B819E01AC
:101FE00041155105F1F0EA01F5CFD383C283408159
:101FF0005181840F951FC817D90759F48881998199
:10200000840F951F0296918380838A819B8193839D
:1020100082832115310529F4F093260FE093250FD3
:102020003DC0E901FB83EA8349915991C40FD51F53
:10203000EC17FD0761F480819181840F951F029652
:10204000E90199838883828193819B838A83E0E07D
:10205000F0E012968D919C911397009719F0FD0175
:10206000DC01F7CF8D919C9111979D012E5F3F4F21
:10207000820F931F2091230F3091240F28173907C7
:1020800069F4309729F41092260F1092250F02C0A0
:1020900013821282B093240FA093230FDF91CF916C
:1020A0000895FB01DC010D900020E9F711970190E4
:1020B0000D920020E1F70895FB01DC0101900D92E3
:1020C0000020E1F708950F931F93CF93DF93CDB7CF
:1020D000DEB72E970FB6F894DEBF0FBECDBF0E89C8
:1020E0001F8986E08C831A8309838FEF9FE79E8385
:1020F0008D83AE01465E5F4F688D798DCE0101966E
:1021000010D0EF81F885E00FF11F10822E960FB6E8
:10211000F894DEBF0FBECDBFDF91CF911F910F911D
:1021200008952F923F924F925F926F927F928F927B
:102130009F92AF92BF92CF92DF92EF92FF920F9356
:102140001F93CF93DF93CDB7DEB72B970FB6F894DD
:10215000DEBF0FBECDBF6C017B018A01FC0117827F
:102160001682838181FFBFC1CE0101963C01F60139
:102170009381F70193FD859193FF81917F018823DE
:1021800009F4ADC1853239F493FD859193FF8191B6
:102190007F01853221F4B60190E0D6D1E8CF912CB1
:1021A000212C312CFFE1F315D8F08B3279F038F483
:1021B000803279F08332A1F4232D20611DC08D324D
:1021C00061F0803369F4232D216016C0832D826075
:1021D000382EE32DE4603E2E2AC0F32DF8601DC09A
:1021E00037FC2DC020ED280F2A3040F08E32B9F494
:1021F00036FC75C1232D2064322E19C036FE06C070
:102200008AE0989E200D1124922E11C0EAE02E9EA5
:10221000200D1124222EF32DF0623F2E08C08C36A3
:1022200021F4832D8068382E02C0883641F4F701EE
:1022300093FD859193FF81917F018111B3CF982FF9
:102240009F7D9554933028F40C5F1F4F9FE3998333
:102250000DC0833631F0833771F0833509F055C0F6
:1022600020C0F801808189830E5F1F4F88248394EA
:10227000912C530112C02801F2E04F0E511CF801BD
:10228000A080B18036FE03C0692D70E002C06FEF00
:102290007FEFC5014ED14C018201F32DFF773F2E18
:1022A00015C0280122E0420E511CF801A080B18027
:1022B00036FE03C0692D70E002C06FEF7FEFC501ED
:1022C0002DD14C01F32DF0683F2E820133FC19C053
:1022D000822D90E088169906A0F4B60180E290E085
:1022E00033D12A94F5CFF50137FC859137FE8191E2
:1022F0005F01B60190E028D121102A9421E0821AD2
:1023000091088114910479F7E1C0843611F089367F
:1023100039F5F80137FE07C06081718182819381B0
:102320000C5F1F4F08C060817181072E000C880B65
:10233000990B0E5F1F4FF32DFF763F2E97FF09C0BD
:1023400090958095709561957F4F8F4F9F4FF06866
:102350003F2E2AE030E0A30133D1882E861844C0F6
:10236000853731F4232D2F7EB22E2AE030E025C0B0
:10237000932D997FB92E8F36C1F018F4883579F0F6
:10238000AEC0803719F0883721F0A9C0E92FE0618D
:10239000BE2EB4FE0DC0FB2DF460BF2E09C034FE6E
:1023A0000AC0292F2660B22E06C028E030E005C002
:1023B00020E130E002C020E132E0F801B7FE07C0C2
:1023C00060817181828193810C5F1F4F06C06081A3
:1023D000718180E090E00E5F1F4FA301F1D0882E45
:1023E0008618FB2DFF773F2E36FE0DC0232D2E7F46
:1023F000A22E891458F434FE0BC032FC09C0832D80
:102400008E7EA82E05C0B82CA32C03C0B82C01C00A
:10241000B92CA4FE0FC0FE01E80DF11D80818033B0
:1024200021F49A2D997EA92E09C0A2FE06C0B3946C
:10243000B39404C08A2D867809F0B394A3FC10C02D
:10244000A0FE06C0B21480F4280C922C9B180DC07C
:10245000B21458F4B60180E290E076D0B394F8CF8D
:10246000B21418F42B1802C0982C212CA4FE0FC013
:10247000B60180E390E068D0A2FE16C0A1FC03C0C4
:1024800088E790E002C088E590E0B6010CC08A2D94
:10249000867851F0A1FE02C08BE201C080E2A7FC69
:1024A0008DE2B60190E050D0891430F4B60180E39B
:1024B00090E04AD09A94F8CF8A94F301E80DF11D88
:1024C0008081B60190E040D08110F6CF222009F43F
:1024D0004ECEB60180E290E037D02A94F7CFF601D5
:1024E0008681978102C08FEF9FEF2B960FB6F894ED
:1024F000DEBF0FBECDBFDF91CF911F910F91FF9037
:10250000EF90DF90CF90BF90AF909F908F907F9093
:102510006F905F904F903F902F900895FC01059031
:10252000615070400110D8F7809590958E0F9F1FD5
:102530000895FC016150704001900110D8F780951A
:1025400090958E0F9F1F08950F931F93CF93DF9346
:10255000FB01238121FD03C08FEF9FEF2CC022FFE1
:1025600016C046815781248135814217530744F4B0
:10257000A081B1819D012F5F3F4F318320838C93D8
:10258000268137812F5F3F4F3783268314C08B010D
:10259000EC01FB010084F185E02D1995892BE1F612
:1025A000D80116968D919C911797019617969C933A
:1025B0008E931697CE01DF91CF911F910F910895C1
:1025C000FA01AA27283051F1203181F1E8946F9364
:1025D0006E7F6E5F7F4F8F4F9F4FAF4FB1E03ED00A
:1025E000B4E03CD0670F781F891F9A1FA11D680FA8
:1025F000791F8A1F911DA11D6A0F711D811D911DDB
:10260000A11D20D009F468943F912AE0269F11244F
:102610003019305D3193DEF6CF010895462F4770B3
:10262000405D4193B3E00FD0C9F7F6CF462F4F700E
:10263000405D4A3318F0495D31FD4052419302D06C
:10264000A9F7EACFB4E0A695979587957795679512
:10265000BA95C9F700976105710508959B01AC0112
:102660000A2E06945795479537952795BA95C9F739
:10267000620F731F841F951FA01D0895F894FFCF4C
:102680000000270F200001003005000068410AD734
:10269000233C52B8BA412020202020202020202096
:1026A00020200020416E64726F5F43617220202001
:1026B000800000000000000080000000000000001A
:1026C000202020202020202020202020002500065F
:1026D00025000703F00625000525000703F0062561
:1026E000000425000703F00649443A2025642C2005
:1026F0005061723A202573004176673A2025336491
:102700002E25303164204C004D6F6D3A2533642EF8
:1027100025303164204C0052656D3A202534642008
:102720004B6D00202533642E25303264204B6D2FF5
:10273000680052504D3A20202534642020004D6F0F
:102740006D3A20312E30204C2F680056696E206380
:1027500068616E6765640056696E3A202564007B87
:10276000226964223A312C226475726174696F6E39
:10277000223A25642C2022627574746F6E73223A9B
:10278000205B0053656E6465723A20693D25642CB8
:10279000205B695D5B305D3D256400205D207D0030
:1027A0005445433A202564005245433A20256400AD
:1027B00045464C473A2025640043414E494E544516
:1027C0003A2025640043414E494E54463A20256440
:1027D0000043414E4354524C3A2025640043414E3D
:1027E000535441543A202564004246504354524CBD
:1027F0003A2025640054585254534354524C3A20C2
:0C2800002564002D2D2D2D2D2D2D2D00DB
:00000001FF
