:10000000BEC00000DDC00000DBC00000D9C00000A1
:10001000D7C000000C94180B0C946A0B0C94BE0B08
:10002000CFC00000CDC00000CBC00000C9C00000A0
:10003000C7C000000C94D509C3C00000C1C00000B7
:10004000BFC00000BDC00000BBC00000B9C00000C0
:10005000B7C00000B5C00000B3C00000B1C00000D0
:100060000C940E0BADC00000ABC00000A9C0000096
:10007000A7C000000C94FC09A3C00000A1C00000B0
:100080009FC000009DC000009BC0000099C0000000
:100090000C94E60A0C94960A0C94BE0A0C94FC0D7F
:1000A0008FC000008DC000008BC0000089C0000020
:1000B00087C0000085C0000083C0000081C0000030
:1000C0007FC000007DC000007BC00000210E6A10D0
:1000D0006A106A106A106A106A106A10380E6A1084
:1000E0006A106A106A106A106A106A10830E6A1029
:1000F0006A106A106A106A106A106A10CF0E6A10CD
:100100006A106A106A106A106A106A10370F6A1053
:100110006A106A106A106A106A106A104F0F6A102B
:100120006A106A106A106A106A106A10BD0F6A10AD
:100130006A106A106A106A106A106A10D50F6A1085
:100140006A106A106A106A106A106A10ED0F6A105D
:100150006A106A106A106A106A106A100E106A102B
:100160006A106A106A106A106A106A1026106A1003
:100170006A106A106A106A106A106A10501011240E
:100180001FBECFEFD1E2DEBFCDBF00E00CBF13E05A
:10019000A0E0B2E0EAE6FEE200E00BBF02C007909A
:1001A0000D92A23BB107D9F720E1A2EBB3E001C069
:1001B0001D92A137B207E1F70E949D0D0C943317F1
:1001C0001FCF8091C003E091C103F091C203E80FFB
:1001D000F11D8081882369F08093CE008091C00357
:1001E0008F5F8093C003E9ECF0E0808180648083BE
:1001F00008958AE08093CE00E9ECF0E080818F7D65
:1002000080830895CF93DF93E9ECF0E080818F7BCA
:100210008083C1ECD3E0888199810E94BD132A813B
:100220003B812115310541F181E090E041E0880FEB
:10023000991FFC01E154FC4F318320834F5F842FD1
:1002400090E0FC01EE0FFF1FEF53FC4F2081318146
:100250002115310561F7880F991FFC01E154FC4F0E
:1002600011821082423060F01092C003E9ECF0E09D
:1002700080818062808304C01092C2031092C10307
:10028000DF91CF9108958091CE008D3009F43FC069
:100290009091BE0391110AC01092BF03809307058D
:1002A0001092C10481E08093BE0308958A3089F0E2
:1002B000E091BF03E53468F4AE2FB0E0AF53BB4F1D
:1002C0008C93EF5FE093BF03F0E0EF53FB4F10829E
:1002D00008951092BE0320915B0D2E31C1F030E0E5
:1002E000F901E75FFA4F80910705808346E4429F5A
:1002F000C001439F900D112461EC74E0895D9A4F19
:100300000E945114EBE5FDE080818F5F80830895AA
:10031000E1ECF3E08DE494E011921192E817F90713
:10032000D9F710925B0D0895FF920F931F93CF930F
:10033000DF938C01FFB6F894FC0101900020E9F7EF
:10034000CF01801B910B0E942513EC01B8010E9484
:1003500051148091C1039091C203892B81F080E0F8
:100360008F5F282F30E0F901EE0FFF1FEF53FC4F96
:1003700040815181452BA1F7863450F402C020E022
:1003800030E0220F331FF901EF53FC4FD183C083BC
:100390008091C90085FD07C0E9ECF0E080818062B2
:1003A00080831092C003FFBEDF91CF911F910F9108
:1003B000FF900895DF92EF92FF920F931F93CF93D8
:1003C000DF93CDB7DEB7E2970FB6F894DEBF0FBE6E
:1003D000CDBFDFB6F89480915B0D882309F445C04A
:1003E00087E295E09F938F93809109051F928F93E9
:1003F00084E792E09F938F938E010F5F1F4F1F93AF
:100400000F930E945814C8018FDFEBE5FDE0808157
:10041000815080830FB6F894DEBF0FBECDBF882316
:1004200021F110E006E47F01212F30E0C90101969F
:10043000FC01E75FFA4F4081F901E75FFA4F408323
:10044000089FB001099F700D1124695D7A4F029FCA
:10045000C001039F900D1124895D9A4F0E94511491
:100460001F5FF70180811817F8F2DFBEE2960FB622
:10047000F894DEBF0FBECDBFDF91CF911F910F91DA
:10048000FF90EF90DF90089584B1876084B985B1C3
:10049000897F85B984B1806784B985B1806785B962
:1004A0008DB11DB88EB180678EB9279A2F9A80E5DD
:1004B0008CBD81E08DBD08958EBD0DB407FEFDCFCE
:1004C0008EB508950F931F93CF93DF9390E0EC01C7
:1004D000CC0FDD1FCC0FDD1FCC0FDD1F8C0F9D1F40
:1004E000EC01C35BDD4FE881F981908101E010E010
:1004F00098010A8002C0220F331F0A94E2F7822F6C
:1005000080958923808380ECD7DFE881F981808121
:100510000A8002C0000F111F0A94E2F7082B008323
:10052000DF91CF911F910F9108950F931F93CF9358
:10053000DF939FB7F89490E0EC01CC0FDD1FCC0F58
:10054000DD1FCC0FDD1F8C0F9D1FEC01C35BDD4F4A
:10055000E881F981908101E010E098010A8002C0F1
:10056000220F331F0A94E2F7822F8095892380831C
:1005700080EAA2DF8FEFA0DFE881F98190810A8015
:1005800002C0000F111F0A94E2F7092B0083DF91CC
:10059000CF911F910F91089590E0FC01EE0FFF1F86
:1005A000EE0FFF1FEE0FFF1F8E0F9F1FFC01E35B7F
:1005B000FD4FA081B1812C9181E090E0028002C0CA
:1005C000880F991F0A94E2F7809582238C930895EF
:1005D00090E0FC01EE0FFF1FEE0FFF1FEE0FFF1F5D
:1005E0008E0F9F1FFC01E35BFD4FA081B1812C9119
:1005F00081E090E0028002C0880F991F0A94E2F720
:10060000822B8C930895CF92DF92EF92FF920F93FB
:100610001F93CF93DF937C01D62E8FB7F894862F4C
:1006200084DF82FF08C084FF08C086FD52C0689442
:10063000CC24C2F805C0C12C03C06894CC24C1F8F6
:100640008D2DAADF8C2D806437DFF70180819181A9
:100650009695879596958795969587952DDFF701C1
:1006600080818295880F807E27DF80E025DF80E013
:1006700023DFF7011381193008F018E0F7018281B8
:10068000882321F0812F806417DF12C0812F14DFAF
:10069000112371F0E70124961150012F10E00B5F38
:1006A0001F4F0E0D1F1D899107DFC017D107D9F706
:1006B0008D2D8EDF00008D2D6FDFC11003C081E80E
:1006C000FBDE03C08C2D8068F7DE8D2D81DF81E09D
:1006D00001C080E0DF91CF911F910F91FF90EF90CB
:1006E000DF90CF9008958091BB031092BB030895D3
:1006F000CF93DF93EC01888199818A3823E09207B8
:1007000019F08A3B934019F460E0CE017CDF8881C8
:1007100099818130924031F58C8190E0982F882723
:100720002D81820F911D90930702809306026885A8
:1007300070E0762F66278985680F711D072E000CE3
:10074000880B990B0E94E71120E030E048EC52E45E
:100750000E9451116093120270931302809314024D
:1007600090931502888199818115944009F04EC0BB
:100770006E816F3FE9F070E0762F66278F81680FFA
:10078000711D072E000C880B990B0E94E71120E0C9
:1007900030E040E251E40E94511160930E027093E8
:1007A0000F0280931002909311021092B2030FC0B7
:1007B00080E090E0A0E8BFE380930E0290930F02E8
:1007C000A0931002B093110281E08093B203698577
:1007D00070E080E090E00E94E51120E030E040E22F
:1007E00051E40E94511160930A0270930B028093AE
:1007F0000C0290930D028A8590E0982F88272B8514
:10080000820F911D9093090280930802888199813B
:100810008F38924091F4E3EBF3E08C8180838D81FB
:1008200081838E8182838F81838388858483898578
:1008300085838A8586838B858783888199818039A2
:10084000924041F5E6E1F2E08D8180838E818183E3
:100850008F81828388858383898584838A85858344
:100860008B85868342E252E080E090E02191820F06
:10087000911DE417F507D1F72091BC033091BD031A
:100880008217930739F021E02093BB039093BD03B7
:100890008093BC03888199818139924031F58D81A3
:1008A000E6E1F2E087838E8180878F81818788856A
:1008B0008287898583878A85848742E252E080E047
:1008C00090E02191820F911DE417F507D1F7209157
:1008D000BC033091BD038217930739F021E02093C8
:1008E000BB039093BD038093BC03DF91CF91089528
:1008F000EF92FF920F931F93CF93DF93E82EF62E84
:1009000050E0EA01CC0FDD1FCC0FDD1FCC0FDD1F47
:100910004C0F5D1FEA01C35BDD4FE881F9819081D7
:1009200001E010E098010A8002C0220F331F0A94F0
:10093000E2F7822F80958923808382E0BDDD8E2DB2
:10094000BBDD8F2DB9DDE881F98180810A8002C08D
:10095000000F111F0A94E2F7082B0083DF91CF915B
:100960001F910F91FF90EF900895EF92FF920F93D8
:100970001F93CF93DF93FFB6F89490E0EC01CC0F78
:10098000DD1FCC0FDD1FCC0FDD1F8C0F9D1FEC0179
:10099000C35BDD4FE881F981908101E010E09801AF
:1009A0000A8002C0220F331F0A94E2F7822F80953B
:1009B0008923808380EB80DD8FEF7EDDE82E8FEF53
:1009C0007BDDE881F9812081C8010A8002C0880F9F
:1009D000991F0A94E2F7822B8083FFBE8E2DDF9150
:1009E000CF911F910F91FF90EF900895DF92EF92BA
:1009F000FF920F931F93CF93DF93D82EE62EF42E02
:100A000030E0E901CC0FDD1FCC0FDD1FCC0FDD1F67
:100A10002C0F3D1FE901C35BDD4FE881F981908117
:100A200001E010E098010A8002C0220F331F0A94EF
:100A3000E2F7822F80958923808385E03DDD8D2D2F
:100A40003BDD8E2D39DD8F2D37DDE881F981208169
:100A5000C8010A8002C0880F991F0A94E2F7822B0E
:100A60008083DF91CF911F910F91FF90EF90DF90E6
:100A700008950F931F93CF93DF93C82FDFB7F89498
:100A800021DD0C2F10E0C801880F991F880F991FD6
:100A9000880F991F080F191F035B1D4F4C2FF8017A
:100AA00066818AE225DF4C2FF801678189E220DF29
:100AB0004C2FF801608588E21BDF4C2F63E08BE24E
:100AC00017DF4C2F63E08BE213DF4C2F60E280E6F0
:100AD0000FDF4C2F60E280E70BDF4C2F69EF80E2E5
:100AE00007DF4C2F60EE81E203DF4C2F60E082E2F3
:100AF000FFDE4C2F60E083E2FBDE4C2F6FE384E2ED
:100B0000F7DE4C2F60EC85E2F3DE4C2F60E086E2EE
:100B1000EFDE4C2F60E087E2EBDE4C2F67E580E0F4
:100B2000E7DE4C2F60EE81E0E3DE4C2F67E784E0E8
:100B3000DFDE4C2F60E485E0DBDE4C2F60E088E0F8
:100B4000D7DE4C2F60E089E0D3DE4C2F62E180E1FC
:100B5000CFDE4C2F60E081E1CBDE4C2F60E08CE0FB
:100B6000C7DE4C2F60E08DE0C3DE2C2F44E067EE43
:100B70008FE03CDFDFBFDF91CF911F910F91089590
:100B80008F929F92AF92BF92CF92DF92EF92FF929D
:100B9000CF93C82F811117C0E3EBF3E0A8E3B2E0D5
:100BA0002BEB33E081918D932E173F07D9F7E6E1C8
:100BB000F2E0A0E4B2E022E232E081918D932E17C0
:100BC0003F07D9F790C0E0E3F2E0A8E3B2E028E302
:100BD00032E081918D93E217F307D9F7C130C9F55F
:100BE00080900A0290900B02A0900C02B0900D022F
:100BF000C501B4010E94B9116B017C0180E090E055
:100C00000E94E5119B01AC01C501B4010E94EC10EA
:100C100020E030E040E251E40E9473120E94D612BC
:100C20000E94B9117F936F93DF92CF9284E892E094
:100C30009F938F9380E492E09F938F930E94581428
:100C40008DB79EB708960FB6F8949EBF0FBE8DBFA6
:100C500063C0C23009F047C0C0900E02D0900F02AE
:100C6000E0901002F0901102C701B6010E94B91184
:100C70004B015C0180E090E00E94E5119B01AC011A
:100C8000C701B6010E94EC1020E030E040E251E4E0
:100C90000E9473120E94D6122091B203211119C032
:100CA0000E94B9117F936F939F928F9284E992E093
:100CB0009F938F9380E492E09F938F930E945814A8
:100CC0008DB79EB708960FB6F8949EBF0FBE8DBF26
:100CD0005EC08DE0EAECF2E0A0E4B2E001900D929B
:100CE0008A95E1F754C0C330B9F4809109028F931B
:100CF000809108028F9383EA92E09F938F9380E420
:100D000092E09F938F930E9458140F900F900F9032
:100D10000F900F900F905FC0C430C9F58090120201
:100D200090901302A0901402B0901502C501B40176
:100D30000E94B9116B017C0180E090E00E94E511F6
:100D40009B01AC01C501B4010E94EC1020E030E031
:100D500048EC52E40E9473120E94D6120E94B9110C
:100D60007F936F93DF92CF928FEA92E09F938F935E
:100D700080E492E09F938F930E9458148DB79EB7A2
:100D800008960FB6F8949EBF0FBE8DBF24C0C53025
:100D900029F5809107028F93809106028F938EEB45
:100DA00092E09F938F9380E492E09F938F930E94B1
:100DB00058140F900F900F900F900F900F900BC042
:100DC000E3E2F2E0A0E4B2E02FE232E081918D9321
:100DD0002E173F07D9F7C093080503C0C63081F32B
:100DE000FACFCF91FF90EF90DF90CF90BF90AF9070
:100DF0009F908F900895FF920F931F93CF93DF934F
:100E0000CDB7DEB72C970FB6F894DEBF0FBECDBFBF
:100E1000F82E8FE892E09A8389831B8288E08C8386
:100E2000E8E3F2E080818D8381818E8382818F83EC
:100E3000838188878481898785818A8786818B875A
:100E400087818C876F2DCE010196DDDB80E992E0F2
:100E50009A83898380E88D8300E412E0F801808121
:100E60008E8381818F838281888783818987848132
:100E70008A8785818B8786818C876F2DCE0101962D
:100E8000C2DB81E992E09A83898387E88D83F80148
:100E900087818E8380858F838185888782858987F6
:100EA00083858A8780E28B878C876F2DCE010196A0
:100EB000AADB2C960FB6F894DEBF0FBECDBFDF9134
:100EC000CF911F910F91FF900895BF92CF92DF9223
:100ED000EF92FF920F931F93CF93DF936C01062F36
:100EE000862F43DD182F282F2074B22E86FF05C0D1
:100EF000802F52DB80E9E0DA07C088230CF04EC077
:100F0000802F4ADB84E9D8DA8FEFD6DAE8E08E9FCB
:100F1000C0011124F601918380838FEFCDDA282F51
:100F2000229526952770F60180819181822B9183ED
:100F300080838FEFC1DA8FEFBFDA8FEFBDDA8F706A
:100F4000F6018383882381F0E60124968150E82E00
:100F5000F12CF5E0EF0EF11CEC0CFD1C8FEFACDA80
:100F60008993CE15DF05D1F7802F32DB13FF04C044
:100F700081E0F601828302C0F6011282BB2031F0CB
:100F8000202F40E061E08CE231DD05C0202F40E001
:100F900062E08CE22BDD812F877001C08FEFDF9143
:100FA000CF911F910F91FF90EF90DF90CF90BF9066
:100FB0000895089580E090E029ED37E0FC01EE0F00
:100FC000FF1FE357FB4F3183208301968531910545
:100FD000A9F780E090E029ED37E0FC01EE0FFF1F5C
:100FE000EE0FFF1FE35BFB4F3183208313821282DE
:100FF00001968031910589F708950FB607FE0CC060
:10100000F894A1E00AC02F5F3F4F2531310539F434
:10101000AA23D1F078940895A0E020E030E0B9014F
:10102000F901EE0FFF1FE357FB4F40815181495DEE
:10103000574049F7660F771FFB01E357FB4F91833A
:101040008083AA2309F078940895CF930FB607FE02
:1010500060C0F89420914D0430914E04821793079C
:1010600009F44DC0C1E013C0F901EE0FFF1FEE0FF0
:10107000FF1FE35BFB4F408151814817590751F433
:1010800073836283CC2309F44DC078944BC021E074
:1010900030E0EACF2F5F3F4F2031310529F7209113
:1010A0004D0430914E04295D374081F021E030E05D
:1010B000D901F901EE0FFF1FEE0FFF1FE35BFB4F9E
:1010C00040815181495D5740A1F402C0A0E0B0E0E9
:1010D000AA0FBB1FAA0FBB1FA35BBB4F11969C930C
:1010E0008E9313967C936E931297CC23D9F07894B9
:1010F00019C02F5F3F4F20313105D1F613C07093D7
:10110000500460934F04C1CF7093500460934F0418
:1011100009C020914D0430914E0482179307A1F32A
:10112000C0E0B5CFCF910895CF93DF93F894E091CD
:101130008D04F0918E0487E0E93DF80711F478946E
:101140001DC080E090E0DC010196EC01CC0FDD1FBA
:10115000C357DB4F28813981AA0FBB1FA357BB4F51
:1011600011963C932E938431910569F789ED97E0B0
:101170009093B6048093B50478941995DF91CF913C
:101180000895EF92FF920F931F93CF93DF93E12C7B
:10119000F12C09ED17E0F701D701AA0FBB1FAA0F29
:1011A000BB1FA35BBB4F8D919C91895D974001F163
:1011B000D701AA0FBB1FAA0FBB1FA35BBB4F129681
:1011C0008D919C911397019739F0FD018281938154
:1011D0000197938382830CC0EE0FFF1FEE0FFF1F5A
:1011E000EF01C35BDB4F8881998107DF1983088397
:1011F0008FEFE81AF80A20E1E216F10461F6DF91B8
:10120000CF911F910F91FF90EF9008958CE0809304
:10121000B1001092B2008AEF8093B30082E0809315
:10122000700008951092CD0088E08093CC00109259
:10123000C80088E98093C90086E88093CA0083B318
:10124000836083BB87B1836087B980E480937C002F
:1012500010927B008FE880937A000895F894809133
:10126000430F813009F040C080913E0F811104C0CE
:1012700081E080933E0F02C010923E0F80913E0F9E
:1012800090E0FC01EE0FFF1FE80FF91FEE0FFF1FAC
:10129000E859FD4F2281338121153105C1F4ACE7B6
:1012A000B0E02C91FC01EE0FFF1FE80FF91FEE0FCD
:1012B000FF1FE859FD4F8081805C822B8C93EAE709
:1012C000F0E08081806480831092430F0DC0FC01A8
:1012D000EE0FFF1FE80FF91FEE0FFF1FE859FD4F3C
:1012E000215031093383228365E070E08EE299E07A
:1012F000ACDE7894089587ED92E016C80895DF92E9
:10130000EF92FF920F931F93CF93DF93DFB6F89482
:10131000CCE5DDE0EC2EFD2E00E31FE02DC08E2D90
:101320009F2DE6D988819981892B31F1ECE5FDE08B
:1013300080E08F5F24853585318320839785938373
:1013400096859283908994839189958392899683D7
:1013500093899783948990879589918796899287B5
:1013600097899387873241F03C96232B11F7883277
:1013700018F0F8011182108288819981892B79F601
:10138000DFBEDF91CF911F910F91FF90EF90DF9023
:10139000089580913D0F282F30E03093470F209320
:1013A000460F1092480FECCB08951F920F920FB684
:1013B0000F9211240BB60F922F933F934F935F938D
:1013C0006F937F938F939F93AF93BF93EF93FF930D
:1013D000D8DEFF91EF91BF91AF919F918F917F9157
:1013E0006F915F914F913F912F910F900BBE0F9096
:1013F0000FBE0F901F9018951F920F920FB60F926D
:1014000011240BB60F922F933F934F935F936F93DB
:101410007F938F939F93AF93BF93CF93DF93EF937C
:10142000FF93609178007091790080E090E0CDD7D3
:1014300026EE3FE344E55FE334D79BD7EB01A09171
:101440003E0F4A2F50E0FA01EE0FFF1FE40FF51F89
:10145000EE0FFF1FE859FD4F24813581261B370B06
:10146000F901FF2324F4EE27FF27E21BF30BE536F7
:10147000F10504F121E02093420FFA01EE0FFF1F66
:10148000E40FF51FEE0FFF1FE859FD4F75836483CE
:10149000A11102C01092400FFA01EE0FFF1FE40FDE
:1014A000F51FEE0FFF1FE859FD4F8AE090E0938390
:1014B000828324C08091420F813001F5A1111CC0AC
:1014C0001092450F1092440F8093400F61E070E03E
:1014D0008DE39DE0BADDCD3A83E0D80718F0109295
:1014E0003F0F0AC0C737D24020F081E080933F0F02
:1014F00003C082E080933F0F1092420F81E08093FF
:10150000430FFF91EF91DF91CF91BF91AF919F91E9
:101510008F917F916F915F914F913F912F910F909C
:101520000BBE0F900FBE0F901F9018951F920F9239
:101530000FB60F9211240BB60F922F933F934F9338
:101540005F936F937F938F939F93AF93BF93EF932B
:10155000FF930E94E100FF91EF91BF91AF919F91A6
:101560008F917F916F915F914F913F912F910F904C
:101570000BBE0F900FBE0F901F9018951F920F92E9
:101580000FB60F9211240BB60F922F933F934F93E8
:101590005F936F937F938F939F93AF93BF93EF93DB
:1015A000FF930E940201FF91EF91BF91AF919F9134
:1015B0008F917F916F915F914F913F912F910F90FC
:1015C0000BBE0F900FBE0F901F9018951F920F9299
:1015D0000FB60F9211240BB60F922F933F934F9398
:1015E0005F936F937F938F939F93AF93BF93EF938B
:1015F000FF930E944301FF91EF91BF91AF919F91A3
:101600008F917F916F915F914F913F912F910F90AB
:101610000BBE0F900FBE0F901F9018951F920F9248
:101620000FB60F9211240F900FBE0F901F901895B8
:101630001F920F920FB60F9211240BB60F922F9399
:101640003F934F935F936F937F938F939F93AF934A
:10165000BF93EF93FF93409A80915C0D90915D0D45
:10166000892B69F0E8E6FDE081E004C08F5F3C96DD
:10167000883231F020813181232BC1F701C080E015
:101680004098883208F087E290E09C01220F331FD7
:10169000820F931F880F991F880F991F60E0845A4B
:1016A000924F13DC61E070E08FE799E0CEDCFF91B0
:1016B000EF91BF91AF919F918F917F916F915F91CA
:1016C0004F913F912F910F900BBE0F900FBE0F9037
:1016D0001F9018951F920F920FB60F9211240BB600
:1016E0000F922F933F934F935F936F937F938F93BB
:1016F0009F93AF93BF93EF93FF9394B382E08927B7
:1017000084BB80915C0D90915D0D892B69F0E8E6BA
:10171000FDE081E004C08F5F3C96883231F020818B
:101720003181232BC1F701C080E0883208F087E2C5
:1017300090E09C01220F331F820F931F880F991F87
:10174000880F991F61E0845A924FBFDB6BE070E015
:101750008FE799E07ADCFF91EF91BF91AF919F9174
:101760008F917F916F915F914F913F912F910F904A
:101770000BBE0F900FBE0F901F9018951F920F92E7
:101780000FB60F9211240BB60F922F933F934F93E6
:101790005F936F937F938F939F93AF93BF93EF93D9
:1017A000FF9394B381E0892784BB80915C0D909175
:1017B0005D0D892B69F0E8E6FDE081E004C08F5FF4
:1017C0003C96883231F020813181232BC1F701C052
:1017D00080E0883208F087E290E09C01220F331FFE
:1017E000820F931F880F991F880F991F62E0845AF8
:1017F000924F6BDB61E070E08FE799E026DC94B3F9
:1018000081E0892784BBFF91EF91BF91AF919F91B8
:101810008F917F916F915F914F913F912F910F9099
:101820000BBE0F900FBE0F901F901895CF92DF92B6
:10183000EF92FF920F931F93CF93DF93CDB7DEB755
:101840002E970FB6F894DEBF0FBECDBF8BE799E0A1
:101850009E878D870F2EF8E6CF2EF02DD12CEB80B2
:10186000FC800D811E812F81388549855A8567E06E
:1018700078E09E8542D485EA8093BC002E960FB610
:10188000F894DEBF0FBECDBFDF91CF911F910F91B6
:10189000FF90EF90DF90CF900895CF93CFB7F8945B
:1018A00098B182E0892788B90E947303811112C020
:1018B0008091480F81110BC089B182958F70282FBC
:1018C00030E03093470F2093460F5AD915C080E07F
:1018D00057D912C060ED77E089EC99E0B6DB80E083
:1018E0004FD98091480F811107C081E08093480F44
:1018F0008091460F80933D0F80E07DDA68EE73E0C3
:101900008DE49CE0A2DB81E091DF8EE893E00E9411
:101910009401CFBFCF9108954F925F926F927F92C3
:101920008F929F92AF92BF92CF92DF92EF92FF92EF
:101930000F931F93CF93DF93CDB7DEB7E4970FB626
:10194000F894DEBF0FBECDBFF89407EB14E0F801AA
:1019500081811F928F9387EF92E09F938F93CE01A7
:1019600001969F938F93A4D70F900F900F900F9095
:101970000F900F90F8018081882309F459C07801F5
:101980000F2EF1EC8F2EF4E09F2EF02D58010F2E2C
:10199000FDE2CF2EF3E0DF2EF02D8E010D5C1F4F08
:1019A000CE0101963C010F2EFCE24F2E512CF02D62
:1019B000F50180811F928F93DF92CF921F930F9337
:1019C00077D7B801C30162D70F900F900F900F9097
:1019D0000F900F90F7018281882371F0F2E0EF0EF3
:1019E000F11C8E149F0441F0F30101900020E9F7EF
:1019F000319751824082DCCFCE010196DC010D90FF
:101A00000020E9F7119725E0ECE1F3E001900D9259
:101A10002A95E1F7E7EBF4E0128213821482158233
:101A200016821782108611860E94940178940EC047
:101A3000DE0111960D900020E9F7119785E0ECE1A9
:101A4000F3E001900D928A95E1F7F0CFE4960FB69E
:101A5000F894DEBF0FBECDBFDF91CF911F910F91E4
:101A6000FF90EF90DF90CF90BF90AF909F908F90BE
:101A70007F906F905F904F900895F8948091440FFD
:101A80009091450F01969093450F8093440F2091BC
:101A9000400F213049F4893E934048F461E070E002
:101AA0008DE39DE0D2DA24C0893E934018F034DF04
:101AB00091E001C090E08091B704882371F0A7EB1A
:101AC000B4E0E1E004C0EF5F1296E53039F0129621
:101AD0008C9112978111F7CF01C0E0E0F0E0EE0F9A
:101AE000FF1FE954FB4F80913F0F8083918314DFE8
:101AF00078940895F89484E893E00E94940180E03B
:101B00000E9439058DE893E00E94940181E00E94D3
:101B1000390587E993E00E94940182E00E9439052B
:101B200081EA93E00E94940164E670E08DE49CE019
:101B30008CDA80E78DBB7894089510923C0F109258
:101B4000410F87B18FEF87B96DDB34DA5FDB0E941D
:101B500088018BEA93E00E94940181E090E09093E9
:101B6000470F8093460F87B18C6F87B98AB18AB9C6
:101B700088B1837088B910BA11BA1092420F1092CE
:101B8000450F1092440F10923E0F81E08093430F57
:101B900065DBECE5FDE08CE39FE0118210823C9672
:101BA000E817F907D1F70E944402A4DFF9D28FE7C2
:101BB00099E023DA1092400F1092450F1092440FD3
:101BC000A895B2DA0E94DA01FBCF089580914D0FFB
:101BD00090E0880F991FFC01EE0FFF1FEE0FFF1F13
:101BE000EE0FFF1FE81BF90BED5AF04F61E070E0BC
:101BF000848595852ACA08951F920F920FB60F9279
:101C000011240BB60F922F933F934F935F936F93D3
:101C10007F938F939F93AF93BF93EF93FF9394B36F
:101C200081E0892784BB8091B900887F90E0893565
:101C3000910508F04FC2FC018827EA59FF4F8F4FEA
:101C4000FCC480914D0F90E0880F991FFC01EE0FAE
:101C5000FF1FEE0FFF1FEE0FFF1FE81BF90BED5AE2
:101C6000F04F83858160838785E98093BC0032C211
:101C700080914D0F90E09C01220F331FF901EE0F70
:101C8000FF1FEE0FFF1FEE0FFF1FE21BF30BED5ABE
:101C9000F04F23852C7091F49C01220F331FF90122
:101CA000EE0FFF1FEE0FFF1FEE0FFF1FE21BF30BE8
:101CB000ED5AF04F20812160208311C09C01220F3A
:101CC000331FF901EE0FFF1FEE0FFF1FEE0FFF1F77
:101CD000E21BF30BED5AF04F20812E7F2083880FFB
:101CE000991FFC01EE0FFF1FEE0FFF1FEE0FFF1FEE
:101CF000E81BF90BED5AF04F80818093BB0085E81B
:101D00008093BC00E7C180914D0F90E09C01220FB1
:101D1000331FF901EE0FFF1FEE0FFF1FEE0FFF1F26
:101D2000E21BF30BED5AF04F23852C70283091F411
:101D30009C01220F331FF901EE0FFF1FEE0FFF1F53
:101D4000EE0FFF1FE21BF30BED5AF04F20812160D5
:101D5000208311C09C01220F331FF901EE0FFF1FDA
:101D6000EE0FFF1FEE0FFF1FE21BF30BED5AF04FBC
:101D700020812E7F2083880F991FFC01EE0FFF1F0B
:101D8000EE0FFF1FEE0FFF1FE81BF90BED5AF04F90
:101D900080818093BB0085E88093BC009BC18091CB
:101DA0004D0F90E09C01220F331FF901EE0FFF1F32
:101DB000EE0FFF1FEE0FFF1FE21BF30BED5AF04F6C
:101DC00023852C70243049F5880F991FFC01EE0FF4
:101DD000FF1FEE0FFF1FEE0FFF1FE81BF90BED5A61
:101DE000F04F8185E80FF11D82818093BB008091C7
:101DF0004D0F90E0880F991FFC01EE0FFF1FEE0FB3
:101E0000FF1FEE0FFF1FE81BF90BED5AF04F818506
:101E10008F5F818785E88093BC0080914D0F90E0B3
:101E20009C01220F331FF901EE0FFF1FEE0FFF1F62
:101E3000EE0FFF1FE21BF30BED5AF04F23852C70C2
:101E4000283009F047C1880F991FFC01EE0FFF1FD2
:101E5000EE0FFF1FEE0FFF1FE81BF90BED5AF04FBF
:101E600081818093BB0085E88093BC0033C1809161
:101E70004D0F90E0880F991FFC01EE0FFF1FEE0F32
:101E8000FF1FEE0FFF1FE81BF90BED5AF04F838584
:101E90008061838785E98093BC0098DE1BC18091B7
:101EA0004D0F90E09C01220F331FF901EE0FFF1F31
:101EB000EE0FFF1FEE0FFF1FE21BF30BED5AF04F6B
:101EC00023852C70243009F03FC09C01220F331F62
:101ED000F901EE0FFF1FEE0FFF1FEE0FFF1FE21BBA
:101EE000F30BED5AF04F21853285231305C085E9A8
:101EF0008093BC006BDE28C0880F991FFC01EE0F99
:101F0000FF1FEE0FFF1FEE0FFF1FE81BF90BED5A2F
:101F1000F04FE20FF11D82818093BB0080914D0F45
:101F200090E0880F991FFC01EE0FFF1FEE0FFF1FBF
:101F3000EE0FFF1FE81BF90BED5AF04F81858F5F05
:101F4000818785E88093BC0080914D0F90E0880FD9
:101F5000991FFC01EE0FFF1FEE0FFF1FEE0FFF1F7B
:101F6000E81BF90BED5AF04F83858C70883009F02F
:101F7000B1C085EA8093BC00ADC080914D0F90E068
:101F8000880F991FFC01EE0FFF1FEE0FFF1FEE0FD2
:101F9000FF1FE81BF90BED5AF04F838582608387A2
:101FA00085E98093BC0012DE95C080914D0F90E0D2
:101FB000880F991FFC01EE0FFF1FEE0FFF1FEE0FA2
:101FC000FF1FE81BF90BED5AF04F83858062838772
:101FD000118685EA8093BC007DC080914D0F90E012
:101FE000880F991FFC01EE0FFF1FEE0FFF1FEE0F72
:101FF000FF1FE81BF90BED5AF04F818590E0019629
:1020000020916B1030E08217930721F485E88093CC
:10201000BC0060C085EC8093BC005CC080914D0F1B
:1020200090E0880F991FFC01EE0FFF1FEE0FFF1FBE
:10203000EE0FFF1FE81BF90BED5AF04F838580610F
:10204000838785E98093BC00C1DD44C080914D0F3A
:1020500090E0880F991FFC01EE0FFF1FEE0FFF1F8E
:10206000EE0FFF1FE81BF90BED5AF04F81859091A1
:10207000BB00DF01A80FB11D12969C938F5F818773
:1020800090E0019620916B1030E08217930721F4C5
:1020900085E88093BC001EC085EC8093BC001AC00C
:1020A00080914D0F90E02091BB00880F991FFC019B
:1020B000EE0FFF1FEE0FFF1FEE0FFF1FE81BF90BC8
:1020C000ED5AF04F8185E80FF11D228385E9809359
:1020D000BC007CDDFF91EF91BF91AF919F918F91FB
:1020E0007F916F915F914F913F912F910F900BBE18
:1020F0000F900FBE0F901F901895CF92DF92EF9226
:10210000FF920F931F93CF93DF93CDB7DEB72E9738
:102110000FB6F894DEBF0FBECDBFC982DA826B87DF
:102120007C878D879E8780915E0F882371F0ECE617
:10213000FFE081E090E0382FAC01208101963E96CF
:102140002111F9CF343118F01CC040E050E0440FA9
:10215000551FFA01EE0FFF1FEE0FFF1FEE0FFF1FBF
:10216000E41BF50BED5AF04F898180838B858287C4
:1021700011868C8583878A8181838D859E8595874D
:1021800084872E960FB6F894DEBF0FBECDBFDF91C9
:10219000CF911F910F91FF90EF90DF90CF90089516
:1021A0008BB183608BB98AB18C7F8AB9E3E5FFE09C
:1021B0002BE630E185EE9DE01082128611861182B9
:1021C000958784873E96E217F307B1F780E88093FE
:1021D000B8001092B90008955058BB27AA270ED016
:1021E00048C139D130F03ED120F031F49F3F11F495
:1021F0001EF42EC10EF4E095E7FB24C1E92F4AD16D
:1022000080F3BA17620773078407950718F071F413
:102210009EF562C10EF4E0950B2EBA2FA02D0B0196
:10222000B90190010C01CA01A0011124FF27591B1B
:1022300099F0593F50F4503E68F11A16F040A22F21
:10224000232F342F4427585FF3CF46953795279592
:10225000A795F0405395C9F77EF41F16BA0B620B91
:10226000730B840BBAF09150A1F0FF0FBB1F661FD8
:10227000771F881FC2F70EC0BA0F621F731F841F1B
:1022800048F4879577956795B795F7959E3F08F041
:10229000B3CF9395880F08F09927EE0F9795879500
:1022A00008950CD0E6C0DED040F0D5D030F021F457
:1022B0005F3F19F0C7C0511110C1CAC0EBD098F3ED
:1022C0009923C9F35523B1F3951B550BBB27AA27B7
:1022D00062177307840738F09F5F5F4F220F331F29
:1022E000441FAA1FA9F333D00E2E3AF0E0E830D0F5
:1022F00091505040E695001CCAF729D0FE2F27D0F8
:10230000660F771F881FBB1F261737074807AB07C5
:10231000B0E809F0BB0B802DBF01FF2793585F4F3A
:102320002AF09E3F510568F08DC0D7C05F3FECF3A7
:10233000983EDCF3869577956795B795F7959F5FFF
:10234000C9F7880F911D9695879597F90895E1E053
:10235000660F771F881FBB1F621773078407BA07B2
:1023600020F0621B730B840BBA0BEE1F88F7E0950D
:10237000089598D088F09F5790F0B92F9927B751BA
:10238000A0F0D1F0660F771F881F991F1AF0BA9539
:10239000C9F712C0B13081F09FD0B1E008959CC060
:1023A000672F782F8827B85F39F0B93FCCF386952F
:1023B00077956795B395D9F73EF49095809570958C
:1023C00061957F4F8F4F9F4F0895E89409C097FB09
:1023D0003EF490958095709561957F4F8F4F9F4FFC
:1023E0009923A9F0F92F96E9BB279395F695879540
:1023F00077956795B795F111F8CFFAF4BB0F11F403
:1024000060FF1BC06F5F7F4F8F4F9F4F16C08823A9
:1024100011F096E911C0772321F09EE8872F762FDF
:1024200005C0662371F096E8862F70E060E02AF020
:102430009A95660F771F881FDAF7880F969587950C
:1024400097F9089597F99F6780E870E060E0089534
:102450009FEF80EC089500240A94161617061806BC
:102460000906089500240A94121613061406050698
:102470000895092E0394000C11F4882352F0BB0F29
:1024800040F4BF2B11F460FF04C06F5F7F4F8F4F8C
:102490009F4F089557FD9058440F551F59F05F3FC7
:1024A00071F04795880F97FB991F61F09F3F79F076
:1024B00087950895121613061406551FF2CF4695F8
:1024C000F1DF08C0161617061806991FF1CF86957A
:1024D0007105610508940895E894BB27662777275E
:1024E000CB0197F908950BD0C4CFB5DF28F0BADF40
:1024F00018F0952309F0A6CFABCF1124EECFCADF99
:10250000A0F3959FD1F3950F50E0551F629FF00106
:10251000729FBB27F00DB11D639FAA27F00DB11D5F
:10252000AA1F649F6627B00DA11D661F829F2227E8
:10253000B00DA11D621F739FB00DA11D621F839F6F
:10254000A00D611D221F749F3327A00D611D231F45
:10255000849F600D211D822F762F6A2F11249F5793
:1025600050408AF0E1F088234AF0EE0FFF1FBB1FB6
:10257000661F771F881F91505040A9F79E3F510555
:1025800070F060CFAACF5F3FECF3983EDCF3869506
:1025900077956795B795F795E7959F5FC1F7FE2B00
:1025A000880F911D9695879597F908952FD020F063
:1025B0009F3708F492CF01C01BC0882371F47723A2
:1025C00021F09850872B762F07C0662311F49927A6
:1025D0000DC09051862B70E060E02AF09A95660F4E
:1025E000771F881FDAF7880F9695879597F90895D2
:1025F0009F3F31F0915020F4879577956795B79577
:10260000880F911D9695879597F908954BDFA0F057
:10261000BEE7B91788F4BB279F3860F41616B11DC2
:10262000672F782F8827985FF7CF869577956795DE
:10263000B11D93959639C8F30895EE0FFF1F881FBB
:102640008BBF0790F691E02D19940F931F93CF93B2
:10265000DF938230910510F482E090E0E0916F10FA
:10266000F091701020E030E0A0E0B0E0309719F178
:10267000408151810281138148175907C8F084179E
:10268000950769F4109731F012960C9312971396F0
:102690001C9327C000936F101093701022C0211557
:1026A000310519F04217530718F49A01BD01EF01E3
:1026B000DF01F801DBCF21153105F9F0281B390BBB
:1026C0002430310580F48A819B816115710521F0E8
:1026D000FB019383828304C09093701080936F10EA
:1026E000FE01329644C0FE01E20FF31F81939193E5
:1026F00022503109398328833AC020916D103091DE
:102700006E10232B41F4209102023091030230938A
:102710006E1020936D10209100023091010221155E
:10272000310541F42DB73EB74091040250910502A6
:10273000241B350BE0916D10F0916E10E217F3073A
:10274000A0F42E1B3F0B2817390778F0AC014E5F21
:102750005F4F2417350748F04E0F5F1F50936E10E0
:1027600040936D108193919302C0E0E0F0E0CF01BF
:10277000DF91CF911F910F910895CF93DF93009731
:1027800009F481C0FC01329713821282A0916F106C
:10279000B0917010109781F420813181820F931FC6
:1027A00020916D1030916E102817390751F5F09374
:1027B0006E10E0936D1067C0ED0120E030E0CE17A1
:1027C000DF0740F44A815B819E0141155105F1F01C
:1027D000EA01F5CFD383C28340815181840F951FD5
:1027E000C817D90759F488819981840F951F0296DB
:1027F000918380838A819B81938382832115310514
:1028000029F4F0937010E0936F103DC0E901FB8351
:10281000EA8349915991C40FD51FEC17FD0761F464
:1028200080819181840F951F0296E90199838883A5
:10283000828193819B838A83E0E0F0E012968D9100
:102840009C911397009719F0FD01DC01F7CF8D9152
:102850009C9111979D012E5F3F4F820F931F2091F6
:102860006D1030916E102817390769F4309729F4EC
:102870001092701010926F1002C013821282B093E7
:102880006E10A0936D10DF91CF910895FB01DC01D4
:102890000D900020E9F7119701900D920020E1F7CB
:1028A0000895FB01DC0101900D920020E1F70895ED
:1028B0000F931F93CF93DF93CDB7DEB72E970FB64D
:1028C000F894DEBF0FBECDBF0E891F8986E08C83D2
:1028D0001A8309838FEF9FE79E838D83AE01465E47
:1028E0005F4F688D798DCE01019610D0EF81F8850C
:1028F000E00FF11F10822E960FB6F894DEBF0FBEC8
:10290000CDBFDF91CF911F910F9108952F923F92EC
:102910004F925F926F927F928F929F92AF92BF92EF
:10292000CF92DF92EF92FF920F931F93CF93DF939B
:10293000CDB7DEB72B970FB6F894DEBF0FBECDBF75
:102940006C017B018A01FC0117821682838181FF61
:10295000BFC1CE0101963C01F6019381F70193FDC1
:10296000859193FF81917F01882309F4ADC1853260
:1029700039F493FD859193FF81917F01853221F494
:10298000B60190E0D6D1E8CF912C212C312CFFE17B
:10299000F315D8F08B3279F038F4803279F0833245
:1029A000A1F4232D20611DC08D3261F0803369F4C4
:1029B000232D216016C0832D8260382EE32DE46024
:1029C0003E2E2AC0F32DF8601DC037FC2DC020ED2F
:1029D000280F2A3040F08E32B9F436FC75C1232D11
:1029E0002064322E19C036FE06C08AE0989E200D63
:1029F0001124922E11C0EAE02E9E200D1124222EC9
:102A0000F32DF0623F2E08C08C3621F4832D8068B0
:102A1000382E02C0883641F4F70193FD859193FF6B
:102A200081917F018111B3CF982F9F7D9554933071
:102A300028F40C5F1F4F9FE399830DC0833631F05C
:102A4000833771F0833509F055C020C0F8018081CB
:102A500089830E5F1F4F88248394912C530112C0E9
:102A60002801F2E04F0E511CF801A080B18036FE23
:102A700003C0692D70E002C06FEF7FEFC5014ED13A
:102A80004C018201F32DFF773F2E15C0280122E073
:102A9000420E511CF801A080B18036FE03C0692DA2
:102AA00070E002C06FEF7FEFC5012DD14C01F32D17
:102AB000F0683F2E820133FC19C0822D90E0881609
:102AC0009906A0F4B60180E290E033D12A94F5CFC4
:102AD000F50137FC859137FE81915F01B60190E0E9
:102AE00028D121102A9421E0821A9108811491049E
:102AF00079F7E1C0843611F0893639F5F80137FEEF
:102B000007C060817181828193810C5F1F4F08C073
:102B100060817181072E000C880B990B0E5F1F4F8F
:102B2000F32DFF763F2E97FF09C090958095709505
:102B300061957F4F8F4F9F4FF0683F2E2AE030E026
:102B4000A30133D1882E861844C0853731F4232D54
:102B50002F7EB22E2AE030E025C0932D997FB92E2A
:102B60008F36C1F018F4883579F0AEC0803719F08F
:102B7000883721F0A9C0E92FE061BE2EB4FE0DC058
:102B8000FB2DF460BF2E09C034FE0AC0292F266039
:102B9000B22E06C028E030E005C020E130E002C0DF
:102BA00020E132E0F801B7FE07C0608171818281C7
:102BB00093810C5F1F4F06C06081718180E090E0BF
:102BC0000E5F1F4FA301F1D0882E8618FB2DFF77D3
:102BD0003F2E36FE0DC0232D2E7FA22E891458F4D1
:102BE00034FE0BC032FC09C0832D8E7EA82E05C09A
:102BF000B82CA32C03C0B82C01C0B92CA4FE0FC064
:102C0000FE01E80DF11D8081803321F49A2D997E1B
:102C1000A92E09C0A2FE06C0B394B39404C08A2DA5
:102C2000867809F0B394A3FC10C0A0FE06C0B214CD
:102C300080F4280C922C9B180DC0B21458F4B601E5
:102C400080E290E076D0B394F8CFB21418F42B1849
:102C500002C0982C212CA4FE0FC0B60180E390E0A6
:102C600068D0A2FE16C0A1FC03C088E790E002C0B5
:102C700088E590E0B6010CC08A2D867851F0A1FE5F
:102C800002C08BE201C080E2A7FC8DE2B60190E0B9
:102C900050D0891430F4B60180E390E04AD09A9481
:102CA000F8CF8A94F301E80DF11D8081B60190E020
:102CB00040D08110F6CF222009F44ECEB60180E23A
:102CC00090E037D02A94F7CFF6018681978102C031
:102CD0008FEF9FEF2B960FB6F894DEBF0FBECDBFE0
:102CE000DF91CF911F910F91FF90EF90DF90CF90E8
:102CF000BF90AF909F908F907F906F905F904F901C
:102D00003F902F900895FC01059061507040011094
:102D1000D8F7809590958E0F9F1F0895FC01615004
:102D2000704001900110D8F7809590958E0F9F1FED
:102D300008950F931F93CF93DF93FB01238121FD10
:102D400003C08FEF9FEF2CC022FF16C04681578132
:102D5000248135814217530744F4A081B1819D013C
:102D60002F5F3F4F318320838C93268137812F5FE4
:102D70003F4F3783268314C08B01EC01FB01008495
:102D8000F185E02D1995892BE1F6D80116968D91E4
:102D90009C911797019617969C938E931697CE0148
:102DA000DF91CF911F910F910895FA01AA27283042
:102DB00051F1203181F1E8946F936E7F6E5F7F4F08
:102DC0008F4F9F4FAF4FB1E03ED0B4E03CD0670F84
:102DD000781F891F9A1FA11D680F791F8A1F911DD7
:102DE000A11D6A0F711D811D911DA11D20D009F427
:102DF00068943F912AE0269F11243019305D319369
:102E0000DEF6CF010895462F4770405D4193B3E051
:102E10000FD0C9F7F6CF462F4F70405D4A3318F0F8
:102E2000495D31FD4052419302D0A9F7EACFB4E0A9
:102E3000A6959795879577956795BA95C9F7009761
:102E40006105710508959B01AC010A2E0694579502
:102E5000479537952795BA95C9F7620F731F841F59
:0A2E6000951FA01D0895F894FFCF00
:102E6A0000007110200001003005000068410AD7F7
:102E7A00233C52B8BA4120202020202020202020A4
:102E8A0020200020416E64726F5F4361722020200F
:102E9A008000000000000000800000000000000028
:102EAA00202020202020202020202020002500046F
:102EBA0025000703F00625000525000703F006256F
:102ECA00000625000703F0060700000000000600C0
:102EDA000000000049443A2025642C205061723ACF
:102EEA00202573004176673A202533642E25303138
:102EFA0064204C004D6F6D3A2533642E25303164C1
:102F0A00204C0052656D3A20253464204B6D002018
:102F1A002533642E25303264204B6D2F68005250C1
:102F2A004D3A20202534642020004D6F6D3A20311F
:102F3A002E30204C2F68002121214D495241434C0B
:102F4A004521212100627574746F6E3A25640072FE
:102F5A00656C65617365007B226964223A312C20B5
:102F6A00226475726174696F6E223A25642C20227C
:102F7A00627574746F6E73223A205B00205D207D47
:102F8A00005445433A202564005245433A202564BB
:102F9A000045464C473A2025640043414E494E5469
:102FAA00453A2025640043414E494E54463A20256D
:102FBA00640043414E4354524C3A20256400434135
:102FCA004E535441543A20256400424650435452C9
:102FDA004C3A2025640054585254534354524C3AA4
:102FEA0020256400302D2D2D2D2D2D2D00312D2D38
:102FFA002D2D2D2D2D2D00322D2D2D2D2D2D2D2D1F
:10300A0000332D2D2D2D2D2D2D2D007374617274ED
:02301A000000B4
:00000001FF
