:1000000065C000000C943B080C948F0880C0000071
:100010007EC000007CC000007AC0000078C00000F4
:1000200076C0000074C0000072C0000070C0000004
:100030006EC0000064C700006AC0000068C0000015
:1000400066C0000064C0000062C0000060C0000024
:100050005EC000005CC000005AC0000058C0000034
:100060000C94310854C0000052C0000050C0000081
:100070004EC000006BC700004AC0000048C000002E
:1000800046C0000044C0000042C0000040C0000064
:10009000C1C7000071C7000096C7000038C000004B
:1000A00036C0000034C0000032C0000030C0000084
:1000B0002EC000002CC000002AC0000028C0000094
:1000C00026C0000024C0000022C0000011241FBE72
:1000D000CFEFD1E2DEBFCDBF00E00CBF12E0A0E069
:1000E000B2E0E2E0FAE100E00BBF02C007900D923F
:1000F000A03BB107D9F72EE0A0EBB2E001C01D9202
:10010000A437B207E1F70E94E3080C94FF0C78CF04
:100110008091B202E091B302F091B402E80FF11DB8
:100120008081882369F08093CE008091B2028F5F36
:100130008093B202E9ECF0E08081806480830895CE
:100140008AE08093CE00E9ECF0E080818F7D8083AF
:100150000895CF93DF93E9ECF0E080818F7B80837B
:10016000C3EBD2E0888199810E9497092A813B8163
:100170002115310541F181E090E041E0880F991FA0
:10018000FC01EF54FD4F318320834F5F842F90E0BB
:10019000FC01EE0FFF1FED54FD4F20813181211531
:1001A000310561F7880F991FFC01EF54FD4F118253
:1001B0001082423060F01092B202E9ECF0E08081EF
:1001C0008062808304C01092B4021092B302DF9167
:1001D000CF9108958091CE008D3009F43FC0909169
:1001E000B00291110AC01092B10280931F041092C4
:1001F000C90381E08093B00208958A3089F0E091CC
:10020000B102E53468F4AE2FB0E0A753BC4F8C9335
:10021000EF5FE093B102F0E0E753FC4F10820895E6
:100220001092B00220917B0C2E31C1F030E0F90128
:10023000E75DFB4F80911F04808346E4429FC0012D
:10024000439F900D112469EC73E0895B9B4F0E94E2
:100250002F0AEBE7FCE080818F5F80830895E3EB5A
:10026000F2E08FE393E011921192E817F907D9F7C2
:1002700010927B0C0895FF920F931F93CF93DF93FF
:100280008C01FFB6F894FC0101900020E9F7CF0142
:10029000801B910BB7D7EC01B8010E942F0A809107
:1002A000B3029091B402892B81F090E09F5F292FD7
:1002B00030E0F901EE0FFF1FED54FD4F40815181F9
:1002C000452BA1F7963450F402C020E030E0220F15
:1002D000331FF901ED54FD4FD183C0838091C900D4
:1002E00085FD07C0E9ECF0E0808180628083109298
:1002F000B202FFBEDF91CF911F910F91FF90089541
:10030000DF92EF92FF920F931F93CF93DF93CDB7BE
:10031000DEB7E2970FB6F894DEBF0FBECDBF809177
:100320007B0C882309F448C0DFB6F89487E494E096
:100330009F938F93809129041F928F9384E592E07D
:100340009F938F938E010F5F1F4F1F930F930E94F8
:10035000360AC80190DFEBE7FCE0808181508083A2
:100360000FB6F894DEBF0FBECDBF882321F110E099
:1003700006E47F01212F30E0C9010196FC01E75D11
:10038000FB4F4081F901E75DFB4F4083089FB001BF
:10039000099F700D1124695B7B4F029FC001039F71
:1003A000900D1124895B9B4F0E942F0A1F5FF7015C
:1003B00080811817F8F2DFBEE2960FB6F894DEBF20
:1003C0000FBECDBFDF91CF911F910F91FF90EF90A6
:1003D000DF90089584B1876084B985B1897F85B93C
:1003E00084B1806384B985B1806385B980E58CBDB3
:1003F00081E08DBD08958EBD0DB407FEFDCF8EB595
:1004000008950F931F93CF93DF9390E0EC01CC0FEF
:10041000DD1FCC0FDD1FCC0FDD1F8C0F9D1FEC01EE
:10042000CE5BDD4FE881F981908101E010E0980119
:100430000A8002C0220F331F0A94E2F7822F8095B0
:100440008923808380ECD7DFE881F98180810A806D
:1004500002C0000F111F0A94E2F7082B0083DF91FE
:10046000CF911F910F9108950F931F93CF93DF9317
:100470009FB7F89490E0EC01CC0FDD1FCC0FDD1F8F
:10048000CC0FDD1F8C0F9D1FEC01CE5BDD4FE88193
:10049000F981908101E010E098010A8002C0220FEA
:1004A000331F0A94E2F7822F80958923808380EAA4
:1004B000A2DF8FEFA0DFE881F98190810A8002C07E
:1004C000000F111F0A94E2F7092B0083DF91CF91EF
:1004D0001F910F91089590E0FC01EE0FFF1FEE0FAA
:1004E000FF1FEE0FFF1F8E0F9F1FFC01EE5BFD4FE6
:1004F000A081B1812C9181E090E0028002C0880F40
:10050000991F0A94E2F7809582238C93089590E0D6
:10051000FC01EE0FFF1FEE0FFF1FEE0FFF1F8E0FF0
:100520009F1FFC01EE5BFD4FA081B1812C9181E00A
:1005300090E0028002C0880F991F0A94E2F7822B94
:100540008C930895CF92DF92EF92FF920F931F93B7
:10055000CF93DF937C01D62E8FB7F894862F84DF5C
:1005600082FF08C084FF08C086FD52C06894CC2476
:10057000C2F805C0C12C03C06894CC24C1F88D2DED
:10058000AADF8C2D806437DFF701808191819695F9
:10059000879596958795969587952DDFF7018081AC
:1005A0008295880F807E27DF80E025DF80E023DFD3
:1005B000F7011381193008F018E0F70182818823D0
:1005C00021F0812F806417DF12C0812F14DF1123E7
:1005D00071F0E70124961150012F10E00B5F1F4FBF
:1005E0000E0D1F1D899107DFC017D107D9F78D2D7B
:1005F0008EDF00008D2D6FDFC11003C081E8FBDEB0
:1006000003C08C2D8068F7DE8D2D81DF81E001C075
:1006100080E0DF91CF911F910F91FF90EF90DF90DD
:10062000CF900895EF92FF920F931F93CF93DF9394
:10063000E82EF62E50E0EA01CC0FDD1FCC0FDD1FB7
:10064000CC0FDD1F4C0F5D1FEA01CE5BDD4FE88153
:10065000F981208101E010E0A8010A8002C0440F66
:10066000551F0A94E2F7942F90959223908382E08D
:10067000C2DE8E2DC0DE8F2DBEDEE881F981808145
:100680000A8002C0000F111F0A94E2F7082B0083B2
:10069000DF91CF911F910F91FF90EF900895EF920E
:1006A000FF920F931F93CF93DF93FFB6F89490E0E0
:1006B000EC01CC0FDD1FCC0FDD1FCC0FDD1F8C0F2D
:1006C0009D1FEC01CE5BDD4FE881F981908101E057
:1006D00010E098010A8002C0220F331F0A94E2F74B
:1006E000822F80958923808380EB85DE8FEF83DEE8
:1006F000E82E8FEF80DEE881F981808198010A8001
:1007000002C0220F331F0A94E2F7282B2083FFBE7A
:100710008E2DDF91CF911F910F91FF90EF90089553
:10072000DF92EF92FF920F931F93CF93DF93D82E18
:10073000E62EF42E30E0E901CC0FDD1FCC0FDD1FDB
:10074000CC0FDD1F2C0F3D1FE901CE5BDD4FA881D3
:10075000B9812C9101E010E0F8010A8002C0EE0F8F
:10076000FF1F0A94E2F79E2F909592239C9385E0B9
:1007700042DE8D2D40DE8E2D3EDE8F2D3CDEE8816B
:10078000F9812081C8010A8002C0880F991F0A944C
:10079000E2F7822B8083DF91CF911F910F91FF9021
:1007A000EF90DF9008950F931F93CF93DF93C82F9F
:1007B000DFB7F89426DE0C2F10E0C801880F991FD0
:1007C000880F991F880F991F080F191F0E5B1D4F67
:1007D0004C2FF80166818AE225DF4C2FF8016781F2
:1007E00089E220DF4C2FF801608588E21BDF4C2F67
:1007F00063E08BE217DF4C2F60E680E613DF4C2FBF
:1008000060E680E70FDF4C2F60E080E20BDF4C2FCB
:1008100060E081E207DF4C2F60E082E203DF4C2FD3
:1008200060E083E2FFDE4C2F60E084E2FBDE4C2FD1
:1008300060E085E2F7DE4C2F60E086E2F3DE4C2FCD
:1008400060E087E2EFDE4C2F60E08CE0EBDE4C2FC7
:1008500060E08DE0E7DE2C2F40E063EE8FE060DFAC
:10086000DFBFDF91CF911F910F91089580932804EE
:100870000895FF920F931F93CF93DF93CDB7DEB709
:100880002C970FB6F894DEBF0FBECDBFF82E8FE8C1
:1008900092E09A8389831B8288E08C8380E88D8331
:1008A0001E821F82188619861A861B861C866F2D4B
:1008B000CE01019647DE90912804913059F0923094
:1008C00061F0933069F0943071F0953071F406E086
:1008D00012E00BC006E312E008C00AE212E005C015
:1008E0000EE112E002C002E112E080E992E09A8398
:1008F000898380EC8D83F80180818E8381818F8351
:10090000828188878381898784818A8785818B8793
:1009100086818C876F2DCE01019614DE81E992E0ED
:100920009A83898387E88D83F80187818E83808508
:100930008F83818588878285898783858A87848557
:100940008B8780E28C876F2DCE010196FBDD2C9684
:100950000FB6F894DEBF0FBECDBFDF91CF911F91D0
:100960000F91FF900895BF92CF92DF92EF92FF9286
:100970000F931F93CF93DF936C01062F862F8FDE8B
:10098000182F282F2074B22E86FF05C0802FA3DDDC
:1009900080E931DD07C088230CF04FC0802F9BDD3C
:1009A00084E929DD8FEF27DDE8E08E9FC001112467
:1009B000F601918380838FEF1EDD282F22952695E7
:1009C0002770F60180819181822B918380838FEF44
:1009D00012DD8FEF10DD8FEF0EDD8F70F601838358
:1009E000882389F0E60124969FEF980FE92EF12CD9
:1009F000F5E0EF0EF11CEC0CFD1C8FEFFCDC899395
:100A0000CE15DF05D1F7802F82DD13FF04C081E012
:100A1000F601828302C0F6011282BB2031F0202F42
:100A200040E061E08CE27CDE05C0202F40E062E027
:100A30008CE276DE812F877001C08FEFDF91CF913E
:100A40001F910F91FF90EF90DF90CF90BF9008958E
:100A5000089580E090E028E235E0FC01EE0FFF1FF2
:100A6000E158FC4F31832083019685319105A9F728
:100A700080E090E028E235E0FC01EE0FFF1FEE0F72
:100A8000FF1FE15CFC4F31832083138212820196A9
:100A90008031910589F708950FB607FE0CC0F894D0
:100AA000A1E00AC02F5F3F4F2531310539F4AA2359
:100AB000D1F078940895A0E020E030E0B901F90188
:100AC000EE0FFF1FE158FC4F4081518148525540C5
:100AD00049F7660F771FFB01E158FC4F9183808334
:100AE000AA2309F078940895CF930FB607FE60C04B
:100AF000F89420913F03309140032817390709F4F7
:100B00004DC0C1E015C0F901EE0FFF1FEE0FFF1F32
:100B1000E15CFC4F408151812F5F3F4F48175907DF
:100B200051F473836283CC2309F44BC0789449C099
:100B300021E030E0E8CF2031310529F720913F0353
:100B4000309140032852354081F021E030E0D90156
:100B5000F901EE0FFF1FEE0FFF1FE15CFC4F40811C
:100B6000518148525540A1F402C0A0E0B0E0AA0F64
:100B7000BB1FAA0FBB1FA15CBC4F11969C938E9309
:100B800013967C936E931297CC23D9F0789419C066
:100B90002F5F3F4F20313105D1F613C070934203D0
:100BA00060934103C3CF709342036093410309C034
:100BB00020913F033091400328173907A1F3C0E08B
:100BC000B7CFCF910895CF93DF93F894E0917F034F
:100BD000F091800385E0E832F80711F478941DC0A5
:100BE00080E090E0DC010196EC01CC0FDD1FC158E4
:100BF000DC4F28813981AA0FBB1FA158BC4F119629
:100C00003C932E938431910569F788E295E09093A7
:100C1000A8038093A70378941995DF91CF91089545
:100C2000EF92FF920F931F93CF93DF93E12CF12C60
:100C300008E215E0F701D701AA0FBB1FAA0FBB1FDF
:100C4000A15CBC4F8D919C918852954001F1D701D8
:100C5000AA0FBB1FAA0FBB1FA15CBC4F12968D91A0
:100C60009C911397019739F0FD018281938101973F
:100C7000938382830CC0EE0FFF1FEE0FFF1FEF0167
:100C8000C15CDC4F8881998107DF198308838FEF6E
:100C9000E81AF80A20E1E216F10461F6DF91CF913B
:100CA0001F910F91FF90EF9008958BE08093B1001A
:100CB0001092B2008DE78093B30082E080937000C1
:100CC000789408951092CD0083E38093CC00109225
:100CD000C80088E98093C90086E88093CA008DB176
:100CE00088638DB98AB11AB88BB183608BB98EEBEA
:100CF00080937C0088E880937A0008958F929F9279
:100D0000AF92BF92CF92DF92EF92FF920F931F9319
:100D1000CF93DF93CDB7DEB7C654D1090FB6F894A1
:100D2000DEBF0FBECDBF9EB188E089278EB9F89493
:100D30000CE81CE00F2EF4E6AF2EF2E0BF2EF02DF3
:100D4000CE0101967C01912C8FC0F80123851F9262
:100D50002F9322851F922F9321851F922F932085F9
:100D60001F922F9327811F922F9326811F922F93DB
:100D700025811F922F9324811F922F9323811F92ED
:100D80002F939F938F93BF92AF92FF92EF926ED368
:100D9000C70171DA0FB6F894DEBF0FBECDBFF80100
:100DA00080819181892B09F45FC0892C8394282D3F
:100DB00030E0C9010197A901440F551FFA01E20F64
:100DC000F31FEE0FFF1FEE0FFF1FE457F34FC0801E
:100DD000D180BC01660F771FDB01A80FB91FAA0FD6
:100DE000BB1FAA0FBB1FA457B34F1196DC92CE9224
:100DF000D3801396DC921397D2801296DC921297CE
:100E0000D4801496DC921497D5801596DC921597B1
:100E1000D6801696DC921697D7801796DC92179795
:100E2000D0841896DC921897D1841996DC92199781
:100E3000D2841A96DC92A385FB01E80FF91FEE0F0E
:100E4000FF1FEE0FFF1FE457F34FA387FA01E20FD6
:100E5000F31FEE0FFF1FEE0FFF1FE457F34F8081CC
:100E60009181892B09F0A2CFF801808191810097AF
:100E700009F06BCF7894CA5BDF4F0FB6F894DEBFF2
:100E80000FBECDBFDF91CF911F910F91FF90EF90DB
:100E9000DF90CF90BF90AF909F908F90089560E1CA
:100EA00077E28FE597E020DE80E07DDC81E07BDC8F
:100EB00086EA92E0E0D98DB383608DBB089580917E
:100EC0006C0ED4DC80916C0E90916D0E0196863084
:100ED00091052CF490936D0E80936C0E06C081E00A
:100EE00090E090936D0E80936C0E80916C0E8170EB
:100EF000C0DC66E875E18FE597E0F6CD08951F92B6
:100F00000F920FB60F9211240BB60F922F933F93AF
:100F10004F935F936F937F938F939F93AF93BF9301
:100F2000EF93FF937DDEFF91EF91BF91AF919F9182
:100F30008F917F916F915F914F913F912F910F9082
:100F40000BBE0F900FBE0F901F9018951F920F921F
:100F50000FB60F9211248F939F93809178009091F8
:100F6000790090936F0E80936E0E9F918F910F90EA
:100F70000FBE0F901F9018951F920F920FB60F92F1
:100F800011240BB60F922F933F934F935F936F9360
:100F90007F938F939F93AF93BF93EF93FF93B8D8B3
:100FA000FF91EF91BF91AF919F918F917F916F9141
:100FB0005F914F913F912F910F900BBE0F900FBEFD
:100FC0000F901F9018951F920F920FB60F92112439
:100FD0000BB60F922F933F934F935F936F937F9333
:100FE0008F939F93AF93BF93EF93FF93B2D8FF91EB
:100FF000EF91BF91AF919F918F917F916F915F9191
:101000004F913F912F910F900BBE0F900FBE0F90FD
:101010001F9018951F920F920FB60F9211240BB6C6
:101020000F922F933F934F935F936F937F938F9381
:101030009F93AF93BF93EF93FF93CCD8FF91EF9122
:10104000BF91AF919F918F917F916F915F914F91E0
:101050003F912F910F900BBE0F900FBE0F901F90DE
:1010600018951F920F920FB60F9211240F900FBE7A
:101070000F901F9018951F920F920FB60F92112488
:101080000BB60F922F933F934F935F936F937F9382
:101090008F939F93AF93BF93EF93FF939EB180E1A4
:1010A00089278EB980918C0C90918D0C892B81F0C1
:1010B000E8E9FCE021E030E0C90140815181452BA5
:1010C00021F02F5F3F4F3C96F7CF283218F014C025
:1010D00080E090E09C01220F331F820F931F880F46
:1010E000991F880F991F60E08457934F3CDC64E69A
:1010F00070E08EE796E0F8DCFF91EF91BF91AF9141
:101100009F918F917F916F915F914F913F912F911F
:101110000F900BBE0F900FBE0F901F9018951F924F
:101120000F920FB60F9211240BB60F922F933F938D
:101130004F935F936F937F938F939F93AF93BF93DF
:10114000EF93FF939EB180E189278EB980918C0C3B
:1011500090918D0C892B81F0E8E9FCE021E030E0F2
:10116000C90140815181452B21F02F5F3F4F3C96B3
:10117000F7CF283218F014C080E090E09C01220FD5
:10118000331F820F931F880F991F880F991F61E0EB
:101190008457934FE8DB64E670E08EE796E0A4DCCA
:1011A000FF91EF91BF91AF919F918F917F916F913F
:1011B0005F914F913F912F910F900BBE0F900FBEFB
:1011C0000F901F9018957EDD44DC6FDD48D802D962
:1011D00081E090E090936D0E80936C0EECE8FCE063
:1011E0008CE69EE0118210823C96E817F907D1F751
:1011F0008EE796E051DC8FE497E04EDCA895E3DCC7
:101200007FD8FCCFCF93DF938230910510F482E03A
:1012100090E0E091720EF091730E20E030E0C0E0BB
:10122000D0E0309711F14081518148175907C0F043
:101230004817590761F482819381209719F09B83A5
:101240008A832BC09093730E8093720E26C0211553
:10125000310519F04217530718F49A01BE01DF0156
:10126000EF010280F381E02DDCCF2115310509F17A
:10127000281B390B2430310590F412968D919C91E6
:1012800013976115710521F0FB019383828304C0DC
:101290009093730E8093720EFD01329644C0FD014F
:1012A000E20FF31F81939193225031092D933C93C8
:1012B0003AC02091700E3091710E232B41F4209191
:1012C0000202309103023093710E2093700E209130
:1012D0000002309101022115310541F42DB73EB7CE
:1012E0004091040250910502241B350BE091700ED1
:1012F000F091710EE217F307A0F42E1B3F0B281795
:10130000390778F0AC014E5F5F4F2417350748F07E
:101310004E0F5F1F5093710E4093700E8193919307
:1013200002C0E0E0F0E0CF01DF91CF9108950F938C
:101330001F93CF93DF93009709F48CC0FC01329781
:10134000138212820091720E1091730E0115110515
:1013500081F420813181820F931F2091700E309192
:10136000710E2817390779F5F093710EE093700E1E
:1013700071C0D80140E050E0AE17BF0750F412969C
:101380002D913C911397AD012115310509F1D9013A
:10139000F3CF9D01DA013383228360817181860F4F
:1013A000971F8217930769F4EC0128813981260F72
:1013B000371F2E5F3F4F318320838A819B81938328
:1013C0008283452B29F4F093730EE093720E42C092
:1013D0001396FC93EE931297ED01499159919E015A
:1013E000240F351FE217F30771F480819181840F78
:1013F000951F029611969C938E93828193811396EA
:101400009C938E931297E0E0F0E0D80112968D91B4
:101410009C911397009719F0F8018C01F6CF8D91EC
:101420009C9198012E5F3F4F820F931F2091700E69
:101430003091710E2817390769F4309729F410920A
:10144000730E1092720E02C0138212821093710EEC
:101450000093700EDF91CF911F910F910895FB01C2
:10146000DC0101900D920020E1F708950F931F9386
:10147000CF93DF93CDB7DEB72E970FB6F894DEBFCC
:101480000FBECDBF0E891F8986E08C831A83098326
:101490008FEF9FE79E838D83AE01465E5F4F688D21
:1014A000798DCE01019611D02F813885F801E20F98
:1014B000F31F10822E960FB6F894DEBF0FBECDBF7D
:1014C000DF91CF911F910F9108952F923F924F92EC
:1014D0005F926F927F928F929F92AF92BF92CF92C4
:1014E000DF92EF92FF920F931F93CF93DF93CDB7CD
:1014F000DEB72C970FB6F894DEBF0FBECDBF7C01D0
:101500006B018A01FC0117821682838181FFB0C1C1
:10151000CE0101964C01F7019381F60193FD85916F
:1015200093FF81916F01882309F49EC1853239F4BC
:1015300093FD859193FF81916F01853221F4B7016D
:1015400090E0C7D1E8CF512C312C20E02032A0F41C
:101550008B3269F030F4803259F0833269F42061C3
:101560002CC08D3239F0803339F4216026C02260DE
:10157000246023C0286021C027FD27C030ED380F2C
:101580003A3078F426FF06C0FAE05F9E300D112451
:10159000532E13C08AE0389E300D1124332E206262
:1015A0000CC08E3221F426FD5FC1206406C08C364B
:1015B00011F4206802C0883641F4F60193FD85914C
:1015C00093FF81916F018111C1CF982F9F7D955419
:1015D000933028F40C5F1F4FFFE3F9830DC083366F
:1015E00031F0833771F0833509F057C021C0F8011D
:1015F000808189830E5F1F4F44244394512C5401F2
:1016000014C03801F2E06F0E711CF801A080B180A7
:1016100026FF03C0652D70E002C06FEF7FEFC501AC
:101620002C874CD12C0183012C852F77222E16C0BC
:101630003801F2E06F0E711CF801A080B18026FF26
:1016400003C0652D70E002C06FEF7FEFC5012C87EE
:101650002AD12C012C852068222E830123FC19C05D
:10166000832D90E048165906A0F4B70180E290E07F
:1016700030D13A94F5CFF50127FC859127FE819171
:101680005F01B70190E025D131103A94F1E04F1A93
:1016900051084114510479F7DEC0843611F08936BF
:1016A00031F5F80127FF07C0608171818281938144
:1016B0000C5F1F4F08C060817181072E000C880BE2
:1016C000990B0E5F1F4F2F76722E97FF09C09095D2
:1016D0008095709561957F4F8F4F9F4F2068722E38
:1016E0002AE030E0A4012DD1A82EA81843C08537E8
:1016F00029F42F7EB22E2AE030E025C0F22FF97FA8
:10170000BF2E8F36C1F018F4883579F0ADC0803720
:1017100019F0883721F0A8C02F2F2061B22EB4FE17
:101720000DC08B2D8460B82E09C024FF0AC09F2FE6
:101730009660B92E06C028E030E005C020E130E018
:1017400002C020E132E0F801B7FE07C0608171817C
:10175000828193810C5F1F4F06C06081718180E0A0
:1017600090E00E5F1F4FA401ECD0A82EA818FB2D0F
:10177000FF777F2E76FE0BC0372D3E7FA51450F4E9
:1017800074FE0AC072FC08C0372D3E7E05C0BA2C1C
:10179000372D03C0BA2C01C0B52C34FF0DC0FE019B
:1017A000EA0DF11D8081803311F4397E09C032FFCA
:1017B00006C0B394B39404C0832F867809F0B39421
:1017C00033FD12C030FF06C05A2CB31418F4530C6A
:1017D0005B18B32CB31460F4B70180E290E03C874F
:1017E00078D0B3943C85F6CFB31410F43B1801C005
:1017F000312C34FF11C0B70180E390E03C8769D001
:101800003C8532FF16C031FD03C088E790E002C07E
:1018100088E590E0B7010CC0832F867851F031FF46
:1018200002C08BE201C080E237FD8DE2B70190E09B
:1018300050D0A51430F4B70180E390E04AD05A9418
:10184000F8CFAA94F401EA0DF11D8081B70190E070
:1018500040D0A110F6CF332009F45DCEB70180E26D
:1018600090E037D03A94F7CFF7018681978102C094
:101870008FEF9FEF2C960FB6F894DEBF0FBECDBF53
:10188000DF91CF911F910F91FF90EF90DF90CF905C
:10189000BF90AF909F908F907F906F905F904F9090
:1018A0003F902F900895FC01059061507040011009
:1018B000D8F7809590958E0F9F1F0895FC01615079
:1018C000704001900110D8F7809590958E0F9F1F62
:1018D00008950F931F93CF93DF93FB01238121FD85
:1018E00003C08FEF9FEF28C022FF16C046815781AB
:1018F000248135814217530744F4A081B1819D01B1
:101900002F5F3F4F318320838C93268137812F5F58
:101910003F4F3783268310C0EB01092F182F008417
:10192000F185E02D1995892BE1F68E819F81019635
:101930009F838E83812F902FDF91CF911F910F91E5
:101940000895FA01AA27283051F1203181F1E89455
:101950006F936E7F6E5F7F4F8F4F9F4FAF4FB1E0A2
:101960003ED0B4E03CD0670F781F891F9A1FA11D9D
:10197000680F791F8A1F911DA11D6A0F711D811D9E
:10198000911DA11D20D009F468943F912AE0269F63
:1019900011243019305D3193DEF6CF010895462FC2
:1019A0004770405D4193B3E00FD0C9F7F6CF462FA3
:1019B0004F70405D4A3318F0495D31FD405241930C
:1019C00002D0A9F7EACFB4E0A695979587957795C9
:1019D0006795BA95C9F700976105710508959B0150
:1019E000AC010A2E06945795479537952795BA95D9
:1019F000C9F7620F731F841F951FA01D0895F894E7
:021A0000FFCF16
:101A02000000740E200054455354204D4553534159
:101A1200474520203132302E30204B6D2F685265E1
:101A22006D3A2020363030204B6D4D6F6D3A2032AA
:101A3200302E30204C204176673A2032302E302032
:101A42004C2025000425000303F00625000525008F
:101A52000303F00649443A2025642C205061723A6F
:101A6200202573007B2241223A222558222C224231
:101A7200223A222558222C2243223A5B222558223E
:101A82002C222558222C222558222C222558222C61
:101A9200222558222C222558222C222558222C225B
:101AA2002558225D7D002D2D2D2D2D2D2D2D000053
:00000001FF
