S00C0000323536312E737265634A
S1130000BEC00000DCC00000DAC00000D8C00000A0
S1130010D6C0000016C4000064C40000B2C40000CE
S1130020CEC00000CCC00000CAC00000C8C00000A0
S1130030C6C0000042C30000C2C00000C0C000002F
S1130040BEC00000BCC00000BAC00000B8C00000C0
S1130050B6C00000B4C00000B2C00000B0C00000D0
S1130060AEC000000C94250CAAC00000A8C000007B
S1130070A6C0000049C30000A2C00000A0C0000048
S11300809EC000009CC000009AC0000098C0000000
S11300900C94340D0C94620C0C94C90C0C945E0AF0
S11300A08EC000008CC000008AC0000088C0000020
S11300B086C0000084C0000082C0000080C0000030
S11300C07EC000007CC000007AC000007F0A120CD1
S11300D0120C120C120C120C120C120C8F0A120CB1
S11300E0120C120C120C120C120C120CC20A120C6E
S11300F0120C120C120C120C120C120CF60A120C2A
S1130100120C120C120C120C120C120C3D0B120CD1
S1130110120C120C120C120C120C120C4D0B120CB1
S1130120120C120C120C120C120C120C970B120C57
S1130130120C120C120C120C120C120CA70B120C37
S1130140120C120C120C120C120C120CB70B120C17
S1130150120C120C120C120C120C120CCF0B120CEF
S1130160120C120C120C120C120C120CDF0B120CCF
S1130170120C120C120C120C120C120C000C112486
S11301801FBECFEFD1E2DEBFCDBF00E00CBF13E056
S1130190A0E0B2E0E8EBF6E200E00BBF02C007909B
S11301A00D92A437B107D9F720E1A4E7B3E001C069
S11301B01D92AC35B207E1F73FD50C945A1320CF0A
S11301C0A5980895A59A0895CF93DF93DFB7F8947F
S11301D0C0E0F6DF8C2F0E94750980E00E9475094B
S11301E0F1DFCF5FC630A9F7DFBFDF91CF9108956C
S11301F0CF93CFB7F8949D9AA59AE6DFCFBFCF915E
S11302000895E8E0F2E06FE372E041E050E0A0819D
S1130210B1812C91CA01028002C0880F991F0A94EF
S1130220E2F7822B8C933596E617F70781F708954A
S113023090E0FC01EE0FFF1FEE0FFF1F8E0F9F1FBC
S1130240FC01EA5FFD4FA081B1812C9181E090E037
S1130250048002C0880F991F0A94E2F7822B8C93C2
S1130260089590E0FC01EE0FFF1FEE0FFF1F8E0FAD
S11302709F1FFC01EA5FFD4FA081B1812C9181E0B9
S113028090E0048002C0880F991F0A94E2F78095D9
S113029082238C930895FF920F931F93CF93DF9340
S11302A0CDB7DEB72C970FB6F894DEBF0FBECDBF27
S11302B0FFB6F89482B198E0892782B92FE832E03A
S11302C03A8329831B829C83EDE3F2E080818D8352
S11302D081818E8382818F838381888784818987CA
S11302E085818A8786818B8787818C8762E0CE01AE
S11302F00196AAD580E992E09A83898380E88D8368
S113030005E412E0F80180818E8381818F838281EC
S113031088878381898784818A8785818B87868181
S11303208C8762E0CE0101968FD581E992E09A83B1
S1130330898387E88D83F80187818E8380858F8305
S1130340818588878285898783858A8780E28B87F0
S11303508C8762E0CE01019677D568EE73E08BE47A
S113036091E06BD0FFBE2C960FB6F894DEBF0FBEA3
S1130370CDBFDF91CF911F910F91FF900895CF933F
S1130380CFB7F894A82FB92FE5E4F2E021E532E0E5
S11303908D918193E217F307D9F77DDFCFBFCF911A
S11303A00895089580E090E021ED31E0FC01EE0F26
S11303B0FF1FEC54FC4F3183208301968531910556
S11303C0A9F780E090E021ED31E0FC01EE0FFF1F82
S11303D0EE0FFF1FEC58FC4F3183208313821282EF
S11303E001968031910589F708950FB607FE0CC078
S11303F0F894A1E00AC02F5F3F4F2531310539F44D
S1130400AA23D1F078940895A0E020E030E0B90167
S1130410F901EE0FFF1FEC54FC4F40815181415D07
S1130420514049F7660F771FFB01EC54FC4F918351
S11304308083AA2309F078940895CF930FB607FE1A
S113044060C0F89420917403309175038217930768
S113045009F44DC0C1E013C0F901EE0FFF1FEE0F08
S1130460FF1FEC58FC4F408151814817590751F444
S113047073836283CC2309F44DC078944BC021E08C
S113048030E0EACF2F5F3F4F2031310529F720912B
S1130490740330917503215D314081F021E030E037
S11304A0D901F901EE0FFF1FEE0FFF1FEC58FC4FAF
S11304B040815181415D5140A1F402C0A0E0B0E00F
S11304C0AA0FBB1FAA0FBB1FAC58BC4F11969C931D
S11304D08E9313967C936E931297CC23D9F07894D1
S11304E019C02F5F3F4F20313105D1F613C07093EF
S11304F0770360937603C1CF709377036093760399
S113050009C0209174033091750382179307A1F3F6
S1130510C0E0B5CFCF910895CF93DF93F894E091E5
S1130520B403F091B50381E0E13DF80711F4789448
S11305301DC080E090E0DC010196EC01CC0FDD1FD2
S1130540CC54DC4F28813981AA0FBB1FAC54BC4F5B
S113055011963C932E938431910569F781ED91E0D6
S11305609093DD038093DC0378941995DF91CF9108
S11305700895EF92FF920F931F93CF93DF93E12C93
S1130580F12C01ED11E0F701D701AA0FBB1FAA0F4F
S1130590BB1FAC58BC4F8D919C91815D914001F182
S11305A0D701AA0FBB1FAA0FBB1FAC58BC4F129692
S11305B08D919C911397019739F0FD01828193816C
S11305C00197938382830CC0EE0FFF1FEE0FFF1F72
S11305D0EF01CC58DC4F8881998107DF19830883A8
S11305E08FEFE81AF80A20E1E216F10461F6DF91D0
S11305F0CF911F910F91FF90EF9008958CE080931D
S1130600B1001092B2008AEF8093B30082E080932D
S11306107000089580E480937C0010927B008FE842
S113062080937A000895DF92EF92FF920F931F93C5
S1130630CF93DF93DFB6F894C7E7D4E0EC2EFD2E1A
S11306400BE416E02DC08E2D9F2D6ED488819981E8
S1130650892B31F1E7E7F4E080E08F5F248535856D
S1130660318320839785938396859283908994839D
S113067091899583928996839389978394899087A6
S1130680958991879689928797899387873241F0D4
S11306903C96232B11F7883218F0F801118210824E
S11306A088819981892B79F6DFBEDF91CF911F91E3
S11306B00F91FF90EF90DF9008951F920F920FB665
S11306C00F9211240BB60F922F933F934F935F9386
S11306D06F937F938F939F93AF93BF93EF93FF9306
S11306E048DFFF91EF91BF91AF919F918F917F91DF
S11306F06F915F914F913F912F910F900BBE0F908F
S11307000FBE0F901F9018951F920F920FB60F9265
S113071011240BB60F922F933F934F935F936F93D4
S11307207F938F939F93AF93BF93CF93DF93EF9375
S1130730FF93609178007091790080E090E00E94CE
S1130740B60E26EE3FE344E55FE30E94220E0E94CC
S11307508A0EEB01A09159064A2F50E0FA01EE0FE0
S1130760FF1FE40FF51FEE0FFF1FEE5AFD4F24810C
S11307703581261B370BF901FF2324F4EE27FF27CD
S1130780E21BF30BE536F10504F121E020935D064D
S1130790FA01EE0FFF1FE40FF51FEE0FFF1FEE5AD5
S11307A0FD4F75836483A11102C010925B06FA01A8
S11307B0EE0FFF1FE40FF51FEE0FFF1FEE5AFD4F64
S11307C08AE090E09383828324C080915D06813027
S11307D001F5A1111CC01092640610926306809367
S11307E05B0661E070E084EC95E027DECD3A83E0BF
S11307F0D80718F010925A060AC0C737D24020F022
S113080081E080935A0603C082E080935A061092D6
S11308105D0681E080936206FF91EF91DF91CF91B5
S1130820BF91AF919F918F917F916F915F914F9104
S11308303F912F910F900BBE0F900FBE0F901F9002
S113084018951F920F920FB60F9211240BB60F92A8
S11308502F933F934F935F936F937F938F939F93C4
S1130860AF93BF93EF93FF938091770490917804B3
S1130870892B69F0E3E8F4E081E004C08F5F3C96E3
S1130880883231F020813181232BC1F701C080E00F
S1130890883208F087E290E09C01220F331F820F18
S11308A0931F880F991F880F991F60E089589B4FE9
S11308B09DD461E070E083E193E0BFDDFF91EF91AF
S11308C0BF91AF919F918F917F916F915F914F9164
S11308D03F912F910F900BBE0F900FBE0F901F9062
S11308E018951F920F920FB60F9211240BB60F9208
S11308F02F933F934F935F936F937F938F939F9324
S1130900AF93BF93EF93FF93809177049091780412
S1130910892B69F0E3E8F4E081E004C08F5F3C9642
S1130920883231F020813181232BC1F701C080E06E
S1130930883208F087E290E09C01220F331F820F77
S1130940931F880F991F880F991F61E089589B4F47
S11309504DD46BE070E083E193E06FDDFF91EF91A4
S1130960BF91AF919F918F917F916F915F914F91C3
S11309703F912F910F900BBE0F900FBE0F901F90C1
S113098018951F920F920FB60F9211240BB60F9267
S11309902F933F934F935F936F937F938F939F9383
S11309A0AF93BF93EF93FF93809177049091780472
S11309B0892B69F0E3E8F4E081E004C08F5F3C96A2
S11309C0883231F020813181232BC1F701C080E0CE
S11309D0883208F087E290E09C01220F331F820FD7
S11309E0931F880F991F880F991F62E089589B4FA6
S11309F0FDD361E070E083E193E01FDDFF91EF91AF
S1130A00BF91AF919F918F917F916F915F914F9122
S1130A103F912F910F900BBE0F900FBE0F901F9020
S1130A2018954F925F926F927F928F929F92AF929E
S1130A30BF92CF92DF92EF92FF920F931F93CF93C7
S1130A40DF93CDB7DEB7E4970FB6F894DEBF0FBEE1
S1130A50CDBFF8940EED13E0F80181811F928F93BE
S1130A6083EC92E09F938F93CE0101969F938F9393
S1130A700E947F100F900F900F900F900F900F9087
S1130A80F8018081882309F45AC078010F2EF8EE0A
S1130A908F2EF3E09F2EF02D58010F2EF9EFCF2E5D
S1130AA0F2E0DF2EF02D8E010D5C1F4FCE0101967A
S1130AB03C010F2EFCE24F2E512CF02DF5018081CC
S1130AC01F928F93DF92CF921F930F930E947F10F8
S1130AD0B801C3010E946D100F900F900F900F90FA
S1130AE00F900F90F7018281882371F0F2E0EF0EEE
S1130AF0F11C8E149F0441F0F30101900020E9F7EA
S1130B00319751824082DACFCE010196DC010D90FB
S1130B100020E9F7119725E0E8EEF2E001900D924C
S1130B202A95E1F7EEEDF3E0128213821482158226
S1130B301682178210861186D9D778940EC0DE01EA
S1130B4011960D900020E9F7119785E0E8EEF2E0A8
S1130B5001900D928A95E1F7F0CFE4960FB6F894E0
S1130B60DEBF0FBECDBFDF91CF911F910F91FF90DC
S1130B70EF90DF90CF90BF90AF909F908F907F9039
S1130B806F905F904F900895F894809163069091D0
S1130B9064060196909364068093630620915B0635
S1130BA0213049F4893E934048F461E070E084ECDC
S1130BB095E043DC24C0893E934018F032DF91E095
S1130BC001C090E08091DE03882371F0AEEDB3E0C4
S1130BD0E1E004C0EF5F1296E53039F012968C9193
S1130BE012978111F7CF01C0E0E0F0E0EE0FFF1F94
S1130BF0E252FC4F80915A068083918312DF7894ED
S1130C000895F894E7E7F4E087E596E0118210820E
S1130C103C96E817F907D1F780E048D281E046D244
S1130C2082E044D280E78DBB83E193E0DEDB8BE49A
S1130C3091E0DBDB78940895CF93DF93CDB7DEB7F3
S1130C402C970FB6F894DEBF0FBECDBF81B18F6075
S1130C5081B93B9A439ADEDCA5DBD0DC38D703D6D6
S1130C6080E593E043D736D3C3DAAEDACADA10E0CC
S1130C70812FDEDA2FEF89E698E121508040904001
S1130C80E1F700C00000812FECDA2FEF89E698E14C
S1130C90215080409040E1F700C000001F5F1B30EE
S1130CA039F7AFDF10925B06109264061092630668
S1130CB000E010E00F2EF6E5CF2EF3E0DF2EF02D4E
S1130CC0CE0101967C011F930F93DF92CF92FF9286
S1130CD0EF920E947F10C70152DB8FEA9DE10197DA
S1130CE0F1F700C000000F5F1F4F0F900F900F909F
S1130CF00F900F900F900C3291E0190721F7A895EF
S1130D000BDC38D7FCCF0F931F93CF93DF9390E086
S1130D10EC01CC0FDD1FCC0FDD1FCC0FDD1F8C0FC2
S1130D209D1FEC01C25ADD4FE881F981908101E0F9
S1130D3010E098010A8002C0220F331F0A94E2F7E0
S1130D40822F80958923808380ECCFD2E881F9813A
S1130D5080810A8002C0000F111F0A94E2F7082B59
S1130D600083DF91CF911F910F9108950F931F93EB
S1130D70CF93DF939FB7F89490E0EC01CC0FDD1F85
S1130D80CC0FDD1FCC0FDD1F8C0F9D1FEC01C25A51
S1130D90DD4FE881F981908101E010E098010A803B
S1130DA002C0220F331F0A94E2F7822F8095892311
S1130DB0808380EA9AD28FEF98D2E881F98190817A
S1130DC00A8002C0000F111F0A94E2F7092B008366
S1130DD0DF91CF911F910F91089590E0FC01EE0FE8
S1130DE0FF1FEE0FFF1FEE0FFF1F8E0F9F1FFC0153
S1130DF0E25AFD4FA081B1812C9181E090E0028004
S1130E0002C0880F991F0A94E2F7809582238C937D
S1130E10089590E0FC01EE0FFF1FEE0FFF1FEE0F91
S1130E20FF1F8E0F9F1FFC01E25AFD4FA081B1816D
S1130E302C9181E090E0028002C0880F991F0A94EF
S1130E40E2F7822B8C930895CF92DF92EF92FF9278
S1130E500F931F93CF93DF937C01D62E8FB7F89413
S1130E60862F84DF82FF08C084FF08C086FD52C03D
S1130E706894CC24C2F805C0C12C03C06894CC2467
S1130E80C1F88D2DAADF8C2D80642FD2F7018081CB
S1130E90918196958795969587959695879525D270
S1130EA0F70180818295880F807E1FD280E01DD259
S1130EB080E01BD2F7011381193008F018E0F70124
S1130EC08281882321F0812F80640FD212C0812F68
S1130ED00CD2112371F0E70124961150012F10E078
S1130EE00B5F1F4F0E0D1F1D8991FFD1C017D10736
S1130EF0D9F78D2D8EDF00008D2D6FDFC11003C05B
S1130F0081E8F3D103C08C2D8068EFD18D2D81DF72
S1130F1081E001C080E0DF91CF911F910F91FF909C
S1130F20EF90DF90CF9008950895EF92FF920F9382
S1130F301F93CF93DF93E82EF62E50E0EA01CC0FF7
S1130F40DD1FCC0FDD1FCC0FDD1F4C0F5D1FEA0131
S1130F50C25ADD4FE881F981908101E010E09801E7
S1130F600A8002C0220F331F0A94E2F7822F809571
S1130F708923808382E0B9D18E2DB7D18F2DB5D14D
S1130F80E881F98180810A8002C0000F111F0A9450
S1130F90E2F7082B0083DF91CF911F910F91FF900F
S1130FA0EF900895EF92FF920F931F93CF93DF93E7
S1130FB0FFB6F89490E0EC01CC0FDD1FCC0FDD1FE1
S1130FC0CC0FDD1F8C0F9D1FEC01C25ADD4FE88151
S1130FD0F981908101E010E098010A8002C0220F9B
S1130FE0331F0A94E2F7822F80958923808380EB54
S1130FF07CD18FEF7AD1E82E8FEF77D1E881F98118
S11310002081C8010A8002C0880F991F0A94E2F760
S1131010822B8083FFBE8E2DDF91CF911F910F9184
S1131020FF90EF900895DF92EF92FF920F931F933A
S1131030CF93DF93D82EE62EF42E30E0E901CC0FC7
S1131040DD1FCC0FDD1FCC0FDD1F2C0F3D1FE90171
S1131050C25ADD4FE881F981908101E010E09801E6
S11310600A8002C0220F331F0A94E2F7822F809570
S11310708923808385E039D18D2D37D18E2D35D1CB
S11310808F2D33D1E881F9812081C8010A8002C003
S1131090880F991F0A94E2F7822B8083DF91CF9106
S11310A01F910F91FF90EF90DF9008950F931F937E
S11310B0CF93DF93C82F44B1082F10E0C801880FE5
S11310C0991F880F991F880F991F080F191F025A1B
S11310D01D4F81E090E09C01F801028002C0220FC4
S11310E0331F0A94E2F7242B24B925B1028002C0ED
S11310F0880F991F0A94E2F7822B85B96B9A739A29
S1131100DFB7F8948C2FFFDD4C2FF80166818AE25B
S11311100CDF4C2FF801678189E207DF4C2FF801BF
S1131120608588E202DF4C2F63E08BE2FEDE4C2F09
S113113063E08BE2FADE4C2F60E280E6F6DE4C2FB1
S113114060E280E7F2DE4C2F60E080E2EEDE4C2FBE
S113115060E081E2EADE4C2F60E082E2E6DE4C2FC2
S113116060E083E2E2DE4C2F60E084E2DEDE4C2FBE
S113117060E085E2DADE4C2F60E086E2D6DE4C2FBA
S113118060E087E2D2DE4C2F67E580E0CEDE4C2FB4
S113119060EE81E0CADE4C2F67E784E0C6DE4C2FA8
S11311A060E485E0C2DE4C2F60E088E0BEDE4C2FB8
S11311B060E089E0BADE4C2F62E180E1B6DE4C2FBC
S11311C060E081E1B2DE4C2F60E08CE0AEDE4C2FBB
S11311D060E08DE0AADE2C2F44E067EE8FE023DF91
S11311E0DFBFDF91CF911F910F910895BF92CF92EE
S11311F0DF92EF92FF920F931F93CF93DF936C01D3
S1131200062F862FCFDE182F282F2074B22E86FFAC
S113121005C0802FE2DD80E968D007C088230CF088
S11312204EC0802FDADD84E960D08FEF5ED0E8E035
S11312308E9FC0011124F601918380838FEF55D0D6
S1131240282F229526952770F60180819181822B83
S1131250918380838FEF49D08FEF47D08FEF45D0B4
S11312608F70F6018383882381F0E60124968150F0
S1131270E82EF12CF5E0EF0EF11CEC0CFD1C8FEFC9
S113128034D08993CE15DF05D1F7802FC2DD13FF4B
S113129004C081E0F601828302C0F6011282BB2001
S11312A031F0202F40E061E08CE2BDDE05C0202F4C
S11312B040E062E08CE2B7DE812F877001C08FEFDF
S11312C0DF91CF911F910F91FF90EF90DF90CF901E
S11312D0BF90089584B1876084B985B1897F85B949
S11312E080E58CBD81E08DBD08958EBD0DB407FEF3
S11312F0FDCF8EB5089508952F923F924F925F923D
S11313006F927F928F929F92AF92BF92DF92EF92F1
S1131310FF920F931F93CF93DF93F894E0916906A4
S11313202E2F30E081E1E89FF0011124E659F94FB6
S1131330848580FF0FC091E1929FF001939FF00D8F
S11313401124E659F94F8E7F8487128685EA8093AB
S1131350BC00A1C098B181E0892788B9E0916906F1
S113136081E1E89FF0011124E659F94F82E0858775
S113137061E070E08685978560D80F2EFAE6EF2E3F
S1131380F6E0FF2EF02D00E010E06DEA77E00F2E7E
S1131390F8EC2F2EF7E03F2EF02D0F2EFFEB4F2E03
S11313A0F7E05F2EF02D0F2EFCEC6F2EF7E07F2E72
S11313B0F02D0F2EFBE78F2EF9E09F2EF02D0F2E30
S11313C0FBECAF2EF7E0BF2EF02D35C09E018989CE
S11313D088838C8D8B87DE015396FE013296CE0175
S11313E00A96DD90D192E817F907D9F7F901838DB0
S11313F0828782898183858D8487868D8587878D81
S113140090A1978786874331510579F4EEEBF7E095
S11314101082E9ECF7E01082F1011082F2011082EF
S1131420F30191828082F50110824F5F5F4F6196D4
S1131430C617D70759F6F7018585833031F4033190
S11314401105CCF7A801E701C1CF0F5F1F4FF1E1F0
S1131450EF0EF11C0431110571F78091770681308C
S113146081F028E836E080E090E001962F5E3F4F5F
S1131470F901719740814130C1F7843191054CF4F1
S113148002C080E090E08093690685EA8093BC0006
S113149002C0109268067894DF91CF911F910F914A
S11314A0FF90EF90DF90BF90AF909F908F907F90D0
S11314B06F905F904F903F902F9008951F920F92DE
S11314C00FB60F9211240BB60F922F933F934F93A5
S11314D05F936F937F938F939F93AF93BF93EF9398
S11314E0FF938091B900887F90E08935910508F0D9
S11314F099C1FC018827EA59FF4F8F4FC5C4E09179
S1131500690681E1E89FF0011124E659F94F8485C9
S11315108160848785E98093BC00EEDE83C1E0911D
S113152069062E2F30E091E1E99FF0011124E6597C
S1131530F94F84858C7061F481E1829FF001839F6F
S1131540F00D1124E659F94F8081816080830BC02E
S113155081E1829FF001839FF00D1124E659F94F38
S113156080818E7F808381E1829FF001839FF00DD3
S11315701124E659F94F80818093BB0085E880935C
S1131580BC0050C1E09169062E2F30E081E1E89F54
S1131590F0011124E659F94F84858C70883061F488
S11315A081E1829FF001839FF00D1124E659F94FE8
S11315B08081816080830BC081E1829FF001839FE1
S11315C0F00D1124E659F94F80818E7F808381E1EB
S11315D0829FF001839FF00D1124E659F94F808119
S11315E08093BB0085E88093BC001CC1E091690630
S11315F02E2F30E091E1E99FF0011124E659F94FD3
S113160084858C708430D9F481E1829FF001839FBA
S1131610F00D1124E659F94F9285E90FF11D9281DD
S11316209093BB00E09169068E9FF0011124E65966
S1131630F94F82858F5F828785E88093BC00E091B3
S113164069062E2F30E081E1E89FF0011124E6596C
S1131650F94F84858C70883009F0E4C081E1829F61
S1131660F001839FF00D1124E659F94F8181809395
S1131670BB0085E88093BC00D5C0E091690691E188
S1131680E99FF0011124E659F94F8485806184872C
S113169085E98093BC0030DEC5C0E09169062E2F39
S11316A030E081E1E89FF0011124E659F94F848587
S11316B08C70843059F581E1829FF001839FF00D95
S11316C01124E659F94F92858385981305C085E95D
S11316D08093BC0011DE1AC081E1829FF001839FD8
S11316E0F00D1124E659F94FE90FF11D9281909301
S11316F0BB00E09169068E9FF0011124E659F94F71
S113170082858F5F828785E88093BC00E0916906BB
S113171091E1E99FF0011124E659F94F84858C7019
S1131720883009F07FC085EA8093BC007BC0E091DB
S1131730690681E1E89FF0011124E659F94F848597
S11317408260848785E98093BC00D6DD6BC0E0911C
S1131750690691E1E99FF0011124E659F94F848566
S113176080628487128685EA8093BC005BC0E09126
S1131770690681E1E89FF0011124E659F94F828559
S113178090E00196238530E08217930721F485E8E1
S11317908093BC0047C085EC8093BC0043C0E091BB
S11317A0690691E1E99FF0011124E659F94F848516
S11317B08061848785E98093BC009EDD33C0E0911D
S11317C0690681E1E89FF0011124E659F94F828509
S11317D09091BB00DF01A80FB11D12969C938F5FFF
S11317E0828790E00196238530E08217930721F4E5
S11317F085E88093BC0016C085EC8093BC0012C0C1
S1131800E09169068091BB0091E1E99FF001112408
S1131810E659F94F9285E90FF11D828385E980939A
S1131820BC006ADDFF91EF91BF91AF919F918F91C1
S11318307F916F915F914F913F912F910F900BBECC
S11318400F900FBE0F901F9018951F920F920FB616
S11318500F9211248F938091C6008F910F900FBE29
S11318600F901F9018951092C50088E08093C400D3
S11318701092C00088E98093C10086E88093C2007A
S113188008958091EA03E091EB03F091EC03E80FF3
S1131890F11D8081882369F08093CE008091EA0352
S11318A08F5F8093EA03E9ECF0E0808180648083B9
S11318B008958AE08093CE00E9ECF0E080818F7D8A
S11318C0808308951F920F920FB60F9211240BB6C6
S11318D00F922F933F934F935F936F937F938F93C5
S11318E09F93AF93BF93EF93FF93CBDFFF91EF9160
S11318F0BF91AF919F918F917F916F915F914F9124
S11319003F912F910F900BBE0F900FBE0F901F9021
S11319101895CF93DF93E9ECF0E080818F7B80838F
S1131920CBEED3E0888199814FD32A813B81211565
S1131930310541F181E090E041E0880F991FFC01FD
S1131940E751FC4F318320834F5F842F90E0FC01EB
S1131950EE0FFF1FE551FC4F208131812115310528
S113196061F7880F991FFC01E751FC4F1182108227
S1131970423060F01092EA03E9ECF0E0808180628A
S1131980808304C01092EC031092EB03DF91CF919B
S113199008951F920F920FB60F9211240BB60F9257
S11319A02F933F934F935F936F937F938F939F9363
S11319B0AF93BF93EF93FF93ACDFFF91EF91BF9190
S11319C0AF919F918F917F916F915F914F913F91D3
S11319D02F910F900BBE0F900FBE0F901F90189574
S11319E08091CE008D3009F43EC09091E8039111AE
S11319F00AC01092E903809304081092BE0781E0A4
S1131A008093E80308958A3089F0E091E903E5348E
S1131A1068F4AE2FB0E0A254B84F8C93EF5FE0931C
S1131A20E903F0E0E254F84F108208951092E803BD
S1131A30209157102E31B9F030E0F901EB5FF74FE8
S1131A4080910408808346E4429FC001439F900D27
S1131A5011246EEB77E08D5D974F4AD3E7E5F0E113
S1131A6080818F5F808308951F920F920FB60F922B
S1131A7011240BB60F922F933F934F935F936F9361
S1131A807F938F939F93AF93BF93EF93FF93A8DFBD
S1131A90FF91EF91BF91AF919F918F917F916F9142
S1131AA05F914F913F912F910F900BBE0F900FBEFE
S1131AB00F901F901895EBEEF3E087E794E01192F6
S1131AC01192E817F907D9F7109257100895109258
S1131AD0CD0088E08093CC001092C80088E9809300
S1131AE0C90086E88093CA00E6CF0895FF920F9359
S1131AF01F93CF93DF938C01FFB6F894FC01019000
S1131B000020E9F7CF01801B910BC6D1EC01B8018D
S1131B10EFD28091EB039091EC03892B81F080E06C
S1131B208F5F282F30E0F901EE0FFF1FE551FC4FC6
S1131B3040815181452BA1F7863450F402C020E046
S1131B4030E0220F331FF901E551FC4FD183C083EC
S1131B508091C90085FD07C0E9ECF0E080818062D6
S1131B6080831092EA03FFBEDF91CF911F910F9102
S1131B70FF900895DF92EF92FF920F931F93CF93FC
S1131B80DF93CDB7DEB7E2970FB6F894DEBF0FBE92
S1131B90CDBFDFB6F89480915710882309F443C071
S1131BA083E298E09F938F93809105081F928F930F
S1131BB083E693E09F938F938E010F5F1F4F1F93D4
S1131BC00F939DD2C80192DFE7E5F0E18081815057
S1131BD080830FB6F894DEBF0FBECDBF882319F102
S1131BE010E006E47F01212F30E0C9010196FC01D9
S1131BF0EB5FF74F4081F901EB5FF74F4083089F9C
S1131C00B001099F700D11246D5D774F029FC001D3
S1131C10039F900D11248D5D974F6AD21F5FF701CA
S1131C208081181700F3DFBEE2960FB6F894DEBF8A
S1131C300FBECDBFDF91CF911F910F91FF90EF9019
S1131C40DF9008950CD0E6C0DED040F0D5D030F05F
S1131C5021F45F3F19F0C7C0511110C1CAC0EBD0C5
S1131C6098F39923C9F35523B1F3951B550BBB275F
S1131C70AA2762177307840738F09F5F5F4F220F0C
S1131C80331F441FAA1FA9F333D00E2E3AF0E0E805
S1131C9030D091505040E695001CCAF729D0FE2F51
S1131CA027D0660F771F881FBB1F261737074807E3
S1131CB0AB07B0E809F0BB0B802DBF01FF27935899
S1131CC05F4F2AF09E3F510568F08DC0D7C05F3F3B
S1131CD0ECF3983EDCF3869577956795B795F79581
S1131CE09F5FC9F7880F911D9695879597F9089579
S1131CF0E1E0660F771F881FBB1F62177307840715
S1131D00BA0720F0621B730B840BBA0BEE1F88F723
S1131D10E095089598D088F09F5790F0B92F9927AF
S1131D20B751A0F0D1F0660F771F881F991F1AF0E2
S1131D30BA95C9F712C0B13081F09FD0B1E00895CF
S1131D409CC0672F782F8827B85F39F0B93FCCF350
S1131D50869577956795B395D9F73EF490958095D8
S1131D60709561957F4F8F4F9F4F0895E89409C0F8
S1131D7097FB3EF490958095709561957F4F8F4FBA
S1131D809F4F9923A9F0F92F96E9BB279395F695D0
S1131D90879577956795B795F111F8CFFAF4BB0F4E
S1131DA011F460FF1BC06F5F7F4F8F4F9F4F16C0B2
S1131DB0882311F096E911C0772321F09EE8872F3C
S1131DC0762F05C0662371F096E8862F70E060E0F8
S1131DD02AF09A95660F771F881FDAF7880F969571
S1131DE0879597F9089597F99F6780E870E060E018
S1131DF008959FEF80EC089500240A9416161706A0
S1131E0018060906089500240A94121613061406E7
S1131E1005060895092E0394000C11F4882352F04A
S1131E20BB0F40F4BF2B11F460FF04C06F5F7F4F02
S1131E308F4F9F4F089557FD9058440F551F59F0E9
S1131E405F3F71F04795880F97FB991F61F09F3FA3
S1131E5079F087950895121613061406551FF2CFCC
S1131E604695F1DF08C0161617061806991FF1CF1C
S1131E7086957105610508940895E894BB27662743
S1131E807727CB0197F90895EE0FFF1F881F8BBFAB
S1131E900790F691E02D19940F931F93CF93DF933E
S1131EA08230910510F482E090E0E0915A10F091B4
S1131EB05B1020E030E0A0E0B0E0309719F1408101
S1131EC051810281138148175907C8F08417950777
S1131ED069F4109731F012960C93129713961C9391
S1131EE027C000935A1010935B1022C021153105AE
S1131EF019F04217530718F49A01BD01EF01DF01ED
S1131F00F801DBCF21153105F9F0281B390B2430FA
S1131F10310580F48A819B816115710521F0FB01F3
S1131F209383828304C090935B1080935A10FE01C4
S1131F30329644C0FE01E20FF31F81939193225025
S1131F403109398328833AC02091581030915910AF
S1131F50232B41F420910202309103023093591053
S1131F60209358102091000230910102211531056F
S1131F7041F42DB73EB74091040250910502241B51
S1131F80350BE0915810F0915910E217F307A0F4C3
S1131F902E1B3F0B2817390778F0AC014E5F5F4FBB
S1131FA02417350748F04E0F5F1F50935910409384
S1131FB058108193919302C0E0E0F0E0CF01DF91EB
S1131FC0CF911F910F910895CF93DF93009709F458
S1131FD081C0FC01329713821282A0915A10B091F1
S1131FE05B10109781F420813181820F931F20911F
S1131FF05810309159102817390751F5F09359109A
S1132000E093581067C0ED0120E030E0CE17DF0701
S113201040F44A815B819E0141155105F1F0EA01CA
S1132020F5CFD383C28340815181840F951FC81794
S1132030D90759F488819981840F951F0296918359
S113204080838A819B81938382832115310529F4BE
S1132050F0935B10E0935A103DC0E901FB83EA83DF
S113206049915991C40FD51FEC17FD0761F4808184
S11320709181840F951F0296E90199838883828157
S113208093819B838A83E0E0F0E012968D919C918A
S11320901397009719F0FD01DC01F7CF8D919C9106
S11320A011979D012E5F3F4F820F931F209158106F
S11320B0309159102817390769F4309729F4109290
S11320C05B1010925A1002C013821282B0935910FE
S11320D0A0935810DF91CF910895FB01DC010D907E
S11320E00020E9F7119701900D920020E1F708957F
S11320F0FB01DC0101900D920020E1F708950F939C
S11321001F93CF93DF93CDB7DEB72E970FB6F89416
S1132110DEBF0FBECDBF0E891F8986E08C831A8374
S113212009838FEF9FE79E838D83AE01465E5F4FE9
S1132130688D798DCE01019610D0EF81F885E00F7E
S1132140F11F10822E960FB6F894DEBF0FBECDBFDE
S1132150DF91CF911F910F9108952F923F924F924B
S11321605F926F927F928F929F92AF92BF92CF9223
S1132170DF92EF92FF920F931F93CF93DF93CDB72C
S1132180DEB72B970FB6F894DEBF0FBECDBF6C0140
S11321907B018A01FC0117821682838181FFBFC102
S11321A0CE0101963C01F6019381F70193FD8591DF
S11321B093FF81917F01882309F4ADC1853239F4FD
S11321C093FD859193FF81917F01853221F4B601BE
S11321D090E0D6D1E8CF912C212C312CFFE1F315DE
S11321E0D8F08B3279F038F4803279F08332A1F46C
S11321F0232D20611DC08D3261F0803369F4232DBD
S1132200216016C0832D8260382EE32DE4603E2EBB
S11322102AC0F32DF8601DC037FC2DC020ED280F17
S11322202A3040F08E32B9F436FC75C1232D206477
S1132230322E19C036FE06C08AE0989E200D112465
S1132240922E11C0EAE02E9E200D1124222EF32D91
S1132250F0623F2E08C08C3621F4832D8068382E1E
S113226002C0883641F4F70193FD859193FF819173
S11322707F018111B3CF982F9F7D9554933028F41B
S11322800C5F1F4F9FE399830DC0833631F0833772
S113229071F0833509F055C020C0F801808189832D
S11322A00E5F1F4F88248394912C530112C0280180
S11322B0F2E04F0E511CF801A080B18036FE03C03D
S11322C0692D70E002C06FEF7FEFC5014ED14C0164
S11322D08201F32DFF773F2E15C0280122E0420E24
S11322E0511CF801A080B18036FE03C0692D70E056
S11322F002C06FEF7FEFC5012DD14C01F32DF068C3
S11323003F2E820133FC19C0822D90E08816990675
S1132310A0F4B60180E290E033D12A94F5CFF50120
S113232037FC859137FE81915F01B60190E028D199
S113233021102A9421E0821A91088114910479F7DA
S1132340E1C0843611F0893639F5F80137FE07C04B
S113235060817181828193810C5F1F4F08C060810D
S11323607181072E000C880B990B0E5F1F4FF32D04
S1132370FF763F2E97FF09C09095809570956195E3
S11323807F4F8F4F9F4FF0683F2E2AE030E0A3012C
S113239033D1882E861844C0853731F4232D2F7EFF
S11323A0B22E2AE030E025C0932D997FB92E8F36C6
S11323B0C1F018F4883579F0AEC0803719F0883749
S11323C021F0A9C0E92FE061BE2EB4FE0DC0FB2DA3
S11323D0F460BF2E09C034FE0AC0292F2660B22E35
S11323E006C028E030E005C020E130E002C020E172
S11323F032E0F801B7FE07C0608171818281938168
S11324000C5F1F4F06C06081718180E090E00E5F19
S11324101F4FA301F1D0882E8618FB2DFF773F2E86
S113242036FE0DC0232D2E7FA22E891458F434FEBF
S11324300BC032FC09C0832D8E7EA82E05C0B82C9B
S1132440A32C03C0B82C01C0B92CA4FE0FC0FE01FC
S1132450E80DF11D8081803321F49A2D997EA92EF7
S113246009C0A2FE06C0B394B39404C08A2D867832
S113247009F0B394A3FC10C0A0FE06C0B21480F40B
S1132480280C922C9B180DC0B21458F4B60180E2AB
S113249090E076D0B394F8CFB21418F42B1802C09D
S11324A0982C212CA4FE0FC0B60180E390E068D0E4
S11324B0A2FE16C0A1FC03C088E790E002C088E534
S11324C090E0B6010CC08A2D867851F0A1FE02C0BE
S11324D08BE201C080E2A7FC8DE2B60190E050D00F
S11324E0891430F4B60180E390E04AD09A94F8CF8E
S11324F08A94F301E80DF11D8081B60190E040D08B
S11325008110F6CF222009F44ECEB60180E290E08D
S113251037D02A94F7CFF6018681978102C08FEFD6
S11325209FEF2B960FB6F894DEBF0FBECDBFDF91A1
S1132530CF911F910F91FF90EF90DF90CF90BF90BC
S1132540AF909F908F907F906F905F904F903F904F
S11325502F900895FC010590615070400110D8F748
S1132560809590958E0F9F1F0895FC0161507040D7
S113257001900110D8F7809590958E0F9F1F0895B4
S11325800F931F93CF93DF93FB01238121FD03C09E
S11325908FEF9FEF2CC022FF16C046815781248104
S11325A035814217530744F4A081B1819D012F5F07
S11325B03F4F318320838C93268137812F5F3F4F98
S11325C03783268314C08B01EC01FB010084F18561
S11325D0E02D1995892BE1F6D80116968D919C91E1
S11325E01797019617969C938E931697CE01DF91B9
S11325F0CF911F910F910895FA01AA27283051F124
S1132600203181F1E8946F936E7F6E5F7F4F8F4F1F
S11326109F4FAF4FB1E03ED0B4E03CD0670F781F7E
S1132620891F9A1FA11D680F791F8A1F911DA11D63
S11326306A0F711D811D911DA11D20D009F468949C
S11326403F912AE0269F11243019305D3193DEF644
S1132650CF010895462F4770405D4193B3E00FD0FA
S1132660C9F7F6CF462F4F70405D4A3318F0495DE5
S113267031FD4052419302D0A9F7EACFB4E0A695C8
S11326809795879577956795BA95C9F700976105EA
S1132690710508959B01AC010A2E06945795479540
S11326A037952795BA95C9F7620F731F841F951F35
S10B26B0A01D0895F894FFCF6A
S11326B800005C1020002B002A00062B002A0007CB
S11326C834003300002800270001280027000034C4
S11326D80033000134003300042B002A00052B00CA
S11326E82A00042500240007340033000380000076
S11326F8000000000020303132202020202020203B
S1132708200007000000000006000000000025006B
S1132718042E000303F0062500052E000303F0062B
S11327282500062E000303F006627574746F6E3A72
S113273825640072656C65617365006F75743A5B36
S113274825645D2C205B25645D2C205B25645D2C51
S1132758205B25645D2C205B25645D2C205B25644F
S11327685D2C205B25645D00414654455220534549
S11327784E54007B226964223A312C2022647572FB
S11327886174696F6E223A25642C20226275747410
S11327986F6E73223A205B00205D207D0054454310
S11327A83A202564005245433A2025640045464CA6
S11327B8473A2025640043414E494E54453A202562
S11327C8640043414E494E54463A2025640043412F
S11327D84E4354524C3A2025640043414E535441CD
S11327E8543A202564004246504354524C3A20251A
S11327F8640054585254534354524C3A20256400AC
S113280873746172740020202020253035642020E0
S113281820200049443A2025642C205061723A2033
S10728282573000010
S9030000FC
