:1000000065C0000084C0000082C0000080C0000005
:100010007EC000000C9468080C94BE080C94120971
:1000200076C0000074C0000072C0000070C0000004
:100030006EC0000091C700006AC0000068C00000E8
:1000400066C0000064C0000062C0000060C0000024
:100050005EC000005CC000005AC0000058C0000034
:100060000C945E0854C0000052C0000050C0000054
:100070004EC0000098C700004AC0000048C0000001
:1000800046C0000044C0000042C0000040C0000064
:10009000EEC700009EC70000C3C7000038C00000C4
:1000A00036C0000034C0000032C0000030C0000084
:1000B0002EC000002CC000002AC0000028C0000094
:1000C00026C0000024C0000022C0000011241FBE72
:1000D000CFEFD1E2DEBFCDBF00E00CBF13E0A0E068
:1000E000B2E0E8E1FBE100E00BBF02C007900D9237
:1000F000AC31B107D9F72EE0ACE1B3E001C01D92FD
:10010000A03EB207E1F70E9466090C948A0D78CFF1
:1001100080911E03E0911F03F0912003E80FF11D71
:100120008081882369F08093CE0080911E038F5FC9
:1001300080931E03E9ECF0E0808180648083089561
:100140008AE08093CE00E9ECF0E080818F7D8083AF
:100150000895CF93DF93E9ECF0E080818F7B80837B
:10016000CFE1D3E0888199810E941F0A2A813B81D7
:100170002115310541F181E090E041E0880F991FA0
:10018000FC01E35EFC4F318320834F5F842F90E0BE
:10019000FC01EE0FFF1FE15EFC4F20813181211534
:1001A000310561F7880F991FFC01E35EFC4F118256
:1001B0001082423060F010921E03E9ECF0E0808182
:1001C0008062808304C01092200310921F03DF918D
:1001D000CF9108958091CE008D3009F43FC0909169
:1001E0001C0391110AC010921D0380938B0410927E
:1001F000350481E080931C0308958A3089F0E091F2
:100200001D03E53468F4AE2FB0E0AB5CBB4F8C93BC
:10021000EF5FE0931D03F0E0EB5CFB4F108208956D
:1002200010921C032091E70C2E31C1F030E0F9014F
:10023000EB56FB4F80918B04808346E4429FC001C4
:10024000439F900D112465E374E08D549B4F0E94F1
:10025000A80AE7EEFCE080818F5F80830895EFE1DC
:10026000F3E08BEA93E011921192E817F907D9F7BE
:100270001092E70C0895FF920F931F93CF93DF9393
:100280008C01FFB6F894FC0101900020E9F7CF0142
:10029000801B910B0E948709EC01B8010E94A80AFB
:1002A00080911F0390912003892B81F080E08F5F64
:1002B000282F30E0F901EE0FFF1FE15EFC4F408177
:1002C0005181452BA1F7863450F402C020E030E084
:1002D000220F331FF901E15EFC4FD183C08380916F
:1002E000C90085FD07C0E9ECF0E080818062808371
:1002F00010921E03FFBEDF91CF911F910F91FF90CF
:100300000895DF92EF92FF920F931F93CF93DF93A5
:10031000CDB7DEB7E2970FB6F894DEBF0FBECDBF04
:100320008091E70C882309F448C0DFB6F89483EB8A
:1003300094E09F938F93809195041F928F938DE506
:1003400092E09F938F938E010F5F1F4F1F930F9328
:100350000E94AF0AC8018FDFE7EEFCE08081815088
:1003600080830FB6F894DEBF0FBECDBF882321F186
:1003700010E006E47F01212F30E0C9010196FC0165
:10038000EB56FB4F4081F901EB56FB4F4083089F32
:10039000B001099F700D11246D547B4F029FC00165
:1003A000039F900D11248D549B4F0E94A80A1F5F3C
:1003B000F70180811817F8F2DFBEE2960FB6F894C5
:1003C000DEBF0FBECDBFDF91CF911F910F91FF9088
:1003D000EF90DF90089584B1876084B985B1897FFB
:1003E00085B984B1806784B985B1806785B98DB1DD
:1003F0001DB88EB180678EB9279A2F9A80E58CBD83
:1004000081E08DBD08958EBD0DB407FEFDCF8EB584
:1004100008950F931F93CF93DF9390E0EC01CC0FDF
:10042000DD1FCC0FDD1FCC0FDD1F8C0F9D1FEC01DE
:10043000CE5BDD4FE881F981908101E010E0980109
:100440000A8002C0220F331F0A94E2F7822F8095A0
:100450008923808380ECD7DFE881F98180810A805D
:1004600002C0000F111F0A94E2F7082B0083DF91EE
:10047000CF911F910F9108950F931F93CF93DF9307
:100480009FB7F89490E0EC01CC0FDD1FCC0FDD1F7F
:10049000CC0FDD1F8C0F9D1FEC01CE5BDD4FE88183
:1004A000F981908101E010E098010A8002C0220FDA
:1004B000331F0A94E2F7822F80958923808380EA94
:1004C000A2DF8FEFA0DFE881F98190810A8002C06E
:1004D000000F111F0A94E2F7092B0083DF91CF91DF
:1004E0001F910F91089590E0FC01EE0FFF1FEE0F9A
:1004F000FF1FEE0FFF1F8E0F9F1FFC01EE5BFD4FD6
:10050000A081B1812C9181E090E0028002C0880F2F
:10051000991F0A94E2F7809582238C93089590E0C6
:10052000FC01EE0FFF1FEE0FFF1FEE0FFF1F8E0FE0
:100530009F1FFC01EE5BFD4FA081B1812C9181E0FA
:1005400090E0028002C0880F991F0A94E2F7822B84
:100550008C930895CF92DF92EF92FF920F931F93A7
:10056000CF93DF937C01D62E8FB7F894862F84DF4C
:1005700082FF08C084FF08C086FD52C06894CC2466
:10058000C2F805C0C12C03C06894CC24C1F88D2DDD
:10059000AADF8C2D806437DFF701808191819695E9
:1005A000879596958795969587952DDFF70180819C
:1005B0008295880F807E27DF80E025DF80E023DFC3
:1005C000F7011381193008F018E0F70182818823C0
:1005D00021F0812F806417DF12C0812F14DF1123D7
:1005E00071F0E70124961150012F10E00B5F1F4FAF
:1005F0000E0D1F1D899107DFC017D107D9F78D2D6B
:100600008EDF00008D2D6FDFC11003C081E8FBDE9F
:1006100003C08C2D8068F7DE8D2D81DF81E001C065
:1006200080E0DF91CF911F910F91FF90EF90DF90CD
:10063000CF900895EF92FF920F931F93CF93DF9384
:10064000E82EF62E50E0EA01CC0FDD1FCC0FDD1FA7
:10065000CC0FDD1F4C0F5D1FEA01CE5BDD4FE88143
:10066000F981908101E010E098010A8002C0220F18
:10067000331F0A94E2F7822F80958923808382E0DA
:10068000C2DE8E2DC0DE8F2DBEDEE881F981808135
:100690000A8002C0000F111F0A94E2F7082B0083A2
:1006A000DF91CF911F910F91FF90EF900895EF92FE
:1006B000FF920F931F93CF93DF93FFB6F89490E0D0
:1006C000EC01CC0FDD1FCC0FDD1FCC0FDD1F8C0F1D
:1006D0009D1FEC01CE5BDD4FE881F981908101E047
:1006E00010E098010A8002C0220F331F0A94E2F73B
:1006F000822F80958923808380EB85DE8FEF83DED8
:10070000E82E8FEF80DEE881F9812081C8010A8020
:1007100002C0880F991F0A94E2F7822B8083FFBEE4
:100720008E2DDF91CF911F910F91FF90EF90089543
:10073000DF92EF92FF920F931F93CF93DF93D82E08
:10074000E62EF42E30E0E901CC0FDD1FCC0FDD1FCB
:10075000CC0FDD1F2C0F3D1FE901CE5BDD4FE88183
:10076000F981908101E010E098010A8002C0220F17
:10077000331F0A94E2F7822F80958923808385E0D6
:1007800042DE8D2D40DE8E2D3EDE8F2D3CDEE8815B
:10079000F9812081C8010A8002C0880F991F0A943C
:1007A000E2F7822B8083DF91CF911F910F91FF9011
:1007B000EF90DF9008950F931F93CF93DF93C82F8F
:1007C000DFB7F89426DE0C2F10E0C801880F991FC0
:1007D000880F991F880F991F080F191F0E5B1D4F57
:1007E0004C2FF80166818AE225DF4C2FF8016781E2
:1007F00089E220DF4C2FF801608588E21BDF4C2F57
:1008000063E08BE217DF4C2F63E08BE213DF4C2FAA
:1008100060E280E60FDF4C2F60E280E70BDF4C2FB9
:1008200069EF80E207DF4C2F60EE81E203DF4C2F9F
:1008300060E082E2FFDE4C2F60E083E2FBDE4C2FC3
:100840006FE384E2F7DE4C2F60EC85E2F3DE4C2FA1
:1008500060E086E2EFDE4C2F60E087E2EBDE4C2FBB
:1008600067E580E0E7DE4C2F60EE81E0E3DE4C2FB1
:1008700067E784E0DFDE4C2F60E485E0DBDE4C2FB1
:1008800060E088E0D7DE4C2F60E089E0D3DE4C2FBB
:1008900062E180E1CFDE4C2F60E081E1CBDE4C2FC6
:1008A00060E08CE0C7DE4C2F60E08DE0C3DE2C2FD3
:1008B00044E067EE8FE03CDFDFBFDF91CF911F9117
:1008C0000F910895809394040895FF920F931F93BE
:1008D000CF93DF93CDB7DEB72C970FB6F894DEBF7A
:1008E0000FBECDBFF82E8FE892E09A8389831B82DA
:1008F00088E08C8380E88D831E821F82188619868B
:100900001A861B861C866F2DCE01019623DE8091F0
:100910009404813059F0823061F0833069F0843082
:1009200071F0853071F406E012E00BC006E312E0CE
:1009300008C00AE212E005C00EE112E002C002E1C6
:1009400012E080E992E09A83898380EC8D83F8013C
:1009500080818E8381818F8382818887838189874B
:1009600084818A8785818B8786818C876F2DCE01D4
:100970000196F0DD81E992E09A83898387E88D838F
:10098000F80187818E8380858F8381858887828522
:10099000898783858A8784858B8780E28C876F2D02
:1009A000CE010196D7DD2C960FB6F894DEBF0FBEB0
:1009B000CDBFDF91CF911F910F91FF900895BF920E
:1009C000CF92DF92EF92FF920F931F93CF93DF931B
:1009D0006C01062F862F6BDE182F282F2074B22E65
:1009E00086FF05C0802F7FDD80E90DDD07C08823ED
:1009F0000CF04EC0802F77DD84E905DD8FEF03DD3D
:100A0000E8E08E9FC0011124F601918380838FEF6F
:100A1000FADC282F229526952770F6018081918196
:100A2000822B918380838FEFEEDC8FEFECDC8FEFF6
:100A3000EADC8F70F6018383882381F0E601249637
:100A40008150E82EF12CF5E0EF0EF11CEC0CFD1CB2
:100A50008FEFD9DC8993CE15DF05D1F7802F5FDDCD
:100A600013FF04C081E0F601828302C0F601128206
:100A7000BB2031F0202F40E061E08CE259DE05C060
:100A8000202F40E062E08CE253DE812F877001C0AE
:100A90008FEFDF91CF911F910F91FF90EF90DF903B
:100AA000CF90BF900895089580E090E023E535E071
:100AB000FC01EE0FFF1FE551FC4F318320830196AF
:100AC00085319105A9F780E090E023E535E0FC0150
:100AD000EE0FFF1FEE0FFF1FE555FC4F3183208304
:100AE0001382128201968031910589F708950FB61D
:100AF00007FE0CC0F894A1E00AC02F5F3F4F2531DC
:100B0000310539F4AA23D1F078940895A0E020E0CB
:100B100030E0B901F901EE0FFF1FE551FC4F4081B4
:100B200051814355554049F7660F771FFB01E55149
:100B3000FC4F91838083AA2309F078940895CF9382
:100B40000FB607FE60C0F8942091AB033091AC0360
:100B50008217930709F44DC0C1E013C0F901EE0FED
:100B6000FF1FEE0FFF1FE555FC4F408151814817D5
:100B7000590751F473836283CC2309F44DC07894F0
:100B80004BC021E030E0EACF2F5F3F4F20313105ED
:100B900029F72091AB033091AC032355354081F008
:100BA00021E030E0D901F901EE0FFF1FEE0FFF1F2A
:100BB000E555FC4F4081518143555540A1F402C099
:100BC000A0E0B0E0AA0FBB1FAA0FBB1FA555BC4FEA
:100BD00011969C938E9313967C936E931297CC23CD
:100BE000D9F0789419C02F5F3F4F20313105D1F6ED
:100BF00013C07093AE036093AD03C1CF7093AE0387
:100C00006093AD0309C02091AB033091AC03821710
:100C10009307A1F3C0E0B5CFCF910895CF93DF93B1
:100C2000F894E091EB03F091EC0385E0E335F807ED
:100C300011F478941DC080E090E0DC010196EC0195
:100C4000CC0FDD1FC551DC4F28813981AA0FBB1F96
:100C5000A551BC4F11963C932E938431910569F7B1
:100C600083E595E090931404809313047894199588
:100C7000DF91CF910895EF92FF920F931F93CF933F
:100C8000DF93E12CF12C03E515E0F701D701AA0F62
:100C9000BB1FAA0FBB1FA555BC4F8D919C918355BF
:100CA000954001F1D701AA0FBB1FAA0FBB1FA55585
:100CB000BC4F12968D919C911397019739F0FD01CD
:100CC000828193810197938382830CC0EE0FFF1F73
:100CD000EE0FFF1FEF01C555DC4F8881998107DFBB
:100CE000198308838FEFE81AF80A20E1E216F1046D
:100CF00061F6DF91CF911F910F91FF90EF900895D2
:100D00008CE08093B1001092B2008AEF8093B30020
:100D100082E080937000789408951092CD0087E669
:100D20008093CC001092C80088E98093C90086E8BF
:100D30008093CA0083B3836083BB87B1836087B924
:100D40008EEB80937C0088E880937A0008959F92D0
:100D5000AF92BF92CF92DF92EF92FF920F931F93C9
:100D6000CF93DF93CDB7DEB7C654D1090FB6F89451
:100D7000DEBF0FBECDBFF89408EF1CE00F2EFDE6DE
:100D8000EF2EF2E0FF2EF02DCE0101965C018EC019
:100D9000F80123851F922F9322851F922F9321857F
:100DA0001F922F9320851F922F9327811F922F939D
:100DB00026811F922F9325811F922F9324811F92AA
:100DC0002F9323811F922F939F938F93FF92EF92E4
:100DD000BF92AF92C4D30FB6F894DEBF0FBECDBFA3
:100DE000F80180819181892B09F460C0912C939442
:100DF000892D90E09C0121503109AC01440F551F11
:100E0000FA01E80FF91FEE0FFF1FEE0FFF1FE8506A
:100E1000F34FC080D180B901660F771FDB01A20FAD
:100E2000B31FAA0FBB1FAA0FBB1FA850B34F119629
:100E3000DC92CE92D3801396DC921397D2801296D6
:100E4000DC921297D4801496DC921497D580159674
:100E5000DC921597D6801696DC921697D780179657
:100E6000DC921797D0841896DC921897D184199643
:100E7000DC921997D2841A96DC92A385FB01E20FCB
:100E8000F31FEE0FFF1FEE0FFF1FE850F34FA38776
:100E9000FA01E80FF91FEE0FFF1FEE0FFF1FE850DA
:100EA000F34F80819181892B09F0A1CFF8018081D6
:100EB0009181009709F06CCF7894CA5BDF4F0FB631
:100EC000F894DEBF0FBECDBFDF91CF911F910F9180
:100ED000FF90EF90DF90CF90BF90AF909F900895DC
:100EE00068E873E188E897E02ADE80E064DC8FEA56
:100EF00092E0C1D981E05FDC8FEA92E0BCD982E068
:100F00005ADC8FEA92E0B7D98DB380678DBB089524
:100F1000F89498B182E0892788B98091D80ED2DC04
:100F20008091D80E9091D90E0196863091052CF4BF
:100F30009093D90E8093D80E06C081E090E09093F4
:100F4000D90E8093D80E80E0C0DC60ED77E088E8B1
:100F500097E0F5DD789408951F920F920FB60F92E7
:100F600011240BB60F922F933F934F935F936F9380
:100F70007F938F939F93AF93BF93EF93FF937BDE0A
:100F8000FF91EF91BF91AF919F918F917F916F9161
:100F90005F914F913F912F910F900BBE0F900FBE1D
:100FA0000F901F9018951F920F920FB60F92112459
:100FB0008F939F9380917800909179009093DB0EAE
:100FC0008093DA0E9F918F910F900FBE0F901F901C
:100FD00018951F920F920FB60F9211240BB60F9215
:100FE0002F933F934F935F936F937F938F939F9331
:100FF000AF93BF93EF93FF938BD8FF91EF91BF9186
:10100000AF919F918F917F916F915F914F913F91A0
:101010002F910F900BBE0F900FBE0F901F90189541
:101020001F920F920FB60F9211240BB60F922F93AF
:101030003F934F935F936F937F938F939F93AF9360
:10104000BF93EF93FF9385D8FF91EF91BF91AF913D
:101050009F918F917F916F915F914F913F912F91D0
:101060000F900BBE0F900FBE0F901F9018951F9200
:101070000F920FB60F9211240BB60F922F933F933E
:101080004F935F936F937F938F939F93AF93BF9390
:10109000EF93FF939FD8FF91EF91BF91AF919F91F5
:1010A0008F917F916F915F914F913F912F910F9011
:1010B0000BBE0F900FBE0F901F9018951F920F92AE
:1010C0000FB60F9211240F900FBE0F901F9018951E
:1010D0001F920F920FB60F9211240BB60F922F93FF
:1010E0003F934F935F936F937F938F939F93AF93B0
:1010F000BF93EF93FF93409A8091F80C9091F90C75
:10110000892B99F084E09DE020E02F5F0C96FC0194
:101110003C9740815181452BC1F7283238F094B378
:1011200081E0892784BB27E201C020E0822F90E084
:101130009C01220F331F820F931F880F991F880F66
:10114000991F60E08850934F3ADC61E070E087EAD5
:1011500096E0F5DC4098FF91EF91BF91AF919F91A0
:101160008F917F916F915F914F913F912F910F9050
:101170000BBE0F900FBE0F901F9018951F920F92ED
:101180000FB60F9211240BB60F922F933F934F93EC
:101190005F936F937F938F939F93AF93BF93EF93DF
:1011A000FF9394B382E0892784BB8091F80C9091DF
:1011B000F90C892B81F0E4E0FDE021E030E0622FC2
:1011C000C901408151812F5F3F4F3C96452BB9F7B4
:1011D000683218F014C080E090E09C01220F331FA9
:1011E000820F931F880F991F880F991F61E0885005
:1011F000934FE5DB64E670E087EA96E0A0DCFF91C0
:10120000EF91BF91AF919F918F917F916F915F917E
:101210004F913F912F910F900BBE0F900FBE0F90EB
:101220001F9018951F920F920FB60F9211240BB6B4
:101230000F922F933F934F935F936F937F938F936F
:101240009F93AF93BF93EF93FF9394B381E089276C
:1012500084BB8091F80C9091F90C892B81F0E4E02B
:10126000FDE021E030E0622FC901408151812F5F14
:101270003F4F3C96452BB9F7683218F014C080E018
:1012800090E09C01220F331F820F931F880F991F3C
:10129000880F991F62E08850934F91DB62E370E002
:1012A00087EA96E04CDCFF91EF91BF91AF919F915F
:1012B0008F917F916F915F914F913F912F910F90FF
:1012C0000BBE0F900FBE0F901F90189526DDECDB24
:1012D00017DD0E942F017FD881E090E09093D90E16
:1012E0008093D80EE8EFFCE088ED9EE0118210823A
:1012F0003C96E817F907D1F787EA96E0F8DB80E734
:1013000097E0F5DBA8958ADC0E948101FBCF0F9363
:101310001F93CF93DF938230910510F482E090E029
:10132000E091DE0EF091DF0E20E030E0A0E0B0E0D2
:10133000309719F140815181028113814817590773
:10134000C8F08417950769F4109731F012960C9342
:10135000129713961C9327C00093DE0E1093DF0E96
:1013600022C02115310519F04217530718F49A01CC
:10137000BD01EF01DF01F801DBCF21153105F9F0E7
:10138000281B390B2430310580F48A819B8161153B
:10139000710521F0FB019383828304C09093DF0EDB
:1013A0008093DE0EFE01329644C0FE01E20FF31F71
:1013B0008193919322503109398328833AC0209137
:1013C000DC0E3091DD0E232B41F42091020230918E
:1013D00003023093DD0E2093DC0E20910002309149
:1013E00001022115310541F42DB73EB740910402A9
:1013F00050910502241B350BE091DC0EF091DD0EBF
:10140000E217F307A0F42E1B3F0B2817390778F0DB
:10141000AC014E5F5F4F2417350748F04E0F5F1F3A
:101420005093DD0E4093DC0E8193919302C0E0E077
:10143000F0E0CF01DF91CF911F910F910895CF93ED
:10144000DF93009709F481C0FC0132971382128266
:10145000A091DE0EB091DF0E109781F420813181D2
:10146000820F931F2091DC0E3091DD0E2817390773
:1014700051F5F093DD0EE093DC0E67C0ED0120E046
:1014800030E0CE17DF0740F44A815B819E014115B1
:101490005105F1F0EA01F5CFD383C2834081518138
:1014A000840F951FC817D90759F488819981840F33
:1014B000951F0296918380838A819B819383828387
:1014C0002115310529F4F093DF0EE093DE0E3DC0C7
:1014D000E901FB83EA8349915991C40FD51FEC17A9
:1014E000FD0761F480819181840F951F0296E901C7
:1014F00099838883828193819B838A83E0E0F0E0F3
:1015000012968D919C911397009719F0FD01DC01C3
:10151000F7CF8D919C9111979D012E5F3F4F820FC8
:10152000931F2091DC0E3091DD0E2817390769F4E6
:10153000309729F41092DF0E1092DE0E02C0138253
:101540001282B093DD0EA093DC0EDF91CF9108954F
:10155000FB01DC0101900D920020E1F708950F934B
:101560001F93CF93DF93CDB7DEB72E970FB6F894C6
:10157000DEBF0FBECDBF0E891F8986E08C831A8324
:1015800009838FEF9FE79E838D83AE01465E5F4F99
:10159000688D798DCE01019610D0EF81F885E00F2E
:1015A000F11F10822E960FB6F894DEBF0FBECDBF8E
:1015B000DF91CF911F910F9108952F923F924F92FB
:1015C0005F926F927F928F929F92AF92BF92CF92D3
:1015D000DF92EF92FF920F931F93CF93DF93CDB7DC
:1015E000DEB72B970FB6F894DEBF0FBECDBF6C01F0
:1015F0007B018A01FC0117821682838181FFBFC1B2
:10160000CE0101963C01F6019381F70193FD85918E
:1016100093FF81917F01882309F4ADC1853239F4AC
:1016200093FD859193FF81917F01853221F4B6016D
:1016300090E0D6D1E8CF912C212C312CFFE1F3158D
:10164000D8F08B3279F038F4803279F08332A1F41B
:10165000232D20611DC08D3261F0803369F4232D6C
:10166000216016C0832D8260382EE32DE4603E2E6B
:101670002AC0F32DF8601DC037FC2DC020ED280FC7
:101680002A3040F08E32B9F436FC75C1232D206427
:10169000322E19C036FE06C08AE0989E200D112415
:1016A000922E11C0EAE02E9E200D1124222EF32D41
:1016B000F0623F2E08C08C3621F4832D8068382ECE
:1016C00002C0883641F4F70193FD859193FF819123
:1016D0007F018111B3CF982F9F7D9554933028F4CB
:1016E0000C5F1F4F9FE399830DC0833631F0833722
:1016F00071F0833509F055C020C0F80180818983DD
:101700000E5F1F4F88248394912C530112C028012F
:10171000F2E04F0E511CF801A080B18036FE03C0EC
:10172000692D70E002C06FEF7FEFC5014ED14C0113
:101730008201F32DFF773F2E15C0280122E0420ED3
:10174000511CF801A080B18036FE03C0692D70E005
:1017500002C06FEF7FEFC5012DD14C01F32DF06872
:101760003F2E820133FC19C0822D90E08816990625
:10177000A0F4B60180E290E033D12A94F5CFF501D0
:1017800037FC859137FE81915F01B60190E028D149
:1017900021102A9421E0821A91088114910479F78A
:1017A000E1C0843611F0893639F5F80137FE07C0FB
:1017B00060817181828193810C5F1F4F08C06081BD
:1017C0007181072E000C880B990B0E5F1F4FF32DB4
:1017D000FF763F2E97FF09C0909580957095619593
:1017E0007F4F8F4F9F4FF0683F2E2AE030E0A301DC
:1017F00033D1882E861844C0853731F4232D2F7EAF
:10180000B22E2AE030E025C0932D997FB92E8F3675
:10181000C1F018F4883579F0AEC0803719F08837F8
:1018200021F0A9C0E92FE061BE2EB4FE0DC0FB2D52
:10183000F460BF2E09C034FE0AC0292F2660B22EE4
:1018400006C028E030E005C020E130E002C020E121
:1018500032E0F801B7FE07C0608171818281938117
:101860000C5F1F4F06C06081718180E090E00E5FC9
:101870001F4FA301F1D0882E8618FB2DFF773F2E36
:1018800036FE0DC0232D2E7FA22E891458F434FE6F
:101890000BC032FC09C0832D8E7EA82E05C0B82C4B
:1018A000A32C03C0B82C01C0B92CA4FE0FC0FE01AC
:1018B000E80DF11D8081803321F49A2D997EA92EA7
:1018C00009C0A2FE06C0B394B39404C08A2D8678E2
:1018D00009F0B394A3FC10C0A0FE06C0B21480F4BB
:1018E000280C922C9B180DC0B21458F4B60180E25B
:1018F00090E076D0B394F8CFB21418F42B1802C04D
:10190000982C212CA4FE0FC0B60180E390E068D093
:10191000A2FE16C0A1FC03C088E790E002C088E5E3
:1019200090E0B6010CC08A2D867851F0A1FE02C06D
:101930008BE201C080E2A7FC8DE2B60190E050D0BE
:10194000891430F4B60180E390E04AD09A94F8CF3D
:101950008A94F301E80DF11D8081B60190E040D03A
:101960008110F6CF222009F44ECEB60180E290E03D
:1019700037D02A94F7CFF6018681978102C08FEF86
:101980009FEF2B960FB6F894DEBF0FBECDBFDF9151
:10199000CF911F910F91FF90EF90DF90CF90BF906C
:1019A000AF909F908F907F906F905F904F903F90FF
:1019B0002F900895FC010590615070400110D8F7F8
:1019C000809590958E0F9F1F0895FC016150704087
:1019D00001900110D8F7809590958E0F9F1F089564
:1019E0000F931F93CF93DF93FB01238121FD03C04E
:1019F0008FEF9FEF2CC022FF16C0468157812481B4
:101A000035814217530744F4A081B1819D012F5FB6
:101A10003F4F318320838C93268137812F5F3F4F47
:101A20003783268314C08B01EC01FB010084F18510
:101A3000E02D1995892BE1F6D80116968D919C9190
:101A40001797019617969C938E931697CE01DF9168
:101A5000CF911F910F910895FA01AA27283051F1D3
:101A6000203181F1E8946F936E7F6E5F7F4F8F4FCF
:101A70009F4FAF4FB1E03ED0B4E03CD0670F781F2E
:101A8000891F9A1FA11D680F791F8A1F911DA11D13
:101A90006A0F711D811D911DA11D20D009F468944C
:101AA0003F912AE0269F11243019305D3193DEF6F4
:101AB000CF010895462F4770405D4193B3E00FD0AA
:101AC000C9F7F6CF462F4F70405D4A3318F0495D95
:101AD00031FD4052419302D0A9F7EACFB4E0A69578
:101AE0009795879577956795BA95C9F7009761059A
:101AF000710508959B01AC010A2E069457954795F0
:101B000037952795BA95C9F7620F731F841F951FE4
:081B1000A01D0895F894FFCF19
:101B18000000E00E200054455354204D45535341D6
:101B2800474520203132302E30204B6D2F685265CA
:101B38006D3A2020363030204B6D4D6F6D3A203293
:101B4800302E30204C204176673A2032302E30201B
:101B58004C2025000625000703F006250005250072
:101B68000703F00625000425000703F00649443A58
:101B78002025642C205061723A202573007B224175
:101B8800223A222558222C2242223A222558222C57
:101B98002243223A5B222558222C222558222C2225
:101BA8002558222C222558222C222558222C222541
:101BB80058222C222558222C222558225D7D002DC2
:101BC8002D2D2D2D2D2D2D005445433A2025640013
:101BD8005245433A2025640045464C473A2025643F
:101BE8000043414E494E54453A2025640043414E36
:101BF800494E54463A2025640043414E4354524CC2
:101C08003A2025640043414E535441543A202564F8
:101C1800004246504354524C3A20256400545852CE
:0C1C280054534354524C3A2025640000F1
:00000001FF
